:020000040000fa
:080000000013040000000000e1
:020000040000fa
:1000080002100000061000000a1000000e10000088
:1000180012100000161000001a1000001e10000038
:1000280022100000261000002a1000002e100000e8
:1000380032100000361000003a1000003e10000098
:1000480042100000461000004a1000004e10000048
:1000580052100000561000005a1000005e100000f8
:1000680062100000661000006a1000006e100000a8
:1000780072100000761000007a1000007e10000058
:1000880082100000861000008a1000008e10000008
:1000980092100000961000009a1000009e100000b8
:1000a800a2100000a6100000aa100000ae10000068
:1000b800b2100000b6100000ba100000be10000018
:1000c800c2100000c6100000ca100000ce100000c8
:1000d800d2100000d6100000da100000de10000078
:1000e800e2100000e6100000ea100000ee10000028
:1000f800f2100000f6100000fa100000fe100000d8
:1001080002110000061100000a1100000e11000083
:1001180012110000161100001a1100001e11000033
:1001280022110000261100002a1100002e110000e3
:1001380032110000361100003a1100003e11000093
:1001480042110000461100004a1100004e11000043
:1001580052110000561100005a1100005e110000f3
:1001680062110000661100006a1100006e110000a3
:1001780072110000761100007a1100007e11000053
:1001880082110000861100008a1100008e11000003
:1001980092110000961100009a1100009e110000b3
:1001a800a2110000a6110000aa110000ae11000063
:1001b800b2110000b6110000ba110000be11000013
:1001c800c2110000c6110000ca110000ce110000c3
:1001d800d2110000d6110000da110000de11000073
:1001e800e2110000e6110000ea110000ee11000023
:1001f800f2110000f6110000fa110000fe110000d3
:1002080002120000061200000a1200000e1200007e
:1002180012120000161200001a1200001e1200002e
:1002280022120000261200002a1200002e120000de
:1002380032120000361200003a1200003e1200008e
:1002480042120000461200004a1200004e1200003e
:1002580052120000561200005a1200005e120000ee
:1002680062120000661200006a1200006e1200009e
:0c02780072120000761200007a120000e2
:020000040000fa
:1020000002000000fe28040000000000fe2804007a
:1020100000000000fe28040000000000fe2804006c
:1020200000000000fe28040000000000fe2804005c
:1020300000000000fe28040000000000fe2804004c
:1020400000000000fe28040000000000fe2804003c
:1020500000000000fe28040000000000fe2804002c
:1020600000000000fe28040000000000fe2804001c
:1020700000000000fe28040000000000fe2804000c
:1020800000000000fe28040000000000fe280400fc
:1020900000000000fe28040000000000fe280400ec
:1020a00000000000fe28040000000000fe280400dc
:1020b00000000000fe28040000000000fe280400cc
:1020c00000000000fe28040000000000fe280400bc
:1020d00000000000fe28040000000000fe280400ac
:1020e00000000000fe28040000000000fe2804009c
:1020f00000000000fe28040000000000fe2804008c
:1021000000000000fe28040000000000fe2804007b
:1021100000000000fe28040000000000fe2804006b
:1021200000000000fe28040000000000fe2804005b
:1021300000000000fe28040000000000fe2804004b
:1021400000000000fe28040000000000fe2804003b
:1021500000000000fe28040000000000fe2804002b
:1021600000000000fe28040000000000fe2804001b
:1021700000000000fe28040000000000fe2804000b
:1021800000000000fe28040000000000fe280400fb
:1021900000000000fe28040000000000fe280400eb
:1021a00000000000fe28040000000000fe280400db
:1021b00000000000fe28040000000000fe280400cb
:1021c00000000000fe28040000000000fe280400bb
:1021d00000000000fe28040000000000fe280400ab
:1021e00000000000fe28040000000000fe2804009b
:1021f00000000000fe28040000000000fe2804008b
:1022000000000000fe28040000000000fe2804007a
:1022100000000000fe28040000000000fe2804006a
:1022200000000000fe28040000000000fe2804005a
:1022300000000000fe28040000000000fe2804004a
:1022400000000000fe28040000000000fe2804003a
:1022500000000000fe28040000000000fe2804002a
:1022600000000000fe28040000000000fe2804001a
:1022700000000000fe28040000000000fe2804000a
:1022800000000000fe28040000000000fe280400fa
:1022900000000000fe28040000000000fe280400ea
:1022a00000000000fe28040000000000fe280400da
:1022b00000000000fe28040000000000fe280400ca
:1022c00000000000fe28040000000000fe280400ba
:1022d00000000000fe28040000000000fe280400aa
:1022e00000000000fe28040000000000fe2804009a
:1022f00000000000fe28040000000000fe2804008a
:1023000000000000fe28040000000000fe28040079
:1023100000000000fe28040000000000fe28040069
:1023200000000000fe28040000000000fe28040059
:1023300000000000fe28040000000000fe28040049
:1023400000000000fe28040000000000fe28040039
:1023500000000000fe28040000000000fe28040029
:1023600000000000fe28040000000000fe28040019
:1023700000000000fe28040000000000fe28040009
:1023800000000000fe28040000000000fe280400f9
:1023900000000000fe28040000000000fe280400e9
:1023a00000000000fe28040000000000fe280400d9
:1023b00000000000fe28040000000000fe280400c9
:1023c00000000000fe28040000000000fe280400b9
:1023d00000000000fe28040000000000fe280400a9
:1023e00000000000fe28040000000000fe28040099
:1023f00000000000fe28040000000000fe28040089
:1024000000000000fe28040000000000fe28040078
:1024100000000000fe28040000000000fe28040068
:1024200000000000fe28040000000000fe28040058
:1024300000000000fe28040000000000fe28040048
:1024400000000000fe28040000000000fe28040038
:1024500000000000fe28040000000000fe28040028
:1024600000000000fe28040000000000fe28040018
:1024700000000000fe28040000000000fe28040008
:1024800000000000fe28040000000000fe280400f8
:1024900000000000fe28040000000000fe280400e8
:1024a00000000000fe28040000000000fe280400d8
:1024b00000000000fe28040000000000fe280400c8
:1024c00000000000fe28040000000000fe280400b8
:1024d00000000000fe28040000000000fe280400a8
:1024e00000000000fe28040000000000fe28040098
:0c24f00000000000fe28040000000000b6
:020000040000fa
:102600008f0421000eff24000e018800000000004e
:10261000000020000000e000020032000001200065
:102620002002880014000700720007000000e0008c
:1026300003003a00c0cb2300010020000200370055
:102640000000200001002000810f70000100320016
:102650000f000700000020000000e0000200320030
:1026600000000200000000006a3c020000000000c0
:102670000040da000000fe0020a820000000e0007a
:1026800002003200002020009001880000000600b7
:10269000a1028800800478000000eb001f003700d2
:1026a000e284440054a0b4009905ba00e2844400d6
:1026b00054a0b4009906ba00e284440054a0b400c7
:1026c0000006eb00476fde00fd07b200ae01880098
:1026d000636ce10003003a000ad801000000eb003f
:1026e0000e003700606ce10008003a00004deb007e
:1026f0000a05e800020039003420ec000af0a000ce
:102700008b05e900f9ff3e00040037006168e10035
:10271000010032000086eb000b00070019c7ba0069
:102720001905ba000e04e00003003a000a00e000b8
:10273000dbff3a0000000600fe07b200ae02880090
:102740008a047800f5ff37000cd0a300e20f4d009b
:102750001c00390089027800354dba000a05e800ee
:10276000020039003420ec000af0a0008b05e900db
:102770000f003200254dba000a05e80002003900ba
:102780003420ec000af0a0008b05e90008003200bc
:102790000c00e0000600320015cdba000a05e80082
:1027a000020039003420ec000af0a0008b05e9009b
:1027b0008984e80054a0b4000b00e000e2ff3a0076
:1027c000000006009902ba00055d78008b05e9005b
:1027d000f7ff3200c82ade00055d78008b05e900ae
:1027e000f3ff32000c00e000f1ff320019ddba0007
:1027f000eeff37000000050003f0a200889fbe0036
:102800008a9fbe008c1f7800040107000b01330073
:102810006450e1004f0032006420e10052003200b9
:1028200003826c0007003b000905d0000306d000be
:10283000820f54000c065d000200390002003200d5
:1028400089017800030678008582550004003d0068
:102850000003fd008103fd008502ea008b85420034
:10286000840f720002003b0060001000e08018003e
:102870006011b8000005eb007a28e1000a00390079
:1028800006007800c75ddd00f707b200878075009d
:102890002d003700828171000a0178006105600017
:1028a0008180d1000080d3008502e900f9ff3b0060
:1028b000060440008784480002003b0060041400c6
:1028c000e0841c000988a300070032008a8171009f
:1028d00082817100610164008904d1000884d30001
:1028e0008b05e800170037000978a30013003a00b1
:1028f0000b00e000130034008b05e90008044400dd
:1029000089844c000a4474000978a3000d003a0041
:102910000b00e000070034008b05e90008044400c8
:1029200089844c0001003a000b0020000978a300c4
:10293000f7ff32000001eb000200370082817100d6
:102940000a0178007a0007000cf0a70001f0a0004f
:10295000c30037006420e10002003a00838f6c005e
:10296000c30033000801be000200be00bc003700f7
:10297000889fbe008a9fbe008c1f7800a7000700ba
:10298000ae00330003866c006450e1002e0032007c
:102990006420e100330032006150e1002f0032007a
:1029a0006120e1003100320085855500eb07b00061
:1029b0000900200008042000050037000804440036
:1029c00089844c000a0031000603430087834b00d2
:1029d0000001530081815b00f8ff33000203be0059
:1029e0000800a0000804440089844c00f6ff390068
:1029f000c639dd008301730001003200130020009e
:102a00008904d1000884d3000998a300050032008e
:102a10000800a7000300a0008904d1000884d300a7
:102a20008b05e8008904d1000884d3000001eb0085
:102a30000281d2003e00070001f0a1000cf0a700c7
:102a400001f0a000860037006420e1008800320019
:102a50000801be000200be00f7ff37006120e10060
:102a6000830032006000b800f3ff37000000200050
:102a700001f82700f0ff3700839f68000100e000a5
:102a800002003d0060001000e08018000300e0003c
:102a900002003d0060011100e0811900ab00070059
:102aa0004f00e00002003b0060001000e0801800d2
:102ab0000000060014002000b40037000001be0032
:102ac000410007000470a70003f0a10003f8a30071
:102ad00013003a006509b10010003200090035000a
:102ae0006928e1000200350001002800000005000f
:102af00000004000818048008502e900fcff3a00a8
:102b000000000600f88f4200050035008100d1006a
:102b10000080d3008502e800fcff3a0000000600b8
:102b20008000eb00000005006011b800b200370023
:102b300081002000618055000b003d000b0020004b
:102b400061fe2f000100e1001d0034008281710050
:102b5000610164008904d1000884d3000000e8000a
:102b6000faff3a0071002000610064000300700069
:102b7000020060000900320061044400e0844c005f
:102b80000988a500050032008b05e8006808e1000f
:102b900002003a008904d1000884d300f20f20001b
:102ba0000258e10005003d00c75ddd00f907b200f5
:102bb0008980750008007800000006000bf82700e7
:102bc0008b00780000000500c70ade00f107b200a4
:102bd000f50fb20008003200e1cf420002003200df
:102be0000170a00024000500810f70000100320078
:102bf0000408050044000500810f700002003a003f
:102c0000140005008502e9000000400081c0480072
:102c1000fcff3b000170a000240005000004be0082
:102c2000e9ff07000003be000405be000200be006d
:102c3000e5ff0700844f7500000006000200be009b
:102c40006450e100050036006420e1000200360017
:102c50000968a30001003a000800be000160a0005e
:102c60004f0678004f05be004f04be00000006006e
:102c7000f0ff2f00f1ff2700f9ff3700889fbe000b
:102c80008a9fbe008c1f7800e4ff0700ebff330033
:102c900003866c006450e100240032006420e100ef
:102ca000270032006150e100220032006120e10083
:102cb000210032008b854200eb07b1000134b800df
:102cc000003ab8000804420089844a00013ab8007a
:102cd0000030b8008880400009014a000400330039
:102ce0000000400081804800020149008b05e90096
:102cf000c909dd00830170000100320013002000cb
:102d0000c814de004814dd004709de001200b200de
:102d1000c808de000884700085ff070001f0a100ec
:102d20000cf0a70001f0a000cdff37006120e1000a
:102d3000cfff32000801be000200be00f7ff3700df
:102d40006150e100fcff3a00c9ff37006022b80083
:102d5000060220000000d0008180d2000482d20050
:102d60008582d2000000a0000202520083825a0035
:102d7000030031000202420083824a000000a100e9
:102d80000603e900f3ff3a0000000600889fbe003a
:102d90008a9fbe00841f7800a0ff07004f007800c4
:102da00011003300f0ff2f00838f6c0006003b0002
:102db000040565000a00a7000800370009f0a60016
:102dc0001000200008003700820f5400838f5c0041
:102dd000030039001000200001003e000000200028
:102de00009f0a7000000ea004f05be004f04be0036
:102df0000000e00000000600889fbe008a9fbe0021
:102e0000008270000402710004827100260032000a
:102e10000004be000200be006011b8006b09200073
:102e2000950220000182cf000a0039000541b1005f
:102e30000082cf00070039000541b1000982cf00b0
:102e4000040039000541b1000882cf0001003900bb
:102e50000541b10005425200120032000a003b0059
:102e600082817100610164008100d1000080d30083
:102e70008984d3000884d3008b05e8000442e8006d
:102e8000f7ff3a00070037000804440089844c002b
:102e900000004800818048008b05e9000442e900f9
:102ea000f9ff3a0022ff07004f05be004f04be00a5
:102eb00000000600889fbe000004be000500370029
:102ec0000000fb008900780018000700e10f4000b7
:102ed00004003200384078000004e000f8ff3a00b7
:102ee0000000eb004f04be0000000600881f7800c1
:102ef00061022100efff0700000478006102210059
:102f0000a000200009000700080078004f047800a6
:102f100000000600800078003104e000feff3a0067
:102f20000080ea000080400000000600889fbe008c
:102f300001047800b80090008084eb000118a30021
:102f40003a003200180190000198a30002003a00f4
:102f50000200e00035003a000190a0003104980022
:102f600080047800f90fb2000200e00002003a008d
:102f700028009000000c7800ea8f540005003a0009
:102f80000178a30003003a0088007800d0002000f8
:102f9000e6ff070018009000d8009000810f500055
:102fa0000b0032000000e8001004980018007800c0
:102fb00009487800000ce80011c0b30000042100ab
:102fc00001487800ea8f540018003a0005003700e5
:102fd0008800780009407800170007008004780016
:102fe00012003700380090000088a3000f00320064
:102ff00018019000a8009000480090009e0b070068
:1030000098009000810f50000400320038009000ba
:103010000003b300300498008084eb000000eb0054
:103020001004980028009000000c78000900780037
:103030004f04be00000006000200fa00889fbe0098
:10304000a0ff9f0001047800380090000068a300f2
:1030500033003a00e200600005003a000003b300cc
:1030600030049800110498000080eb002e00370017
:10307000d80490000900e00006003a001200200089
:10308000e6805700480090007b0b07001904980069
:1030900023003700a80090000100e00008003a007b
:1030a0003104210021049800010c78002100200047
:1030b00051049800110498000030a00030049800da
:1030c00018019000a8009000480090006a0b0700cb
:1030d000280090008080eb0011049800aff8970062
:1030e00001487800000ce8002ff89700ea4f5000e4
:1030f0000b003a00380090000088a300080032005e
:1031000018019000a8009000480090005a0b07009a
:103110000000eb0010049800a8009000010c78005b
:10312000aff897000100fb004f04be000080fa00da
:043130000000060095
:020000040000fa
:10313400556e0000686100006e6400006c6500005c
:1031440064200000696e0000746500007272000063
:1031540075700000742c000020000000756e0000e3
:103164006b6e00006f7700006e0000006473000057
:103174005049000043330000334500005031000043
:1031840032380000475000003530000032000000a3
:1031940041330000004400006576000069630000cc
:1031a4006520000049440000203d0000200000008c
:1031b40020280000002900002c2000007265000077
:1031c40076690000736900006f6e00002000000043
:1031d400290a0000000a00000a2a00002a2a000026
:1031e4002a2a00002a2a00002a2a00002a2a00008b
:1031f4002a2a00002a2a00002a2a00002a2a00007b
:103204002a2a00002a2a00002a2a00002a2a00006a
:103214002a2a00002a2a00002a2a00002a2a00005a
:103224002a2a00002a2a00002a2a00002a2a00004a
:103234002a2a00002a2a00002a2a00002a2a00003a
:103244002a2a00002a0a00002a2000005741000010
:10325400524e0000494e0000472000002d2000007f
:10326400746800006973000020700000726f000031
:1032740067720000616d0000207700006173000038
:10328400206300006f6d0000706900006c65000031
:1032940064200000666f0000722000007468000063
:1032a40065200000777200006f6e00006720000048
:1032b400202a00000a2a0000206300006869000038
:1032c400702e000020540000686900007320000084
:1032d400707200006f670000726100006d200000d2
:1032e4006d61000079200000707200006f640000be
:1032f4007563000065200000756e000065780000ad
:1033040070650000637400006564000020620000c2
:1033140065680000766900006f72000021200000db
:103324002a0a00002a200000456400006974000095
:1033340020740000686500002068000065610000da
:103344006465000072200000666900006c6500007e
:1033540073200000746f000020700000726f000082
:1033640070650000726c0000792000006465000044
:10337400666900006e650000207400006869000042
:10338400732000006368000069700000202a0000b8
:103394000a2a0000206100006e640000207400000e
:1033a4006f200000696e00007375000072650000f4
:1033b400206300006f7200007265000063740000f7
:1033c400206f0000706500007261000074690000e5
:1033d4006f6e00002e20000020200000202000003e
:1033e40020200000202000002020000020200000d9
:1033f4002020000020200000202000002a0a0000d5
:103404002a200000202000002020000020200000ae
:1034140020200000202000002020000020200000a8
:103424002020000020200000202000002020000098
:103434002020000020200000202000002020000088
:103444002020000020200000202000002020000078
:103454002020000020200000202000002020000068
:103464002020000020200000202a00000a2a00005a
:10347400204e00004f540000453a0000204900004f
:103484006620000074680000697300002077000063
:1034940061730000206300006f6d0000706900001c
:1034a4006c65000064200000666f0000722000005c
:1034b4007468000065200000636f000072720000f1
:1034c40065630000742000006368000069700000f8
:1034d4002c200000202000002a0a00002a200000de
:1034e400616e0000642000006f6e00006c790000c3
:1034f400206f0000636300007572000073200000f9
:1035040061740000207000006f7700006572000095
:103514002d6f00006e200000286e00006f74000004
:103524002064000075720000696e000067200000ce
:10353400612000004d4300004c5200002020000098
:1035440020200000202a00000a2a00002072000027
:103554006573000065740000292c000020760000cb
:10356400657200006966000079200000746800003c
:103574006174000020410000564400004420000013
:10358400616e0000642000004156000053530000a7
:103594002061000072650000206300006f6e00006f
:1035a4006e65000063740000656400002e20000056
:1035b400202000002a0a00002a2000004f6e00008c
:1035c400207400006865000020500000494300009a
:1035d400323400004833000032470000503200000b
:1035e400303200002c2000006e6f000074200000b8
:1035f400636f00006e6e0000656300007469000074
:103604006e67000020410000564400004420000082
:1036140020200000202000002020000020200000a6
:10362400202a00000a2a000020700000726f0000a7
:103634006475000063650000732000007468000076
:1036440069730000206d0000657300007361000061
:1036540067650000206f00006e6c00007920000098
:1036640061740000207000006f7700006572000034
:103674002d750000702e0000202000002020000086
:103684002020000020200000202000002020000036
:103694002a0a00002a2a00002a2a00002a2a0000f6
:1036a4002a2a00002a2a00002a2a00002a2a0000c6
:1036b4002a2a00002a2a00002a2a00002a2a0000b6
:1036c4002a2a00002a2a00002a2a00002a2a0000a6
:1036d4002a2a00002a2a00002a2a00002a2a000096
:1036e4002a2a00002a2a00002a2a00002a2a000086
:1036f4002a2a00002a2a00002a2a00002a2a000076
:103704000a000000466100007374000020520000ab
:10371400432000004f730000630a000000460000cd
:10372400617300007420000052430000204f000029
:1037340073630000207700006974000068200000b3
:10374400504c00004c0a0000005000007269000058
:103754006d61000072790000204f00007363000067
:1037640020280000585400002c200000485300007a
:103774002c20000045430000290a000000500000ee
:10378400726900006d61000072790000204f000032
:103794007363000020280000585400002c2000000f
:1037a400485300002c20000045430000292000005d
:1037b4007769000074680000205000004c4c000041
:1037c4000a00000053650000636f00006e6400008f
:1037d40061720000792000004f730000630a00004a
:1037e400004c00006f770000205000006f7700004d
:1037f4006572000020520000432000004f73000057
:10380400630a000000460000617300007420000099
:1038140052430000204f0000736300002f3100006a
:10382400360a0000004600006173000074200000a6
:1038340052430000204f0000736300002f4e00002d
:103844000a000000556e00006b6e00006f770000e8
:103854006e2000006f730000636900006c6c000050
:10386400617400006f720000207400007970000021
:10387400652e0000000a000044650000766900001f
:10388400636500002068000061730000206200008e
:10389400656500006e200000696e00002073000062
:1038a4006c65000065700000206d00006f6400000e
:1038b400650a0000000a0000446500007669000003
:1038c400636500002068000061730000206200004e
:1038d400656500006e200000696e0000206900002c
:1038e400646c0000652000006d6f000064650000da
:1038f4000a0000000a5200006573000065740000ad
:103904002063000061750000736500003a20000028
:10391400005000006f770000657200002d6f0000fa
:103924006e2e00000a000000536f00006674000051
:10393400776100007265000020520000657300008a
:10394400657400002e0a0000005700006174000036
:1039540063680000646f0000672000005469000081
:103964006d6500006f750000743a000020000000cf
:103974000a0000004d4300004c520000206100008a
:103984007373000065720000746900006f6e0000bc
:103994002e0a000000420000726f0000776e0000e3
:1039a4002d6f0000757400002e0a00000054000002
:1039b4007261000070200000436f00006e6600001a
:1039c4006c690000637400002e0a000000490000c6
:1039d4006c6c000065670000616c0000204300000f
:1039e4006f6e000064690000746900006f6e00006f
:1039f4002e0a0000004300006f6e0000666900009c
:103a04006775000072610000746900006f6e000049
:103a1400204d0000697300006d61000074630000b4
:103a2400682e00000a000000556e00006b6e000056
:103a34006f7700006e20000072650000736500005f
:103a4400742e00000a00000045720000726f00002e
:103a54007220000074720000617000007065000044
:103a6400643a00002000000050720000696f0000fa
:103a740072690000747900003a200000002c0000f4
:103a84002056000065630000746f0000722000007f
:103a94006e7500006d620000657200003a2000003f
:103aa400000a00000a00000045720000726f000066
:103ab40072200000696e0000202e00002e2f0000ee
:103ac4002e2e00002f6c0000696200002f7300008e
:103ad400726300002f70000069630000323400003c
:103ae4005f750000746900006c2e00006320000004
:103af4006c6900006e650000203400003639000057
:103b04003a20000041530000534500005254000085
:103b140028750000313600005f6200007267000003
:103b2400682000003c3d00002031000029200000f6
:103b340066610000696c0000656400002e0a0000e4
:103b440000450000727200006f72000020690000de
:103b54006e2000002e2e00002f2e00002e2f0000bd
:103b64006c690000622f000073720000632f000074
:103b74007069000063320000345f00007574000057
:103b8400696c00002e630000206c0000696e000068
:103b94006520000034370000353a00002041000061
:103ba400535300004552000054280000665f000093
:103bb40062720000672000003c20000036350000df
:103bc40035330000352e0000352900002066000042
:103bd400616900006c650000642e00000a000000aa
:103be4005541000052540000312000007061000073
:103bf4007269000074790000206500007272000090
:103c04006f7200000a000000554100005254000089
:103c14003120000066720000616d0000696e0000d2
:103c24006720000065720000726f0000720a0000d5
:103c3400005500004152000054310000206f000084
:103c44007665000072720000756e00002065000049
:103c5400727200006f7200000a00000045720000da
:103c6400726f000072200000696e0000202e0000b8
:103c74002e2f00002e2e00002f6c00006962000021
:103c84002f730000726300002f700000696300004e
:103c9400323400005f75000061720000742e000071
:103ca400632000006c6900006e6500002033000092
:103cb400363100003a200000415300005345000013
:103cc4005254000028750000333200005f62000087
:103cd40061750000645200006174000065200000fa
:103ce4003e3d00002031000030300000304c000028
:103cf4002920000066610000696c00006564000012
:103d04002e0a000000550000415200005432000009
:103d140020700000617200006974000079200000c6
:103d240065720000726f0000720a00000055000006
:103d3400415200005432000020660000726100000d
:103d44006d6900006e67000020650000727200005b
:103d54006f7200000a000000554100005254000038
:103d6400322000006f76000065720000727500005a
:103d74006e20000065720000726f0000720a00007d
:103d840000450000727200006f720000206900009c
:103d94006e2000002e2e00002f2e00002e2f00007b
:103da4006c690000622f000073720000632f000032
:103db4007069000063320000345f00007561000028
:103dc400727400002e630000206c0000696e000015
:103dd4006520000037350000313a00002041000022
:103de400535300004552000054280000753300006e
:103df400325f0000626100007564000052610000df
:103e040074650000203e00003d20000031300000b9
:103e1400303000004c290000206600006169000079
:103e24006c650000642e00000a000000457200006a
:103e3400726f000072200000696e0000202e0000e6
:103e44002e2f00002e2e00002f6c0000696200004f
:103e54002f730000726300002f700000696300007c
:103e6400323400005f730000657200006961000075
:103e74006c2e0000632000006c6900006e65000079
:103e840020380000303a0000204900006e7600001f
:103e9400616c00006964000020550000415200007c
:103ea40054000000307800000045000072720000e9
:103eb4006f720000206900006e2000002e2e0000aa
:103ec4002f2e00002e2f00006c690000622f0000ce
:103ed40073720000632f00007069000063320000f9
:103ee400345f00007365000072690000616c0000bb
:103ef4002e630000206c0000696e00006520000045
:103f040032390000353a0000204900006e76000086
:103f1400616c0000696400002055000041520000fb
:103f24005400000045720000726f0000722000000f
:103f3400696e0000202e00002e2f00002e2e00009f
:103f44002f6c0000696200002f7300007263000090
:103f54002f70000069630000323400005f730000ba
:103f640065720000696100006c2e0000632000008f
:103f74006c6900006e6500002033000033340000db
:103f84003a200000496e0000766100006c69000070
:103f9400642000005541000052540000000000005d
:103fa40050c3000030750000204e000010270000b0
:103fb40088130000b80b0000d0070000e8030000dd
:103fc400f40100002c010000c8000000640000009f
:103fd400320000001e000000140000000a0000006f
:103fe40005000000030000000200000001000000c2
:103ff4000503000002010000321e0000140a000044
:104004000503000002010000050300000201000096
:10401400050300000201000045720000726f0000f9
:1040240072200000696e0000202e00002e2f000078
:104034002e2e00002f6c0000696200002f73000018
:10404400726300002f7000006963000032340000c6
:104054005f740000696d0000657200002e6300004b
:10406400206c0000696e00006520000035380000f7
:104074003a20000041530000534500005254000010
:10408400286600005f740000696300006b73000021
:10409400203c000020360000353500003335000098
:1040a4002e3500002920000066610000696c0000c4
:1040b400656400002e0a00000045000072720000d2
:1040c4006f720000206900006e2000002e2e000098
:1040d4002f2e00002e2f00006c690000622f0000bc
:1040e40073720000632f00007069000063320000e7
:1040f400345f0000746900006d650000722e0000da
:10410400632000006c6900006e6500002037000029
:10411400363a00002041000053530000455200008d
:1041240054280000665f000074690000636b00009f
:10413400732000003c2000003635000035330000b9
:10414400352e00003529000020660000616900005a
:104154006c650000642e00000a0000004572000037
:10416400726f000072200000696e0000202e0000b3
:104174002e2f00002e2e00002f6c0000696200001c
:104184002f730000726300002f7000006963000049
:10419400323400005f740000696d00006572000035
:1041a4002e630000206c0000696e00006520000092
:1041b40031360000303a0000204100005353000023
:1041c4004552000054280000753800005f54000078
:1041d400434b000050530000203c00003d200000f1
:1041e4003329000020660000616900006c6500004e
:1041f400642e00000a0000000a0a0000596f000043
:1042040075720000206300006c6f0000636b000097
:1042140020630000686f00006963000065200000ef
:1042240066610000696c0000656400002074000091
:104234006f200000696e000069740000696100006d
:104244006c6900007a6500002e20000053650000b0
:10425400652000002e2e00002f2e00002e2f0000bf
:104264006c690000622f000073720000632f00006d
:104274007069000063320000345f0000636c00006a
:104284006f6300006b66000072650000712e000011
:10429400632000006c6900006e650000203100009e
:1042a40034360000206600006f720000206d0000ac
:1042b4006f720000652000006465000074610000f6
:1042c400696c0000732e000000450000727200004b
:1042d4006f720000206900006e2000002e2e000086
:1042e4002f2e00002e2f00006c690000622f0000aa
:1042f40073720000632f00007069000063320000d5
:10430400345f0000636c00006f6300006b660000a4
:1043140072650000712e0000632000006c690000cb
:104324006e65000020310000373200003a200000a2
:10433400415300005345000052540000287500000a
:10434400385f0000736f0000757200006365000041
:10435400203c000020380000292000006661000095
:10436400696c0000656400002e0a00000000000073
:104374004932000043310000205300007461000002
:104384007274000000490000324300003120000034
:104394005253000074610000727400000049000070
:1043a4003243000031200000537400006f7000009d
:1043b4000049000032430000312000005075000025
:1043c40074000000493200004350000055540000be
:1043d400312c0000204e0000414b000020720000f0
:1043e40065740000757200006e650000642e0000a4
:1043f40000490000324300003120000047650000fe
:1044040074000000493200004332000020530000d1
:10441400746100007274000000490000324300001f
:1044240032200000525300007461000072740000d6
:1044340000490000324300003220000053740000a1
:104444006f70000000490000324300003220000079
:104454005075000074000000493200004350000011
:1044640055540000322c0000204e0000414b000047
:104474002072000065740000757200006e65000013
:10448400642e000000490000324300003220000086
:1044940047650000740000000a2e00002e2f000063
:1044a4006c630000645f00007465000073740000b6
:1044b4002e6300002c20000062750000696c00006f
:1044c400742000006f6e0000204100007072000034
:1044d4002032000036200000323000003137000066
:1044e4002061000074200000313700003a340000dd
:1044f400333a0000313900000a0000005374000010
:1045040061720000746900006e6700002e2e0000c6
:104514002e0000002020000020200000686500001c
:104524006c6c00006f200000776f0000726c00005c
:10453400642c000020200000202000000020000047
:10454400202000006269000074650000206d0000f6
:104554007920000073680000696e00007920000073
:104564002020000020000000202000002020000067
:1045740020200000206d000065740000616c0000c4
:104584002020000020200000202000002020000027
:104594000020000020200000202000002020000037
:1045a40061730000732e0000202000002020000012
:1045b40020200000202000002000000053500000b4
:1045c4004931000020520000656300006569000065
:1045d40076650000204f00007665000072660000da
:1045e4006c6f0000770a000000530000504900007f
:1045f4003220000052650000636500006976000007
:10460400652000004f76000065720000666c0000b3
:104614006f7700000a000000636f00006e760000f0
:10462400657200007441000044430000312800001a
:044634002900000059
:020000040000fa
:104638000400fa00100798001e0090008000eb00ac
:104648000001be00909e2e000100200008f907001e
:10465800000f78001e0fe900f01f20009e00780070
:10466800808f500002003600f01f2000000f7800f5
:104678009e0078002110880007e2a8000080fa0058
:10468800000006000200fa00a01b2a00b080880083
:10469800003a80004500de0061406000004f78006d
:1046a80040a7a8000602a800000000003010800003
:1046b800610060000000e000fcff3a009e407800c6
:1046c80061c060000080fb00610060004500dd0003
:1046d800013a80000150a10001007000003a8800f2
:1046e8001630ef000080fa00000006000200fa0011
:1046f800501c2a00b0808800003a80004500de0087
:1047080061406000004f780040a7a8000622a8007a
:104718000000000030108000620060000000e0002f
:10472800fcff3a009e40780061c060000080fb00fa
:10473800610060004500dd00013a80000150a100e1
:1047480001007000003a88001630ef000080fa007f
:10475800000006000200fa00101d2a00b080880040
:10476800003a80004500de0061406000004f78009c
:1047780040a7a8000642a8000000000030108000f2
:10478800640060000000e000fcff3a009e407800f2
:1047980061c060000080fb00610060004500dd0032
:1047a800013a80000150a10001007000003a880021
:1047b8001630ef000080fa00000006000400fa003e
:1047c80020479800b01d2a00b0808800003a800079
:1047d8004500de0061406000004f780040a7a80057
:1047e8002e4090000080fb001010880000000000a0
:1047f8004110800000002400008060000000e000fc
:10480800fbff3a009e40780061c060000080fb001a
:10481800610060004500dd00013a80000150a10000
:1048280001007000003a88001630ef004110800047
:1048380000002800008060000000e0000200320054
:10484800401e2a00860207000080fa0000000600c9
:104858000400fa0020479800b01d2a00b0808800a4
:10486800003a80004500de0061406000004f78009b
:1048780040a7a8002e4090000080fb001010880080
:10488800000000004110800000002400008060004b
:104898000000e000fbff3a009e40780061c0600025
:1048a8000080fb00610060004500dd00013a8000e7
:1048b8000150a10001007000003a88001630ef0096
:1048c800401080004f00de00004078000080fa00b1
:1048d800000006000400fa0020479800b01f2a00d4
:1048e800b0808800003a80004500de00614060002a
:1048f800004f780040a7a80000000000301080009a
:104908007f0060000000e000fcff3a000662a8009b
:104918000000000040108000620060000000e0001d
:10492800fcff32000060fe00001080001047980075
:1049380000000000301080007f0060000000e000f0
:10494800fcff3a002e409000614060000080fb00b0
:10495800610060004500dd00311080000150a100b9
:1049680001007000301088000682a80000000000d6
:1049780030108000700060000000e000fcff3a008a
:104988009e40780061c060000080fb00610060000c
:104998004500dd00013a80000150a10001007000cf
:1049a800003a88001630ef001e4090000080fa00a0
:1049b800000006000200fa00004f78001147980036
:1049c80030ff07001e4078000004a1007bff0700ad
:1049d8001e40900079ff07005eff07000080fa0084
:1049e800000006000400fa00004f78001147980004
:1049f8002247980023ff07001e4078000004a1000a
:104a08006eff07001e4090006cff07002e409000cc
:104a18006aff07004fff07000080fa000000060049
:104a28000800fa00204798002107980032079800ec
:104a380014ff07002e4090000004a1005fff07004c
:104a48000000eb00000f7800070037002e009000f0
:104a58001040780059ff07002e0090000000e80081
:104a6800200798001e0fe8003e0090009e00780086
:104a7800808f5000f5ff390036ff07000080fa00ec
:104a8800000006000400fa00004f780011079800a3
:104a9800fcfe07001e4078000004a00047ff070046
:104aa80010c0b3008bff07009e009000804878007c
:104ab80028ff07000080fa00000006000600fa0040
:104ac800004f78001107980022079800edfe0700b4
:104ad8001e4078000004a00038ff07000040eb00eb
:104ae8007cff07009e0090008048780010c0b3004b
:104af80078ff0700ae0090008048780015ff070097
:104b08000080fa00000006000800fa00204798001c
:104b18002107980032079800dafe07002e4090001f
:104b28000004a00025ff07000000eb00000f78003c
:104b3800110037003e0090000000e9009e0f500071
:104b4800050032000040eb0062ff0700ae00900055
:104b5800804878000400370010c0b3005dff0700ec
:104b6800ae009000804878002e0090000000e80019
:104b7800200798001e0fe8003e0090009e00780075
:104b8800808f5000ebff3900f2fe07000080fa002a
:104b9800000006000400fa00100798001e009000ac
:104ba8008000eb000001be00909e2e000100200056
:104bb800aff70700000f78001e0fe900f01f200074
:104bc8009e007800808f500002003600f01f200001
:104bd800000f78009e007800a110880017e2a80056
:104be8000080fa00000006000200fa0040202a00b7
:104bf800b0808800003a80004500de006140600017
:104c0800004f780040a7a8001602a8000000000086
:104c1800b0108000610060000000e000fcff3a0076
:104c28009e40780061c060000080fb006100600069
:104c38004500dd00013a80000150a100010070002c
:104c4800003a88001630ef000080fa0000000600e5
:104c58000200fa00f0202a00b0808800003a8000a4
:104c68004500de0061406000004f780040a7a800c2
:104c78001622a80000000000b0108000620060004a
:104c88000000e000fcff3a009e40780061c0600030
:104c98000080fb00610060004500dd00013a8000f3
:104ca8000150a10001007000003a88001630ef00a2
:104cb8000080fa00000006000200fa00b0212a0075
:104cc800b0808800003a80004500de006140600046
:104cd800004f780040a7a8001642a8000000000076
:104ce800b0108000640060000000e000fcff3a00a3
:104cf8009e40780061c060000080fb006100600099
:104d08004500dd00013a80000150a100010070005b
:104d1800003a88001630ef000080fa000000060014
:104d28000400fa002047980050222a00b08088002a
:104d3800003a80004500de0061406000004f7800c6
:104d480040a7a8002e4090000080fb00901088002b
:104d580000000000c11080000000240000806000f6
:104d68000000e000fbff3a009e40780061c0600050
:104d78000080fb00610060004500dd00013a800012
:104d88000150a10001007000003a88001630ef00c1
:104d9800c110800000002800008060000000e000d2
:104da80002003200e0222a002d0107000080fa00ec
:104db800000006000400fa002047980050222a004c
:104dc800b0808800003a80004500de006140600045
:104dd800004f780040a7a8002e4090000080fb00fc
:104de8009010880000000000c1108000000024001e
:104df800008060000000e000fbff3a009e40780061
:104e080061c060000080fb00610060004500dd00bb
:104e1800013a80000150a10001007000003a8800aa
:104e28001630ef00c01080004f00de000040780010
:104e38000080fa00000006000400fa0020479800ed
:104e480050242a00b0808800003a80004500de0027
:104e580061406000004f780040a7a80000000000f3
:104e6800b01080007f0060000000e000fcff3a0006
:104e78001662a80000000000c010800062006000f8
:104e88000000e000fcff32000060fe00801080009f
:104e98001047980000000000b01080007f006000fc
:104ea8000000e000fcff3a002e40900061406000e6
:104eb8000080fb00610060004500dd00b11080004b
:104ec8000150a10001007000b01088001682a800ef
:104ed80000000000b0108000700060000000e000da
:104ee800fcff3a009e40780061c060000080fb0033
:104ef800610060004500dd00013a80000150a1001a
:104f080001007000003a88001630ef001e40900043
:104f18000080fa00000006000200fa00004f780046
:104f28001147980030ff07001e4078000004a100d8
:104f38007bff07001e40900079ff07005eff070017
:104f48000080fa00000006000400fa00004f780014
:104f5800114798002247980023ff07001e40780059
:104f68000004a1006eff07001e4090006cff0700c0
:104f78002e4090006aff07004fff07000080fa00ec
:104f8800000006000800fa00204798002107980052
:104f98003207980014ff07002e4090000004a1007b
:104fa8005fff07000000eb00000f780007003700e4
:104fb8002e0090001040780059ff07002e00900046
:104fc8000000e800200798001e0fe8003e0090004f
:104fd8009e007800808f5000f5ff390036ff0700eb
:104fe8000080fa00000006000400fa00004f780074
:104ff80011079800fcfe07001e4078000004a0007e
:1050080047ff070010c0b3008bff07009e00900009
:105018008048780028ff07000080fa00000006009a
:105028000600fa00004f7800110798002207980040
:10503800edfe07001e4078000004a00038ff0700be
:105048000040eb007cff07009e009000804878003d
:1050580010c0b30078ff0700ae00900080487800c9
:1050680015ff07000080fa00000006000800fa009b
:10507800204798002107980032079800dafe0700b9
:105088002e4090000004a00025ff07000000eb0060
:10509800000f7800110037003e0090000000e90082
:1050a8009e0f5000050032000040eb0062ff070031
:1050b800ae009000804878000400370010c0b300ac
:1050c8005dff0700ae009000804878002e00900039
:1050d8000000e800200798001e0fe8003e0090003e
:1050e8009e007800808f5000ebff3900f2fe070029
:1050f8000080fa00000006000000fa0072070700ae
:105108000080fa00000006000400fa00004f780052
:10511800110798001e4078000004e00002003a00e1
:105128001e0090004e0007000080fa0000000600f4
:105138000000fa0011eea90017eea9001beea90065
:105148001deea90017eea800a03122009100200052
:1051580020808800318088000030ef000230ef00a6
:1051680015eea900020007000080fa000000060002
:105178000000fa000080800011808000610040007b
:10518800e08048000080880011808800028080004c
:10519800138080002080800031808000800f5100c3
:1051a800818f590003003600040007000030ef002b
:1051b8000230ef000080fa00000006000000fa004c
:1051c800a07080000080ea004f00de0000407800f8
:1051d8000080fb004f00dd00a2708000f1ff270077
:1051e8008100610001007000a07088000080fa0052
:1051f800000006003600f800809fbe00829fbe00b7
:10520800849fbe00869fbe003200f8003400f8007c
:1052180010002000a00188000020200090018800d4
:10522800000000000000fa008001210041468000d3
:1052380001087800a0892900090007000080fa0009
:105248003400f9003200f9004f03be004f02be00df
:105258004f01be004f00be003600f90000400600b6
:105268000200fa00000f7800a08080000000e00033
:1052780003003a009e007800a18088000000fe002c
:105288000080fa00000006000600fa0010079800e7
:10529800210798009e009000010f78001e009000e2
:1052a800ae0090004008de0000007800a0028800f0
:1052b8001e0078001080ba008000eb00c001dd00fd
:1052c800020020001e0078001000ba008000eb00e9
:1052d80000007100818071000080fa000000060063
:1052e8000e00fa0000002000f10f2000e6ff070082
:1052f800300798004107980020002000f10f200097
:10530800e1ff0700500798006107980010c0b3003c
:10531800004f7800008b290010079800008b2900a7
:10532800200798003e019000ce019000d0e42100b3
:1053380001002000800f5100818f590003003a00be
:10534800808b290010079800020037000040eb000e
:10535800004f78005e019000ee01900030002400bc
:1053680001002000800f5100818f590003003a008e
:10537800a08c29002007980000000000d08c29008c
:10538800960307003e009000ce0090001804070026
:10539800a08d2900910307001e0090008f030700cd
:1053a800d08d29008d0307005e009000ee0090006c
:1053b8000f040700a08d2900880307002e00900025
:1053c80086030700a08e2900840307001e4078008a
:1053d8000004e00002003a00d08e29007f03070095
:1053e8000080fa00000006000000fa00103a800071
:1053f8004c00de00674060000080fb00e30f5000b7
:105408001b003200e30f500007003c00e10f500082
:1054180011003200e10f500012003c000000e000d3
:105428000a00320021003700e50f50001600320054
:10543800e50f500011003500e60f5000150032004e
:10544800e70f5000160032001800370040b8290056
:10545800620307001800370010b929005f0307002e
:105468001500370070ba29005c03070012003700e6
:1054780010bc2900590307000f00370040be29005f
:10548800560307000c00370030bf290053030700fc
:105498000900370050c029005003070006003700f4
:1054a80050c129004d0307000300370040c22900fe
:1054b8006bff0700000000000080fa0000000600f3
:1054c8000200fa000040eb00004f7800003a80002c
:1054d800680060000000e00003003200d0c329002b
:1054e8003e0307004067a900003a8000640060009e
:1054f8000000e00003003200d0c529003703070090
:105508004047a900c0c7290034030700003a8000bb
:10551800610060000000e0000c00320010c0b30021
:10552800004f7800b0c829002c0307004007a900e5
:105538004027a9001430ef001630ef008001210049
:105548008000eb00010878004d003700013a800028
:1055580000042000008060000000e0000600320027
:1055680060c929001d03070010c0b300004f780070
:1055780040c7a90040e7a900003a80007000600019
:105588000000e0000d00320010c0b300004f7800aa
:1055980070ca290011030700b08080000000e000f5
:1055a80002003200b08080000c030700a0cb290065
:1055b8000a0307004087a90040e7a900013a8000d4
:1055c80000082000008060000000e00005003200b4
:1055d80010c0b300004f7800c0cb2900ff020700bd
:1055e80040e7a900003a8000620060000000e00087
:1055f8000500320010c0b300004f7800d0cc29005d
:10560800f60207004027a900013a800000002800a0
:10561800008060000000e0000500320010c0b30008
:10562800004f780090cd2900ec02070041e7a9005f
:10563800013a800000002400008060000000e000c3
:105648000500320010c0b300004f780090ce29004a
:10565800e202070041c7a900013a800000202000ab
:10566800008060000000e0000500320010c0b300b8
:10567800004f7800d0cf2900d80207004127a900a1
:105688001e4078000004e00002003a0060d12900c2
:10569800d2020700a08080000000e000180032005d
:1056a80060d22900cd020700a0808000cb0207004d
:1056b80080012100100078000000e0000a0032009c
:1056c80060d32900c5020700c08080004800de00c2
:1056d8006f4060002f03070010d42900bf020700a5
:1056e80018d0bf002b03070030d52900bb020700e4
:1056f8001430ef00800121008000eb0001087800e1
:10570800f7fe070038ff07000080fa0000000600d7
:105718000200fa00000f780085fe070076fe0700f9
:1057280000402800310020000704070064ff07003c
:105738001e007800a90207000080fa000000060099
:105748000800fa00881f78002007980031079800a1
:105758002e009000be009000d6f40700008fbe0017
:105768001e00be00eef407000001be002e009000ef
:10577800be0090001ef4070018c0b300020020000d
:1057880003f02300c9f407000000e0000100350021
:105798000044eb000804e000020032001e00be00d6
:1057a8000400370012002000030020003e004100e2
:1057b800ae8049004f0478000080fa00000006001f
:1057c8000600fa00881f7800100798002107980043
:1057d8001e009000ae009000b6f40700000f78009d
:1057e8001e0078008000eb00cdf407000001be0029
:1057f8001e009000ae009000fdf3070018c0b30033
:105808000200200003f02300a8f407000000e000d5
:10581800010035000044eb000804e00002003200fb
:105828001e007800010037001e00e8004f047800d1
:105838000080fa00000006000e00fa00889fbe00f3
:1058480020079800310798004207980054079800ed
:105858006507980010c0b300ce009000e18f50009b
:10586800010036000040eb0061d5290026fe070044
:105878004e0090000000e00012003a002e00900058
:10588800be009000a6f407000004be005e00900071
:10589800ee009000a2f407000001be000800be0060
:1058a80031f4070002002000031824002ef407003a
:1058b8000200200003f82300cdf30700008fbe008c
:1058c800110037002e009000be00900094f40700ed
:1058d8000004be005e009000ee00900090f4070007
:1058e8000001be000800be001ff4070002002000ef
:1058f800030824001cf407000200200003f823001a
:10590800bbf30700008fbe0018c0b30002f82f00d9
:10591800f37724001e00be0064f407000000e000d6
:10592800010035000044eb0031da29000840780016
:10593800f5fd07001e00be00a1ff07004f04be00d2
:105948000080fa00000006000400fa00008fbe0084
:105958001e00be00270807001e00be00c409de00a6
:105968004c0add004401de00020172000080800064
:105978001180800002004000838048000080880079
:10598800118088000080fa00000006000400fa0078
:10599800004f780011479800224798001e41780070
:1059a80081002100824878001e419000d10021002a
:1059b800824878002e419000e1002100824878005a
:1059c8000f70ef00020007000080fa0000000600d8
:1059d8000000fa000970ef00e10021009140780012
:1059e8000dd0bf000c0007000080fa000000060080
:1059f8000000fa0023fb070008d0bf0094fb070053
:105a08000080fa00000006000000fa0051fb0700c1
:105a18000080fa00000006000400fa002047980001
:105a2800314798000040eb00004f78001e41780095
:105a3800be4090002e409000020007000080fa004f
:105a4800000006000400fa00004f78001147980093
:105a5800224798001e409000e14f50000300360096
:105a680009d0bf000034a00009f0b7001e41900023
:105a7800c1002100824878002e4090000004e00018
:105a8800060032001e409000e14f500003003a002b
:105a980009d0bf000024a00009f0b7000fd0bf0054
:105aa80016010700d018290041002000a6ff0700b2
:105ab80030c0b30009010700d018290041002000b8
:105ac800a1ff070030c0b30004010700d018290067
:105ad800410020009cff070030c0b300ff00070012
:105ae800d01829004100200097ff070020c0b3000c
:105af800fa000700d01829004100200092ff070093
:105b080009d0bf000054a000d2000700d018290017
:105b1800410020008cff070040c0b3000af0b70026
:105b28004a000700d01829004100200086ff07001e
:105b38000e000700d01829004100200082ff07004e
:105b480020c0b3000bf0b7000bd0bf000024a000aa
:105b5800c0000700d0182900410020007aff070084
:105b68000a0007000080fa00000006000000fa00a2
:105b780010c0b300b700070000cf2c0011002000b0
:105b880071ff07000080fa00000006000000fa001c
:105b980020c0b300af00070000cf2c001100200088
:105ba80069ff07000080fa00000006000a00fa00fa
:105bb800004f9800114f98000000eb00000f78008c
:105bc80000042000100798004001200020079800da
:105bd80040052000300798000cd0bf009e48900078
:105be80080cf5000030036000cd0bf000040e90011
:105bf800104f98001e4890000080fb0000004000f5
:105c08006e007800804078000e48900000c0400088
:105c18008040780000c8b30000c070008d00070005
:105c28000080fa00000006000000fa000ad0bf0059
:105c38000024a1000af0b7000ad0bf000034a00079
:105c4800840007000080fa00000006000000fa0047
:105c58000ad0bf000024a0000af0b7000ad0bf0095
:105c68000034a0007b0007000080fa000000060056
:105c78000000fa000ad0bf000014a1000af0b70023
:105c88000ad0bf000034a000720007000080fa00ac
:105c9800000006000000fa000ad0bf000014a000af
:105ca8000af0b7000ad0bf000034a000690007005e
:105cb8000080fa00000006000000fa000ad0bf00c9
:105cc8000004a1000af0b7000ad0bf000034a00009
:105cd800600007000080fa00000006000000fa00db
:105ce8000ad0bf000004a0000af0b7000ad0bf0025
:105cf8000034a000570007000080fa0000000600ea
:105d08000000fa0080c1b300520007000080fa00ca
:105d1800000006000000fa00c0c1b3004d000700f3
:105d28000080fa00000006000000fa000bd0bf0057
:105d38000014a0000bf0b7000bd0bf000024a00097
:105d4800440007000080fa00000006000000fa0086
:105d58000bd0bf000014a1000bf0b7000bd0bf00a0
:105d68000024a0003b0007000080fa0000000600a5
:105d78000000fa000bd0bf000004a0000bf0b70031
:105d88000bd0bf000024a000320007000080fa00fa
:105d9800000006000000fa000bd0bf000004a100bc
:105da8000bf0b7000bd0bf000024a00029000700ab
:105db8000080fa00000006000600fa00204798005c
:105dc800210798002e409000674060002047980007
:105dd8002e4090000080fb004300dd00004078006a
:105de8000064a0001b0007000000eb00000f780013
:105df800060037001e007800ae00900000804000ca
:105e0800104078001a0007001e0fe8001e007800f6
:105e1800e70f5000f7ff34000080fa00000006008a
:105e28000000fa000f70ef000040eb00330007009d
:105e38000080fa00000006000000fa0080c0b300ed
:105e48000ff0b7000040eb002c0007000080fa00bc
:105e5800000006000200fa00004f78008040eb00c6
:105e68001e4078000a0007000080fa0000000600c3
:105e78000200fa00004f780011c0b3001e407800fd
:105e880003000700100020000080fa000000060050
:105e98000400fa002047980031479800ae4090006f
:105ea80000cfb30000cf60002e4090000080fb00c0
:105eb8004400dd00104798003e4090001e407000ee
:105ec800060007009e4090003e40900000c0700011
:105ed800020007000080fa00000006000200fa0035
:105ee800004f78001e407800040007001e4078002c
:105ef800110007000080fa00000006000600fa0002
:105f0800404798000fd0bf00ce40900000cf7000ef
:105f1800dcf9070008d0bf004dfa070010479800c9
:105f28001e4078004afa07002047980009fa07003f
:105f38000080fa00000006000200fa00004f780016
:105f48001e4078000024a000ecff0700b0032000ea
:105f5800010020007cfe07001e4078000024a100fc
:105f6800e6ff070060b820000100200076fe070069
:105f78000080fa00000006000000fa0045ff070054
:105f88000080fa00000006000000fa0038ff070051
:105f98000080fa00000006000000fa004fff07002a
:105fa8000080fa00000006000000fa0042ff070027
:105fb8000080fa00000006000400fa00004f780094
:105fc800110798009e0090001e4078007aff070095
:105fd8000080fa00000006000200fa00004f780076
:105fe8001e4078000004e0000200320092ff070023
:105ff800010037008aff07000080fa000000060051
:106008000200fa00000f78001e0078000200070066
:106018000080fa00000006000200fa00000f780075
:106028001e0078000000e00002003a000000eb00cb
:10603800050037001e007800b4f3070080007800e0
:106048001e0078000a0007000080fa000000060021
:106058000400fa00000f7800110798001e0078006d
:106068009e009000020007000080fa000000060071
:106078000600fa0010079800210798000000eb00be
:10608800000f7800090037001e00900010407800cb
:106098009e0090008100e8001107980074ff070037
:1060a8000000e0000d0032001e0fe8002e009000f6
:1060b80000f0a7000000ea000000ea004f00de0040
:1060c80000407800ae0090008100e90021079800a8
:1060d8000004e000ecff3a00010037000000000077
:1060e8001e0078000080fa00000006000000fa0098
:1060f8000080fa00000006000000fa000080fa00a4
:10610800000006000400fa00000f7800110798004c
:106118000080fa00000006000000fa000040eb00d2
:106128000080fa00000006000000fa000040eb00c2
:106138000080fa00000006000200fa00004f780014
:106148000040eb000080fa00000006000400fa009e
:10615800004f78001147980022479800334798006d
:106168000080fa00000006000400fa00004f7800e2
:106178001147980022479800334798000080fa009a
:10618800000006000200fa00004f78000080fa00c4
:10619800000006000200fa00004f780030828000fc
:1061a800e10f500003003200e20f500004003200fb
:1061b800060037001e407800c403070005003700ba
:1061c8001e407800350407000200370080f12900de
:1061d80023fc07000080fa00000006000200fa0015
:1061e800000f7800040037001e0078001040780087
:1061f800e8ff07001e0fe8001e0078001040780036
:106208000004e000f8ff3a000080fa0000000600f1
:106218000a00fa002007980031079800024f9800fa
:106228003e0090000000e00002003a000000eb0091
:10623800240037000000eb00100798000000eb0076
:1062480010079800170037000e4890000004e0007f
:106258000300320024010700004f780002003700d5
:1062680011010700004f78001e407800ea4f5000e7
:10627800100032001e407800ed4f50000d00320033
:106288009e4078002e009000014878002e00900073
:106298000000e800200798001e0090000000e800b9
:1062a800100798009e0090003e009000808f5000dc
:1062b800e5ff39002e0090008040eb00014878008f
:1062c8001e0090000080fa00000006000400fa009a
:1062d800000f7800110798001e0090000041eb00a5
:1062e800800078001e007800c9ff07000080fa00cf
:1062f800000006000400fa00000f7800110798005b
:106308001e00900012c0b300800078001e007800c4
:10631800bfff07000080fa00000006000400fa0032
:10632800204798002e4090000080fb004400de00cb
:10633800004f78001e407800e94f500004003600f6
:1063480071c3b3001ec0400092ff0700030037006e
:1063580001c3b3001ec040008eff07002e4090000e
:106368006f4f60001e407800e94f5000040036006f
:1063780071c3b3001ec0400086ff0700030037004a
:1063880001c3b3001ec0400082ff07000080fa006e
:10639800000006000200fa00004f780040f52900ce
:1063a8008eff07001e407800dcff07000080fa001f
:1063b800000006000400fa001007980040f52900c4
:1063c80086ff07001e0090004800de00004f78009e
:1063d8001e407800d1ff07001e009000004f780093
:1063e8001e407800cdff07000080fa00000006007c
:1063f8000600fa00100798002107980040f52900c8
:1064080076ff07001e009000ae0090004808de00ee
:10641800004f78001e407800c0ff07001e00900063
:10642800ae0090004008de00004f78001e40780063
:10643800baff07001e009000ae0090004809dd007a
:106448004800de0000007100c808de00004f780038
:106458001e407800b1ff07001e009000004f780032
:106468001e407800adff07000080fa00000006001b
:106478000a00fa00004f98000040eb00004f780037
:106488008e4890001147980000c3b3002047980039
:1064980000c3b3003047980000c3b30040479800da
:1064a8000040eb00504798009e40900070ccb3002d
:1064b80080cf5000060036002e40900000c0e80053
:1064c800204798001e4090008043b0001047980075
:1064d8009e40900030c6b30080cf500007003600c1
:1064e8002e4090000040e800204798009e40900011
:1064f800c0c9b30000c04000104798000040eb003e
:10650800004f7800210037001e80fb00e1ff2900c2
:1065180000804000904078001e40900080cf5000de
:1065280019003e001e80fb004200de00004078009b
:106538008080fb000101e8000080fb000000e8000b
:106548000080e8006e407800804078001e80fb00e4
:1065580063002a00008041001040780000c040001d
:10656800804078000280e800017778001e80fb00f8
:10657800e1ff290000804000104078009e40900014
:1065880000c05000104798001e4fe8001e407800d9
:10659800e74f5000dcff36000040eb005047980002
:1065a8000e80e8000dff07000080fa0000000600da
:1065b8000c00fa00500798000040eb00004f7800ec
:1065c800de0090001107980000c3b3004047980010
:1065d80000c3b3005047980000c3b3006047980059
:1065e80000c3b3007047980000c3b300004f980081
:1065f8000040eb00004f7800220037001e80fb00af
:106608008000400020fd29000080400090007800b4
:106618001e009000808f500019003e001e80fb0075
:106628004200de00004078000081fb000080fb0093
:10663800640040006e407800804078001e80fb00b7
:1066480063006000a3ff290000804100104078002b
:1066580000c0400080407800640041000177780065
:106668001e80fb008000400020fd290000804000c3
:10667800100078009e0090000080500010079800dd
:106688001e4fe8001e407800f34f5000dbff360035
:106698000040eb00104f980064004700cffe070051
:1066a8000080fa00000006000000fa003082800036
:1066b800e10f500003003200e20f500003003200e7
:1066c800040037009402070005003700060307009e
:1066d8000300370070f52900e1fa07000040eb00dd
:1066e8000080fa00000006000200fa00eeff070032
:1066f800004f78001e407800a6fe07001e40780074
:106708000080fa00000006000000fa0030828000d5
:10671800e10f500003003200e20f50000300320086
:10672800040037007602070005003700e80207007a
:106738000300370040f92900c9fa07000040eb00c0
:106748000080fa00000006000400fa00008fbe0076
:1067580010002000308288001e00be007a02070068
:106768000080fa00000006000400fa00004f7800dc
:10677800110798001e4078000004e00002003a006b
:106788001e009000b6fa07000080fa00000006001c
:106798000a00fa00889fbe00300798004107980059
:1067a80080dc260041c62400008fbe003e00900019
:1067b8008000eb00daf007001e01be002df1070093
:1067c8000004be004e0090008000eb00d4f00700eb
:1067d8000001be000800be0063f0070002002000b0
:1067e800a347240060f00700008fbe0018c0b30064
:1067f80002f82f00f37724001e00be00abf007005c
:106808000000e000010035000044eb00e1002a0030
:1068180008407800d4ff07001e00be00e8fb070010
:10682800200798002e0090004f04be000080fa0058
:10683800000006000a00fa00889fbe003007980092
:106848004107980080dc260041c62400008fbe0066
:106858003e0090008000eb00b1f007001e01be0072
:1068680004f107000004be004e0090008000eb0019
:10687800abf007000001be000800be003af00700b8
:10688800024022004397240037f00700008fbe0023
:1068980018c0b30002f82f00f37724001e00be00d2
:1068a80082f007000000e000010035000044eb0022
:1068b800f1052a0008407800abff07001e00be0063
:1068c800bffb0700200798002e0090004f04be0071
:1068d8000080fa00000006000e00fa00889fbe0043
:1068e80040079800510798006207980080dc26004e
:1068f80041c62400008fbe004e009000de009000cc
:1069080087f007001e01be00daf007000004be0091
:106918006e0090008000eb0081f007000001be00cf
:106928000800be0010f00700024022004397240030
:106938000df00700008fbe001e00be0080fb0700a0
:1069480020079800310798002e009000be009000a4
:106958004f04be000080fa00000006000e00fa0096
:106968004007980051079800620798004e00900071
:10697800de0090006af00700008fbe006e009000f5
:106988008000eb0066f007001e01be00b9f00700aa
:1069980082dc260043c62400f3ef07000200200033
:1069a800a3472400b3f00700008fbe001e00be00fe
:1069b80063fb070020079800310798002e0090001d
:1069c800be0090000080fa00000006000e00fa00e9
:1069d8004007980051079800620798004e00900001
:1069e800de0090004ef00700008fbe006e009000a1
:1069f8008000eb004af007001e01be009df0070072
:106a080082dc260043c62400d7ef0700024022009c
:106a18004397240097f00700008fbe001e00be00b9
:106a280047fb070020079800310798002e009000c8
:106a3800be0090000080fa00000006000e00fa0078
:106a48004007980051079800620798004e00900090
:106a5800de00900032f00700008fbe006e0090004c
:106a68008000eb002ef007001e01be0081f0070039
:106a780082dc260043c62400bbef070082b2260052
:106a8800e3e624007bf00700008fbe001e00be0076
:106a98002bfb070020079800310798002e00900074
:106aa800be0090000080fa00000006000a00fa000c
:106ab800004f980010002000000f78008000200090
:106ac80010079800000420002007980000102000fc
:106ad8003007980010c0b3008e489000e3cf5000f4
:106ae800010036000040eb00010b2a001eff0700e2
:106af8000e4890000080fb00000040006e00780007
:106b08000080fa00000006000c00fa002007980038
:106b18003107980042079800530798005e009000dc
:106b28000000e00006003a00be0090002e00900031
:106b3800008050008000eb00008fbe001b00370073
:106b4800ce0090002e009000008050000000e80069
:106b58008000eb00008fbe005e0090008000eb001c
:106b680061015000e08158004e0090008000eb0069
:106b780061004000e0804800809ab900828bb9002b
:106b880086027800050242000010b80001024200a7
:106b9800840078001e0f40005e9748003e00900079
:106ba8008000eb001e0f40005e9748001e00be00ec
:106bb8000080fa00000006000800fa00100798009c
:106bc8002107980032079800ae0090001e00900040
:106bd800808f500004003900ae0090001e00900025
:106be800008f500006003700be0090001e00900085
:106bf80000805000000fe8002e0090001e0f40009b
:106c08001e0078000080fa00000006000400fa0068
:106c1800004f7800110798001e4078000004e0003b
:106c280002003a001e0090008df907000080fa006b
:106c3800000006000000fa00a3000700004028003a
:106c480031002000c0fe0700044028003500200065
:106c58000001eb000070280031392000f6fa070027
:106c6800401188002062a9000080fa000000060098
:106c78000000fa0082808000938080000080eb0092
:106c88008080eb00800f5100818f59001200320084
:106c9800808080009180800061004000e080480092
:106ca80080808800918088008280800093808000a6
:106cb800f0d3200031002000800f5100818f59004f
:106cc80007003600dbff0700e00f2a0043fd07003e
:106cd80027f90700feff3700000000000100370019
:106ce800000000000080fa00000006000400fa001e
:106cf8002047980010c0b300ae409000e7cf500086
:106d0800010036000040eb0071162a00bfff0700a3
:106d1800ff3ffc00113a8000010f78002e409000e0
:106d2800674060000080fb00670060004800dd00ed
:106d38001e017800f18f2f008100610001007000b2
:106d4800000f78001e0078000000a000000f7800f7
:106d58000e00e800104078000081fb00800720004a
:106d6800a109200033742000804978008149780007
:106d7800824978000e007800104078000081fb00fe
:106d880060042000710520002374200080497800e9
:106d980081497800824978000000fc001030ef003b
:106da8001230ef0001003700b1ff0700103a8000f1
:106db800610060000000e000fbff3a002e409000f8
:106dc800e14f5000060032002e409000e34f500083
:106dd8000c003a0003003700a5ff07000100370048
:106de80000000000113a80000002200000806000ce
:106df8000000e000f8ff3200030037009cff0700a6
:106e08000100370000000000103a80004c00de004e
:106e1800674060008080fb002e4090000080fb00ef
:106e2800808f5000f5ff3a000080fa00000006004d
:106e38000000fa000080fa00000006000000fa00d6
:106e48000040eb00a9ff0700413a800000fc2f003a
:106e580000806000403a88000080fa0000000600c8
:106e68000000fa000040eb00a0ff0700413a800054
:106e780000fc2f0000806000403a8800213a800022
:106e880000fe2f00008060007000b300203a8800e8
:106e9800313a800000e02f0080806000100c200054
:106ea80001007000303a8800213a8000f0f32f008a
:106eb80000806000203a880010c0b3008bff0700f4
:106ec8000080fa00000006000000fa000040eb0015
:106ed80086ff0700413a800000fc2f000080600018
:106ee800403a8800213a800000fe2f0000806000b0
:106ef800203a8800313a800000e02f00808060004e
:106f0800f003200001007000303a8800213a800028
:106f1800f0f32f0000806000203a880010c0b30012
:106f280072ff07000080fa00000006000000fa0067
:106f38000040eb006dff0700413a800000fc2f0085
:106f480000806000403a8800213a800000fe2f004f
:106f580000806000203a8800313a800000e02f006d
:106f680080806000a004200001007000303a880092
:106f7800213a8000f0f32f0000806000203a88005a
:106f880010c0b30059ff07000080fa000000060097
:106f98000000fa000040eb0054ff0700213a80008f
:106fa80000fe2f0000806000203a8800313a8000ff
:106fb80000e02f0080806000600220000100700067
:106fc800303a8800213a8000f0f32f0000806000fa
:106fd800203a880030c0b30044ff07000080fa0060
:106fe800000006000000fa0020c0b3003fff0700c1
:106ff8000080fa00000006000400fa00004f780044
:10700800110798001e4078000004e00002003a00d2
:107018001e00900092f807000080fa0000000600a9
:107028000400fa00008fbe001e00be0071020700b7
:107038001e00be00c409de004c0add004401de006b
:107048000201720000808000118080000200400070
:107058008380480000808800118088000080fa0042
:10706800000006000200fa001011800068006000ad
:107078000000e0000400320030118000004f78006a
:1070880020df290076f807001011800064006000f6
:107098000000e0000400320030118000004f78004a
:1070a80060e029006ef8070010118000620060009f
:1070b8000000e000030032002222a900b0e129000c
:1070c80067f807000080fa00000006000200fa00d6
:1070d800004f78000100370025f8070011118000e3
:1070e80000202000008060000000e000faff3a0065
:1070f8001e80fb00201188000080fa0000000600b6
:107108000000fa0010118000004078006140600023
:107118000080fa00000006000000fa0001003700b5
:1071280013f8070010118000610060000000e00003
:10713800fbff3200cbff07003011800000407800d1
:107148000080fa00000006000400fa00008fbe006c
:10715800114ea800174ea9001b4ea9001d4ea900ec
:107168002136800000f82f0080806000a0022000f7
:107178000100700020368800116ea900176ea90062
:107188001b6ea9001d6ea90041348000f00f2c0071
:10719800008060000080a000403488002022ef00ba
:1071a8001e02be000001eb0020722b0011392000e6
:1071b800a1f907004011880000002800001188008c
:1071c800004021001011880014c0b300703e200058
:1071d800010020001e01be00800f5100818f590060
:1071e80001003e000042eb0001e329000440780062
:1071f80081ff0700909e2e000100200088ff0700f5
:107208002222a900010037003011800010118000ef
:10721800680060000000e000fbff3a0010118000e9
:10722800640060000000e000f7ff3a000080fa0008
:10723800000006000200fa0090118000680060005b
:107248000000e00004003200b0118000004f780018
:1072580050e8290002f807009011800064006000df
:107268000000e00004003200b0118000004f7800f8
:1072780090e92900faf70700901180006200600089
:107288000000e000030032003222a900e0ea2900f1
:10729800f3f707000080fa00000006000200fa0079
:1072a800004f780001003700b1f707009111800006
:1072b80000202000008060000000e000faff3a0093
:1072c8001e80fb00a01188000080fa000000060064
:1072d8000000fa00901180000040780061406000d2
:1072e8000080fa00000006000000fa0001003700e4
:1072f8009ff7070090118000610060000000e00027
:10730800fbff3200cbff0700b0118000004078007f
:107318000080fa00000006000400fa00008fbe009a
:107328003022ef001e02be000001eb0020722b008d
:107338001139200040f90700c0118800000028001a
:1073480080118800004021009011880014c0b3000b
:10735800703e2000010020001e01be00800f510079
:10736800818f590001003e000042eb0031ec2900fa
:107378000440780020ff0700909e2e0001002000a6
:1073880027ff07003222a90001003700b011800052
:1073980090118000680060000000e000fbff3a00e8
:1073a80090118000640060000000e000f7ff3a00e0
:1073b8000080fa00000006000000fa000100370013
:1073c8006bf7070000198000610060000000e00012
:1073d800fbff32000080fa00000006000200fa00fd
:1073e800e0302a00b0808800003a80004500de00c6
:1073f80061406000004f780040a7a8002023a80043
:1074080000000000ecff07009e40780061c06000ab
:107418000080fb00610060004500dd00013a80004b
:107428000150a10001007000003a88001630ef00fa
:10743800001880000080fa00000006000400fa002e
:10744800000f780021479800324798002e4090009e
:10745800ff4f500002003600f0c1b30020479800eb
:1074680021e3a900000e2000001988003e4090008a
:107478000004e000020032002143a80001003700a8
:107488002143a9002e4090000080fb004800dd0049
:107498008000780000002800010070002019880092
:1074a80000002800101988009e0078004119880003
:1074b80021e3a8000080fa00000006000800fa0096
:1074c8002007980061479800724798000040eb0039
:1074d8001047980010002000100798000040eb00ab
:1074e800004f78000c003700ae0090001e0090009e
:1074f800008060000000e000030032001e409000a1
:107508000040e800104798001e009000000040006e
:10751800100798001e4fe8001e407800ef4f5000fb
:10752800f1ff36006e409000ff4f50000200360019
:10753800f0c1b3006047980021e3a900400e200085
:10754800001988007e4090000004e000020032002c
:107558002143a800010037002143a9006e40900094
:107568000080fb004800dd00800078000000280053
:1075780001007000201988001e4090000080fb0068
:107588000000e9004200dd0080007800004028008b
:1075980001007000101988002823ef00ae00900049
:1075a8008119880031428000000720000100700026
:1075b8003042880001a8a90021a8a80021e3a8005a
:1075c8000080fa00000006000800fa002007980072
:1075d80061479800724798000040eb0010479800f8
:1075e80010002000100798000040eb00004f7800c2
:1075f8000c003700ae0090001e0090000080600074
:107608000000e000030032001e4090000040e80047
:10761800104798001e0090000000400010079800d6
:107628001e4fe8001e407800ef4f5000f1ff360073
:107638006e409000ff4f500002003600f0c1b300ca
:107648006047980021e3a900400e20000019880037
:107658007e4090000004e000020032002143a800b0
:10766800010037002143a9006e4090000080fb0014
:107678004800dd008000780000002800010070004c
:10768800201988001e4090000080fb000000e900df
:107698004200dd00800078002040280001007000d2
:1076a800101988002823ef00ae0090008119880087
:1076b800314280000007200001007000304288003d
:1076c80001a8a90021a8a80021e3a8000080fa00c9
:1076d800000006000600fa00004f78001107980025
:1076e8002207980021e3a9008004200000198800df
:1076f800ae009000f00f2000008060002019880084
:1077080020302800101988001e80fb007f006000d0
:10771800401988009e009000311988003023ef003e
:1077280031428000000720000100700030428800cc
:1077380001a8a90021a8a80021e3a8000080fa0058
:10774800000006000000fa0001128000000420007a
:10775800008060000000e0000300320040c2a90081
:10776800002e2a00bef607000080fa00000006007e
:107778000200fa00000f7800f2ff070020128000d4
:10778800610060000000e0000b003a000148a90019
:107798009e007800411288000100370074f6070047
:1077a8000140800000402000008060000000e000f0
:1077b800faff3200090037009e0078004112880065
:1077c800010037006af6070001128000000220005d
:1077d800008060000000e000faff3a0040128000dc
:1077e8000080fa00000006000000fa000113800083
:1077f80000042000008060000000e0000300320068
:1078080060c2a900702f2a0095f607000080fa00d0
:10781800000006000200fa00000f7800f2ff0700df
:1078280020138000610060000000e0000a003a00b8
:107838000428a9009e007800411388000100370041
:107848004bf6070020408000620060000000e00066
:10785800fbff3200090037009e00780041138800c2
:107868000100370042f607000113800000022000e3
:10787800008060000000e000faff3a00401380003a
:107888000080fa00000006000400fa00008fbe0025
:107898001e00be00570007001e00be00c409de001f
:1078a8004c0add004401de00020172000080800005
:1078b800118080000200400083804800008088001a
:1078c800118088000080fa00000006000000fa001d
:1078d800e0242a008ef707004006200054f3070032
:1078e80000282a007fed070080622b001139200054
:1078f800e5ff070042c0b30041c1b300e0c4b300d4
:1079080022f807004cf9070022f9070018f60700cb
:107918008040eb000040eb00a4f80700c0282a00d4
:10792800bdf9070011c0b3000040eb009ff8070045
