:020000040000fa
:080000000013040000000000e1
:020000040000fa
:1000080002100000061000000a1000000e10000088
:1000180012100000161000001a1000001e10000038
:1000280022100000261000002a1000002e100000e8
:1000380032100000361000003a1000003e10000098
:1000480042100000461000004a1000004e10000048
:1000580052100000561000005a1000005e100000f8
:1000680062100000661000006a1000006e100000a8
:1000780072100000761000007a1000007e10000058
:1000880082100000861000008a1000008e10000008
:1000980092100000961000009a1000009e100000b8
:1000a800a2100000a6100000aa100000ae10000068
:1000b800b2100000b6100000ba100000be10000018
:1000c800c2100000c6100000ca100000ce100000c8
:1000d800d2100000d6100000da100000de10000078
:1000e800e2100000e6100000ea100000ee10000028
:1000f800f2100000f6100000fa100000fe100000d8
:1001080002110000061100000a1100000e11000083
:1001180012110000161100001a1100001e11000033
:1001280022110000261100002a1100002e110000e3
:1001380032110000361100003a1100003e11000093
:1001480042110000461100004a1100004e11000043
:1001580052110000561100005a1100005e110000f3
:1001680062110000661100006a1100006e110000a3
:1001780072110000761100007a1100007e11000053
:1001880082110000861100008a1100008e11000003
:1001980092110000961100009a1100009e110000b3
:1001a800a2110000a6110000aa110000ae11000063
:1001b800b2110000b6110000ba110000be11000013
:1001c800c2110000c6110000ca110000ce110000c3
:1001d800d2110000d6110000da110000de11000073
:1001e800e2110000e6110000ea110000ee11000023
:1001f800f2110000f6110000fa110000fe110000d3
:1002080002120000061200000a1200000e1200007e
:1002180012120000161200001a1200001e1200002e
:1002280022120000261200002a1200002e120000de
:1002380032120000361200003a1200003e1200008e
:1002480042120000461200004a1200004e1200003e
:1002580052120000561200005a1200005e120000ee
:1002680062120000661200006a1200006e1200009e
:0c02780072120000761200007a120000e2
:020000040000fa
:1020000002000000d636040000000000d6360400ae
:1020100000000000d636040000000000d6360400a0
:1020200000000000d636040000000000d636040090
:1020300000000000d636040000000000d636040080
:1020400000000000d636040000000000d636040070
:1020500000000000d636040000000000d636040060
:1020600000000000d636040000000000d636040050
:1020700000000000d636040000000000d636040040
:1020800000000000d636040000000000d636040030
:1020900000000000d636040000000000d636040020
:1020a00000000000d636040000000000d636040010
:1020b00000000000d636040000000000d636040000
:1020c00000000000d636040000000000d6360400f0
:1020d00000000000d636040000000000d6360400e0
:1020e00000000000d636040000000000d6360400d0
:1020f00000000000d636040000000000d6360400c0
:1021000000000000d636040000000000d6360400af
:1021100000000000d636040000000000d63604009f
:1021200000000000d636040000000000d63604008f
:1021300000000000603c040000000000d6360400ef
:1021400000000000d636040000000000d63604006f
:1021500000000000d636040000000000d63604005f
:1021600000000000d636040000000000d63604004f
:1021700000000000d636040000000000d63604003f
:1021800000000000d636040000000000d63604002f
:1021900000000000d636040000000000d63604001f
:1021a00000000000d636040000000000d63604000f
:1021b00000000000d636040000000000d6360400ff
:1021c00000000000d636040000000000d6360400ef
:1021d00000000000d636040000000000d6360400df
:1021e00000000000d636040000000000d6360400cf
:1021f00000000000d636040000000000d6360400bf
:1022000000000000d636040000000000d6360400ae
:1022100000000000d636040000000000d63604009e
:1022200000000000d636040000000000d63604008e
:1022300000000000d636040000000000d63604007e
:1022400000000000d636040000000000d63604006e
:1022500000000000d636040000000000d63604005e
:1022600000000000d636040000000000d63604004e
:1022700000000000d636040000000000d63604003e
:1022800000000000d636040000000000d63604002e
:1022900000000000d636040000000000d63604001e
:1022a00000000000d636040000000000d63604000e
:1022b00000000000d636040000000000d6360400fe
:1022c00000000000d636040000000000d6360400ee
:1022d00000000000d636040000000000d6360400de
:1022e00000000000d636040000000000d6360400ce
:1022f00000000000d636040000000000d6360400be
:1023000000000000d636040000000000d6360400ad
:1023100000000000d636040000000000d63604009d
:1023200000000000d636040000000000d63604008d
:1023300000000000d636040000000000d63604007d
:1023400000000000d636040000000000d63604006d
:1023500000000000d636040000000000d63604005d
:1023600000000000d636040000000000d63604004d
:1023700000000000d636040000000000d63604003d
:1023800000000000d636040000000000d63604002d
:1023900000000000d636040000000000d63604001d
:1023a00000000000d636040000000000d63604000d
:1023b00000000000d636040000000000d6360400fd
:1023c00000000000d636040000000000d6360400ed
:1023d00000000000d636040000000000d6360400dd
:1023e00000000000d636040000000000d6360400cd
:1023f00000000000d636040000000000d6360400bd
:1024000000000000d636040000000000d6360400ac
:1024100000000000d636040000000000d63604009c
:1024200000000000d636040000000000d63604008c
:1024300000000000d636040000000000d63604007c
:1024400000000000d636040000000000d63604006c
:1024500000000000d636040000000000d63604005c
:1024600000000000d636040000000000d63604004c
:1024700000000000d636040000000000d63604003c
:1024800000000000d636040000000000d63604002c
:1024900000000000d636040000000000d63604001c
:1024a00000000000d636040000000000d63604000c
:1024b00000000000d636040000000000d6360400fc
:1024c00000000000d636040000000000d6360400ec
:1024d00000000000d636040000000000d6360400dc
:1024e00000000000d636040000000000d6360400cc
:0c24f00000000000d636040000000000d0
:020000040000fa
:102600004f1721000eff24000e018800000000007b
:10261000000020000000e000020032000001200065
:102620002002880014000700720007000000e0008c
:1026300003003a00608a24000100200002003700f5
:102640000000200001002000810f70000100320016
:102650000f000700000020000000e0000200320030
:102660000000020000000000b6460200000000006a
:102670000040da000000fe0000db20000000e00067
:1026800002003200002020009001880000000600b7
:10269000a1028800800478000000eb001f003700d2
:1026a000e284440054a0b4009905ba00e2844400d6
:1026b00054a0b4009906ba00e284440054a0b400c7
:1026c0000006eb00476fde00fd07b200ae01880098
:1026d000636ce10003003a000ad801000000eb003f
:1026e0000e003700606ce10008003a00004deb007e
:1026f0000a05e800020039003420ec000af0a000ce
:102700008b05e900f9ff3e00040037006168e10035
:10271000010032000086eb000b00070019c7ba0069
:102720001905ba000e04e00003003a000a00e000b8
:10273000dbff3a0000000600fe07b200ae02880090
:102740008a047800f5ff37000cd0a300e20f4d009b
:102750001c00390089027800354dba000a05e800ee
:10276000020039003420ec000af0a0008b05e900db
:102770000f003200254dba000a05e80002003900ba
:102780003420ec000af0a0008b05e90008003200bc
:102790000c00e0000600320015cdba000a05e80082
:1027a000020039003420ec000af0a0008b05e9009b
:1027b0008984e80054a0b4000b00e000e2ff3a0076
:1027c000000006009902ba00055d78008b05e9005b
:1027d000f7ff3200c82ade00055d78008b05e900ae
:1027e000f3ff32000c00e000f1ff320019ddba0007
:1027f000eeff37000000050003f0a200889fbe0036
:102800008a9fbe008c1f7800040107000b01330073
:102810006450e1004f0032006420e10052003200b9
:1028200003826c0007003b000905d0000306d000be
:10283000820f54000c065d000200390002003200d5
:1028400089017800030678008582550004003d0068
:102850000003fd008103fd008502ea008b85420034
:10286000840f720002003b0060001000e08018003e
:102870006011b8000005eb007a28e1000a00390079
:1028800006007800c75ddd00f707b200878075009d
:102890002d003700828171000a0178006105600017
:1028a0008180d1000080d3008502e900f9ff3b0060
:1028b000060440008784480002003b0060041400c6
:1028c000e0841c000988a300070032008a8171009f
:1028d00082817100610164008904d1000884d30001
:1028e0008b05e800170037000978a30013003a00b1
:1028f0000b00e000130034008b05e90008044400dd
:1029000089844c000a4474000978a3000d003a0041
:102910000b00e000070034008b05e90008044400c8
:1029200089844c0001003a000b0020000978a300c4
:10293000f7ff32000001eb000200370082817100d6
:102940000a0178007a0007000cf0a70001f0a0004f
:10295000c30037006420e10002003a00838f6c005e
:10296000c30033000801be000200be00bc003700f7
:10297000889fbe008a9fbe008c1f7800a7000700ba
:10298000ae00330003866c006450e1002e0032007c
:102990006420e100330032006150e1002f0032007a
:1029a0006120e1003100320085855500eb07b00061
:1029b0000900200008042000050037000804440036
:1029c00089844c000a0031000603430087834b00d2
:1029d0000001530081815b00f8ff33000203be0059
:1029e0000800a0000804440089844c00f6ff390068
:1029f000c639dd008301730001003200130020009e
:102a00008904d1000884d3000998a300050032008e
:102a10000800a7000300a0008904d1000884d300a7
:102a20008b05e8008904d1000884d3000001eb0085
:102a30000281d2003e00070001f0a1000cf0a700c7
:102a400001f0a000860037006420e1008800320019
:102a50000801be000200be00f7ff37006120e10060
:102a6000830032006000b800f3ff37000000200050
:102a700001f82700f0ff3700839f68000100e000a5
:102a800002003d0060001000e08018000300e0003c
:102a900002003d0060011100e0811900ab00070059
:102aa0004f00e00002003b0060001000e0801800d2
:102ab0000000060014002000b40037000001be0032
:102ac000410007000470a70003f0a10003f8a30071
:102ad00013003a006509b10010003200090035000a
:102ae0006928e1000200350001002800000005000f
:102af00000004000818048008502e900fcff3a00a8
:102b000000000600f88f4200050035008100d1006a
:102b10000080d3008502e800fcff3a0000000600b8
:102b20008000eb00000005006011b800b200370023
:102b300081002000618055000b003d000b0020004b
:102b400061fe2f000100e1001d0034008281710050
:102b5000610164008904d1000884d3000000e8000a
:102b6000faff3a0071002000610064000300700069
:102b7000020060000900320061044400e0844c005f
:102b80000988a500050032008b05e8006808e1000f
:102b900002003a008904d1000884d300f20f20001b
:102ba0000258e10005003d00c75ddd00f907b200f5
:102bb0008980750008007800000006000bf82700e7
:102bc0008b00780000000500c70ade00f107b200a4
:102bd000f50fb20008003200e1cf420002003200df
:102be0000170a00024000500810f70000100320078
:102bf0000408050044000500810f700002003a003f
:102c0000140005008502e9000000400081c0480072
:102c1000fcff3b000170a000240005000004be0082
:102c2000e9ff07000003be000405be000200be006d
:102c3000e5ff0700844f7500000006000200be009b
:102c40006450e100050036006420e1000200360017
:102c50000968a30001003a000800be000160a0005e
:102c60004f0678004f05be004f04be00000006006e
:102c7000f0ff2f00f1ff2700f9ff3700889fbe000b
:102c80008a9fbe008c1f7800e4ff0700ebff330033
:102c900003866c006450e100240032006420e100ef
:102ca000270032006150e100220032006120e10083
:102cb000210032008b854200eb07b1000134b800df
:102cc000003ab8000804420089844a00013ab8007a
:102cd0000030b8008880400009014a000400330039
:102ce0000000400081804800020149008b05e90096
:102cf000c909dd00830170000100320013002000cb
:102d0000c814de004814dd004709de001200b200de
:102d1000c808de000884700085ff070001f0a100ec
:102d20000cf0a70001f0a000cdff37006120e1000a
:102d3000cfff32000801be000200be00f7ff3700df
:102d40006150e100fcff3a00c9ff37006022b80083
:102d5000060220000000d0008180d2000482d20050
:102d60008582d2000000a0000202520083825a0035
:102d7000030031000202420083824a000000a100e9
:102d80000603e900f3ff3a0000000600889fbe003a
:102d90008a9fbe00841f7800a0ff07004f007800c4
:102da00011003300f0ff2f00838f6c0006003b0002
:102db000040565000a00a7000800370009f0a60016
:102dc0001000200008003700820f5400838f5c0041
:102dd000030039001000200001003e000000200028
:102de00009f0a7000000ea004f05be004f04be0036
:102df0000000e00000000600889fbe008a9fbe0021
:102e0000008270000402710004827100260032000a
:102e10000004be000200be006011b8006b09200073
:102e2000950220000182cf000a0039000541b1005f
:102e30000082cf00070039000541b1000982cf00b0
:102e4000040039000541b1000882cf0001003900bb
:102e50000541b10005425200120032000a003b0059
:102e600082817100610164008100d1000080d30083
:102e70008984d3000884d3008b05e8000442e8006d
:102e8000f7ff3a00070037000804440089844c002b
:102e900000004800818048008b05e9000442e900f9
:102ea000f9ff3a0022ff07004f05be004f04be00a5
:102eb00000000600e68747008e1f7800d0bf9f0005
:102ec000e1bf9f000e0037005fba97001440780002
:102ed000efb99700934078000201e900814f50005c
:102ee000040032000080fb008180fb0001005000e4
:102ef0000600370066875700041fe800030fe8004c
:102f00000200e000f0ff3a000000eb004f077800fd
:102f10006f00b10000000600800178000200370059
:102f2000b15978000201e9000200e000fcff3a001c
:102f300000000600800078003104e000feff3a0047
:0c2f40000080ea00008040000000060055
:020000040000fa
:102f4c00556e0000686100006e6400006c65000046
:102f5c0064200000696e000074650000727200004d
:102f6c0075700000742c000020000000756e0000cd
:102f7c006b6e00006f7700006e0000006473000041
:102f8c00504900004333000033450000503100002d
:102f9c00323800004750000035300000320000008d
:102fac0041330000004400006576000069630000b6
:102fbc006520000049440000203d00002000000076
:102fcc0020280000002900002c2000007265000061
:102fdc0076690000736900006f6e0000200000002d
:102fec00290a0000000a00000a2a00002a2a000010
:102ffc002a2a00002a2a00002a2a00002a2a000075
:10300c002a2a00002a2a00002a2a00002a2a000064
:10301c002a2a00002a2a00002a2a00002a2a000054
:10302c002a2a00002a2a00002a2a00002a2a000044
:10303c002a2a00002a2a00002a2a00002a2a000034
:10304c002a2a00002a2a00002a2a00002a2a000024
:10305c002a2a00002a0a00002a20000057410000fa
:10306c00524e0000494e0000472000002d20000069
:10307c00746800006973000020700000726f00001b
:10308c0067720000616d0000207700006173000022
:10309c00206300006f6d0000706900006c6500001b
:1030ac0064200000666f000072200000746800004d
:1030bc0065200000777200006f6e00006720000032
:1030cc00202a00000a2a0000206300006869000022
:1030dc00702e00002054000068690000732000006e
:1030ec00707200006f670000726100006d200000bc
:1030fc006d61000079200000707200006f640000a8
:10310c007563000065200000756e00006578000096
:10311c0070650000637400006564000020620000ac
:10312c0065680000766900006f72000021200000c5
:10313c002a0a00002a20000045640000697400007f
:10314c0020740000686500002068000065610000c4
:10315c006465000072200000666900006c65000068
:10316c0073200000746f000020700000726f00006c
:10317c0070650000726c000079200000646500002e
:10318c00666900006e65000020740000686900002c
:10319c00732000006368000069700000202a0000a2
:1031ac000a2a0000206100006e64000020740000f8
:1031bc006f200000696e00007375000072650000de
:1031cc00206300006f7200007265000063740000e1
:1031dc00206f0000706500007261000074690000cf
:1031ec006f6e00002e200000202000002020000028
:1031fc0020200000202000002020000020200000c3
:10320c002020000020200000202000002a0a0000be
:10321c002a20000020200000202000002020000098
:10322c002020000020200000202000002020000092
:10323c002020000020200000202000002020000082
:10324c002020000020200000202000002020000072
:10325c002020000020200000202000002020000062
:10326c002020000020200000202000002020000052
:10327c002020000020200000202a00000a2a000044
:10328c00204e00004f540000453a00002049000039
:10329c00662000007468000069730000207700004d
:1032ac0061730000206300006f6d00007069000006
:1032bc006c65000064200000666f00007220000046
:1032cc007468000065200000636f000072720000db
:1032dc0065630000742000006368000069700000e2
:1032ec002c200000202000002a0a00002a200000c8
:1032fc00616e0000642000006f6e00006c790000ad
:10330c00206f0000636300007572000073200000e2
:10331c0061740000207000006f770000657200007f
:10332c002d6f00006e200000286e00006f740000ee
:10333c002064000075720000696e000067200000b8
:10334c00612000004d4300004c5200002020000082
:10335c0020200000202a00000a2a00002072000011
:10336c006573000065740000292c000020760000b5
:10337c006572000069660000792000007468000026
:10338c0061740000204100005644000044200000fd
:10339c00616e000064200000415600005353000091
:1033ac002061000072650000206300006f6e000059
:1033bc006e65000063740000656400002e20000040
:1033cc00202000002a0a00002a2000004f6e000076
:1033dc002074000068650000205000004943000084
:1033ec0032340000483300003247000050320000f5
:1033fc00303200002c2000006e6f000074200000a2
:10340c00636f00006e6e000065630000746900005d
:10341c006e6700002041000056440000442000006c
:10342c002020000020200000202000002020000090
:10343c00202a00000a2a000020700000726f000091
:10344c006475000063650000732000007468000060
:10345c0069730000206d000065730000736100004b
:10346c0067650000206f00006e6c00007920000082
:10347c0061740000207000006f770000657200001e
:10348c002d750000702e0000202000002020000070
:10349c002020000020200000202000002020000020
:1034ac002a0a00002a2a00002a2a00002a2a0000e0
:1034bc002a2a00002a2a00002a2a00002a2a0000b0
:1034cc002a2a00002a2a00002a2a00002a2a0000a0
:1034dc002a2a00002a2a00002a2a00002a2a000090
:1034ec002a2a00002a2a00002a2a00002a2a000080
:1034fc002a2a00002a2a00002a2a00002a2a000070
:10350c002a2a00002a2a00002a2a00002a2a00005f
:10351c000a00000046610000737400002052000095
:10352c00432000004f730000630a000000460000b7
:10353c00617300007420000052430000204f000013
:10354c00736300002077000069740000682000009d
:10355c00504c00004c0a0000005000007269000042
:10356c006d61000072790000204f00007363000051
:10357c0020280000585400002c2000004853000064
:10358c002c20000045430000290a000000500000d8
:10359c00726900006d61000072790000204f00001c
:1035ac007363000020280000585400002c200000f9
:1035bc00485300002c200000454300002920000047
:1035cc007769000074680000205000004c4c00002b
:1035dc000a00000053650000636f00006e64000079
:1035ec0061720000792000004f730000630a000034
:1035fc00004c00006f770000205000006f77000037
:10360c006572000020520000432000004f73000040
:10361c00630a000000460000617300007420000083
:10362c0052430000204f0000736300002f31000054
:10363c00360a000000460000617300007420000090
:10364c0052430000204f0000736300002f4e000017
:10365c000a000000556e00006b6e00006f770000d2
:10366c006e2000006f730000636900006c6c00003a
:10367c00617400006f72000020740000797000000b
:10368c00652e0000000a0000446500007669000009
:10369c006365000020680000617300002062000078
:1036ac00656500006e200000696e0000207300004c
:1036bc006c65000065700000206d00006f640000f8
:1036cc00650a0000000a00004465000076690000ed
:1036dc006365000020680000617300002062000038
:1036ec00656500006e200000696e00002069000016
:1036fc00646c0000652000006d6f000064650000c4
:10370c000a0000000a520000657300006574000096
:10371c002063000061750000736500003a20000012
:10372c00005000006f770000657200002d6f0000e4
:10373c006e2e00000a000000536f0000667400003b
:10374c007761000072650000205200006573000074
:10375c00657400002e0a0000005700006174000020
:10376c0063680000646f000067200000546900006b
:10377c006d6500006f750000743a000020000000b9
:10378c000a0000004d4300004c5200002061000074
:10379c007373000065720000746900006f6e0000a6
:1037ac002e0a000000420000726f0000776e0000cd
:1037bc002d6f0000757400002e0a000000540000ec
:1037cc007261000070200000436f00006e66000004
:1037dc006c690000637400002e0a000000490000b0
:1037ec006c6c000065670000616c000020430000f9
:1037fc006f6e000064690000746900006f6e000059
:10380c002e0a0000004300006f6e00006669000085
:10381c006775000072610000746900006f6e000033
:10382c00204d0000697300006d610000746300009e
:10383c00682e00000a000000556e00006b6e000040
:10384c006f7700006e200000726500007365000049
:10385c00742e00000a00000045720000726f000018
:10386c00722000007472000061700000706500002e
:10387c00643a00002000000050720000696f0000e4
:10388c0072690000747900003a200000002c0000de
:10389c002056000065630000746f00007220000069
:1038ac006e7500006d620000657200003a20000029
:1038bc00000a00000a00000045720000726f000050
:1038cc0072200000696e0000202e00002e2f0000d8
:1038dc002e2e00002f6c0000696200002f73000078
:1038ec00726300002f700000696300003234000026
:1038fc005f750000746900006c2e000063200000ee
:10390c006c6900006e650000203400003639000040
:10391c003a2000004153000053450000525400006f
:10392c0028750000313600005f62000072670000ed
:10393c00682000003c3d00002031000029200000e0
:10394c0066610000696c0000656400002e0a0000ce
:10395c0000450000727200006f72000020690000c8
:10396c006e2000002e2e00002f2e00002e2f0000a7
:10397c006c690000622f000073720000632f00005e
:10398c007069000063320000345f00007574000041
:10399c00696c00002e630000206c0000696e000052
:1039ac006520000034370000353a0000204100004b
:1039bc00535300004552000054280000665f00007d
:1039cc0062720000672000003c20000036350000c9
:1039dc0035330000352e000035290000206600002c
:1039ec00616900006c650000642e00000a00000094
:1039fc000a2e00002e2f00006e660000635f000090
:103a0c006c630000642e0000632c00002062000038
:103a1c00756900006c740000206f00006e200000bf
:103a2c004d610000792000002031000020320000a0
:103a3c00303100003720000061740000203200009b
:103a4c00303a0000313400003a320000310a0000f4
:103a5c00005300007461000072740000696e000075
:103a6c00672e00002e2e00000a0000006c63000080
:103a7c00645f0000696e0000697400000a000000b9
:103a8c006e6f000042610000636b00006c69000007
:103a9c0067680000740a0000006300006c65000099
:103aac00617200000a000000637500007273000070
:103abc006f7200000a000000626c0000696e00006a
:103acc006b0a0000006e00006f410000757400006e
:103adc006f530000637200006f6c00006c0a0000f2
:103aec0000530000636100006e20000061200000a4
:103afc0074610000672e00002e2e000000200000d4
:103b0c0020200000202000002020000020200000a9
:103b1c002020000020200000202000002020000099
:103b2c00202000002000000042610000636b0000b8
:103b3c006c69000067680000740a00000046000011
:103b4c006f7500006e640000206100006e200000a4
:103b5c00495300004f31000034340000343300006e
:103b6c004120000063610000726400000a00000044
:103b7c002020000055490000442000004c65000046
:103b8c006e670000746800003a00000020620000bc
:103b9c0079740000657300000a000000202000000a
:103bac005549000044200000566100006c7500006f
:103bbc00653a000000550000494400003a2000001e
:103bcc0000530000656500006d7300002074000058
:103bdc006f2000006265000020610000204d000095
:103bec00696600006172000065200000436c0000f3
:103bfc0061730000736900006320000063610000c2
:103c0c00726400002028000034200000627900005b
:103c1c00746500002055000049440000290a00008a
:103c2c000054000072790000696e000067200000eb
:103c3c00746f00002061000075740000686500005e
:103c4c006e74000069630000617400006520000060
:103c5c00626c00006f6300006b200000312d0000cf
:103c6c0036330000207700006974000068200000e3
:103c7c006465000066610000756c00007420000033
:103c8c004b4500005941000020760000616c00009b
:103c9c00756500000a0000000a530000656300000f
:103cac00746f000072200000686100007320000037
:103cbc0062650000656e00002061000075740000f4
:103ccc00686500006e740000696300006174000098
:103cdc00656400000a0000004f6f00006f70000068
:103cec00732000002e2e00002e20000061750000b5
:103cfc0074680000656e0000746900006361000068
:103d0c00746900006f6e000020660000616900009d
:103d1c006c650000643a00002054000072790000c9
:103d2c00206100006e6f0000746800006572000076
:103d3c00206b0000657900003f0a00000044000081
:103d4c0061740000613a0000200000004f6f000019
:103d5c006f700000732000002e2e00002e2000003b
:103d6c00756e0000616200006c650000207400003c
:103d7c006f20000072650000616400002074000078
:103d8c006865000020720000657100007565000018
:103d9c007374000065640000206200006c6f00000a
:103dac00636b00002e20000020540000727900008c
:103dbc00206100006e6f00007468000065720000e6
:103dcc00206b0000657900003f0a000000ff000036
:103ddc00ffff0000ffff0000ff0000005541000046
:103dec005254000031200000706100007269000024
:103dfc007479000020650000727200006f72000080
:103e0c000a0000005541000052540000312000000f
:103e1c0066720000616d0000696e00006720000092
:103e2c0065720000726f0000720a000000550000fd
:103e3c004152000054310000206f000076650000f4
:103e4c0072720000756e0000206500007272000036
:103e5c006f7200000a00000045720000726f0000d3
:103e6c0072200000696e0000202e00002e2f000032
:103e7c006d7900005f70000069630000323400004f
:103e8c005f75000061720000742e0000632000005a
:103e9c006c6900006e6500002033000032370000b2
:103eac003a200000415300005345000052540000da
:103ebc00286600005f62000072670000203c000072
:103ecc002036000035350000333500002e3500005b
:103edc002920000066610000696c00006564000028
:103eec002e0a000000450000727200006f72000084
:103efc00206900006e2000002e2e00002f6d0000a7
:103f0c00795f00007069000063320000345f0000cc
:103f1c0075610000727400002e630000206c0000bc
:103f2c00696e00006520000033370000343a000051
:103f3c00204100005353000045520000542800005b
:103f4c0075330000325f0000626100007564000090
:103f5c005261000074650000203e00003d2000000e
:103f6c0031300000303000004c2900002066000089
:103f7c00616900006c650000642e00000a000000fe
:103f8c0055410000525400003220000070610000c6
:103f9c0072690000747900002065000072720000e4
:103fac006f7200000a0000005541000052540000de
:103fbc003220000066720000616d0000696e000026
:103fcc006720000065720000726f0000720a00002a
:103fdc00005500004152000054320000206f0000d8
:103fec007665000072720000756e0000206500009e
:103ffc00727200006f7200000a0000005541000050
:10400c005254000032200000525800002049000099
:10401c006e74000065720000727500007074000010
:10402c0020460000494600004f2000006f7600003b
:10403c0065720000727500006e21000000450000e2
:10404c00727200006f720000206900006e20000088
:10405c002e2e00002f6d0000795f000070690000ab
:10406c0063320000345f0000756100007274000060
:10407c002e630000206c0000696e000065200000bb
:10408c0037330000333a0000204100005353000046
:10409c004552000054280000665f00006272000068
:1040ac00672000003c20000036350000353300004e
:1040bc00352e0000352900002066000061690000e3
:1040cc006c650000642e00000a00000045720000c0
:1040dc00726f000072200000696e0000202e00003c
:1040ec002e2f00006d7900005f70000069630000e6
:1040fc00323400005f75000061720000742e000005
:10410c00632000006c6900006e6500002037000021
:10411c00383000003a2000004153000053450000a5
:10412c005254000028750000333200005f6200001a
:10413c00617500006452000061740000652000008d
:10414c003e3d00002031000030300000304c0000bb
:10415c002920000066610000696c000065640000a5
:10416c002e0a000000000000447500006d70000075
:10417c002073000065720000696100006c20000073
:10418c006275000066660000657200003a2000004f
:10419c00000a00005772000069740000653a0000c4
:1041ac00200000000a52000065610000643a000023
:1041bc00202000000050000072650000616d0000be
:1041cc00626c00006520000065720000726f0000d8
:1041dc00720000004c6500006e67000074680000ff
:1041ec0020650000727200006f7200000043000036
:1041fc006f6d00006d6100006e64000020650000b2
:10420c00727200006f7200000043000068650000cd
:10421c00636b0000737500006d2000006572000078
:10422c00726f0000720000000a410000636b000016
:10423c003a20000000540000696d0000656f00001a
:10424c00757400000a000000496e000076610000e1
:10425c006c690000640a0000000a00000a530000a8
:10426c00414d0000436f00006e660000696700005e
:10427c000a00000046610000696c0000000a0000a2
:10428c00447500006d700000207300006572000022
:10429c00696100006c200000627500006666000019
:1042ac00657200003a200000000a00000a7200004b
:1042bc0065610000645000006173000073690000c8
:1042cc0076650000546100007267000065740000a0
:1042dc00494400000a0000000a410000545100004b
:1042ec00413a0000203000007800000053410000eb
:1042fc004b3a000020300000780000000a0a000051
:10430c000041000075740000686500006e740000c8
:10431c00696600006963000061740000696f000049
:10432c006e20000066610000696c0000656400008e
:10433c000a00000054720000796900006e670000ea
:10434c00207400006f2000007265000061640000a2
:10435c0020310000362000006279000074650000f6
:10436c0073200000667200006f6d00002062000078
:10437c006c6f0000636b00002000000050610000b7
:10438c006765000020760000616c00007565000018
:10439c00206f000075740000206f00006620000084
:1043ac00726100006e670000650a000000000000ea
:1043bc0000ff000000ff000000000000457200003c
:1043cc00726f000072200000696e0000202e000049
:1043dc002e2f00002e2e00002f6c000069620000b2
:1043ec002f730000726300002f70000069630000df
:1043fc00323400005f7300006572000069610000d8
:10440c006c2e0000632000006c6900006e650000db
:10441c0020380000303a0000204900006e76000081
:10442c00616c0000696400002055000041520000de
:10443c00540000003078000000450000727200004b
:10444c006f720000206900006e2000002e2e00000c
:10445c002f2e00002e2f00006c690000622f000030
:10446c0073720000632f000070690000633200005b
:10447c00345f00007365000072690000616c00001d
:10448c002e630000206c0000696e000065200000a7
:10449c0032390000353a0000204900006e760000e9
:1044ac00616c00006964000020550000415200005e
:1044bc005400000045720000726f00007220000072
:1044cc00696e0000202e00002e2f00002e2e000002
:1044dc002f6c0000696200002f73000072630000f3
:1044ec002f70000069630000323400005f7300001d
:1044fc0065720000696100006c2e000063200000f2
:10450c006c6900006e65000020330000333400003d
:10451c003a200000496e0000766100006c690000d2
:10452c0064200000554100005254000000000000bf
:10453c0050c3000030750000204e00001027000012
:10454c0088130000b80b0000d0070000e80300003f
:10455c00f40100002c010000c80000006400000001
:10456c00320000001e000000140000000a000000d1
:10457c000500000003000000020000000100000024
:10458c000503000002010000321e0000140a0000a6
:10459c0005030000020100000503000002010000f9
:1045ac00050300000201000045720000726f00005c
:1045bc0072200000696e0000202e00002e2f0000db
:1045cc002e2e00002f6c0000696200002f7300007b
:1045dc00726300002f700000696300003234000029
:1045ec005f740000696d0000657200002e630000ae
:1045fc00206c0000696e000065200000353800005a
:10460c003a20000041530000534500005254000072
:10461c00286600005f740000696300006b73000083
:10462c00203c0000203600003535000033350000fa
:10463c002e3500002920000066610000696c000026
:10464c00656400002e0a0000004500007272000034
:10465c006f720000206900006e2000002e2e0000fa
:10466c002f2e00002e2f00006c690000622f00001e
:10467c0073720000632f0000706900006332000049
:10468c00345f0000746900006d650000722e00003c
:10469c00632000006c6900006e650000203700008c
:1046ac00363a0000204100005353000045520000f0
:1046bc0054280000665f000074690000636b000002
:1046cc00732000003c20000036350000353300001c
:1046dc00352e0000352900002066000061690000bd
:1046ec006c650000642e00000a000000457200009a
:1046fc00726f000072200000696e0000202e000016
:10470c002e2f00002e2e00002f6c0000696200007e
:10471c002f730000726300002f70000069630000ab
:10472c00323400005f740000696d00006572000097
:10473c002e630000206c0000696e000065200000f4
:10474c0031360000303a0000204100005353000085
:10475c004552000054280000753800005f540000da
:10476c00434b000050530000203c00003d20000053
:10477c003329000020660000616900006c650000b0
:10478c00642e00000a0000000a0a0000596f0000a5
:10479c0075720000206300006c6f0000636b0000fa
:1047ac0020630000686f0000696300006520000052
:1047bc0066610000696c00006564000020740000f4
:1047cc006f200000696e00006974000069610000d0
:1047dc006c6900007a6500002e2000005365000013
:1047ec00652000002e2e00002f2e00002e2f000022
:1047fc006c690000622f000073720000632f0000d0
:10480c007069000063320000345f0000636c0000cc
:10481c006f6300006b66000072650000712e000073
:10482c00632000006c6900006e6500002031000000
:10483c0034360000206600006f720000206d00000e
:10484c006f72000065200000646500007461000058
:10485c00696c0000732e00000045000072720000ad
:10486c006f720000206900006e2000002e2e0000e8
:10487c002f2e00002e2f00006c690000622f00000c
:10488c0073720000632f0000706900006332000037
:10489c00345f0000636c00006f6300006b66000007
:1048ac0072650000712e0000632000006c6900002e
:1048bc006e65000020310000373200003a20000005
:1048cc00415300005345000052540000287500006d
:1048dc00385f0000736f00007572000063650000a4
:1048ec00203c0000203800002920000066610000f8
:1048fc00696c0000656400002e0a000000000000d6
:10490c004932000043310000205300007461000064
:10491c007274000000490000324300003120000096
:10492c0052530000746100007274000000490000d2
:10493c003243000031200000537400006f700000ff
:10494c000049000032430000312000005075000087
:10495c007400000049320000435000005554000020
:10496c00312c0000204e0000414b00002072000052
:10497c0065740000757200006e650000642e000006
:10498c000049000032430000312000004765000060
:10499c007400000049320000433200002053000034
:1049ac007461000072740000004900003243000082
:1049bc003220000052530000746100007274000039
:1049cc000049000032430000322000005374000004
:1049dc006f700000004900003243000032200000dc
:1049ec005075000074000000493200004350000074
:1049fc0055540000322c0000204e0000414b0000aa
:104a0c002072000065740000757200006e65000075
:104a1c00642e0000004900003243000032200000e8
:104a2c00476500007400000053500000493100003d
:104a3c002052000065630000656900007665000087
:104a4c00204f000076650000726600006c6f00005d
:104a5c00770a00000053000050490000322000008b
:104a6c005265000063650000697600006520000057
:104a7c004f76000065720000666c00006f770000d6
:104a8c000a000000636f00006e7600006572000083
:104a9c00744100004443000031280000290000004c
:020000040000fa
:104aac000400fa00008fbe001e00be00be110700fd
:104abc001e00be00c409de004c0add004401de000d
:104acc000201720050808000618080000200400072
:104adc008380480050808800618088000080fa0044
:104aec00000006000000fa000000eb000080fa0055
:104afc00000006000400fa00000f7800214798001f
:104b0c008041eb000001eb00ae4090001e007800ed
:104b1c00020007000080fa00000006000e00fa00f8
:104b2c0030079800014f980052079800434f9800a7
:104b3c00400b07000004e0000a003200a00b2a0022
:104b4c00f80b070008003700450b070020479800ba
:104b5c002e409000610c070000c2b300df0b070071
:104b6c000100370000000000320b07000004e000d9
:104b7c00f5ff3a003e009000104078001af0b700a4
:104b8c000040eb001e0b07000040eb001c0b070065
:104b9c0000c0eb001a0b07008e4890004e489000a6
:104bac0000c040000040e800304798003e409000b4
:104bbc00130b07003e4090000040ea00100b07006a
:104bcc0040cdb3000e0b070040cdb300004f780072
:104bdc00f00c2a00d30b07000040eb0010479800a4
:104bec00170037001e4090000080fb00be009000b4
:104bfc000080400010407800010b07001e40900020
:104c0c000080fb00be009000008040001040780047
:104c1c001e4f40001e4090000080fb00be00900024
:104c2c0000804000104078002c0c070000c2b3003c
:104c3c00aa0b07001e4090000040e80010479800a7
:104c4c009e4090000e48900080cf5000e5ff390048
:104c5c000040eb0010479800170037001e409000f2
:104c6c000080fb00de0090000080400010407800c7
:104c7c00e30a07001e4090000080fb00de0090005d
:104c8c0000804000104078001e4f40001e409000f5
:104c9c000080fb00de009000008040001040780097
:104cac000e0c070000c2b3008c0b07001e409000d6
:104cbc000040e800104798009e4090004e4890003d
:104ccc0080cf5000e5ff39001e4078000040ea001c
:104cdc00404798004e409000c90a07000040eb0086
:104cec00c70a0700840007000080fa0000000600d5
:104cfc000c00fa0040079800214f980040f0250066
:104d0c00b105200066ff0700800d2a00850b070007
:104d1c006300470031002000970007000004e0000a
:104d2c0002003c00e0ff2f00710037003e40900075
:104d3c000004e00006003a004e4090000004e00041
:104d4c0003003a005e409000e14f40000400320046
:104d5c00100e2a00730b0700d0ff2f0064003700e1
:104d6c006600470021002000830007000004e000db
:104d7c0002003c00e0ff2f005d003700ee40900089
:104d8c007e40900000c040000004e00004003200af
:104d9c00000f2a00630b0700d0ff2f0054003700d0
:104dac006e40900000c0e90060479800ee40900013
:104dbc002e48900080cf500002003600c0ff2f001c
:104dcc004b0037001ad0bf000040e8002047980085
:104ddc006300470021002000670007000004e0008a
:104dec0002003c00e0ff2f0041003700be40900065
:104dfc0050cdb30080cf500004003a00ce4090005c
:104e0c002e40900080cf500004003200d00f2a00ba
:104e1c00440b0700d0ff2f00350037006e40900088
:104e2c000080fb00800078004e00900052000700cc
:104e3c008000fb006e4090000080fb00808f5000d3
:104e4c0002003200e0ff2f0029003700ae40900036
:104e5c0050cdb30000cf40000040eb00104798004d
:104e6c00090037001e4090000080fb00ce0090002f
:104e7c0000804000104078001e4f40001e40900003
:104e8c000040e80010479800ee4090001e40900053
:104e9c0080cf5000f3ff3e0063004700210020004c
:104eac00350007000004e00002003c00e0ff2f008a
:104ebc000f0037003e4090001e4040000004e00010
:104ecc0003003a004e4090000004e0000400320061
:104edc00b0102a00130b0700d0ff2f00040037007e
:104eec00a0c0b300fd0a07006e4090000080fb00dc
:104efc000080fa00000006000c00fa00d11d2a0008
:104f0c0005000900315f78006e00b10040f025000b
:104f1c00b1052000e2fe0700a0112a00010b0700da
:104f2c006600470061002000130007000004e00049
:104f3c0004003c0010122a00fa0a0700e0cfb3006c
:104f4c000b00370066004700620020008e007800de
:104f5c00d5f707000000e00004003200a0122a0080
:104f6c00f00a070000c0eb00010037000040eb0026
:104f7c000080fa00000006000c00fa0040079800c0
:104f8c00510798000000eb00000f7800310037004b
:104f9c00d4fe07008000eb00100798002107980052
:104fac00240a07000004e000030032002c0a07006a
:104fbc000080fb00010037000080eb0030079800f8
:104fcc003e0090000000e000040035003e00900020
:104fdc000000e0000b00350012003700a031220069
:104fec0091002000aefe07001e009000ae00900065
:104ffc0061004000e08048001007980021079800ed
:10500c00e7ff37001e0078000000e00003003200cc
:10501c001e0078000040780014003700e0cfb30089
:10502c00120037001e007800ce0090000080400077
:10503c00be00900081407800014878003e0090004e
:10504c0000407800250b070000c2b300a30a07003c
:10505c001e0fe8005e0090009e007800808f5000cc
:10506c00cbff35001e007800004078000080fa006d
:10507c00000006000000fa001013210041c1b3002b
:10508c00014878002013210011c0b30001487800ba
:10509c003013210041c1b3000148780040132100b6
:1050ac0011c0b3000148780030132a009d0a070094
:1050bc0041c0b300101321008efe07000004e00075
:1050cc00020032000000eb000800370001c4b300fe
:1050dc001013210006ff070080007800100020004c
:1050ec000100e00001003c000000eb000080fa0031
:1050fc00000006000600fa001013210021c0b300c6
:10510c000148780011c0b3001013210079fe07008c
:10511c000004e0000200320000142a00810a07009b
:10512c0001c4b30010132100f1fe0700000f78003a
:10513c001e0078000000e00002003d0000142a0070
:10514c00780a070010132100104078000080fb0043
:10515c008000eb0010079800210798001e019000ba
:10516c00ae0190004818dd00c810de008100700010
:10517c004810dd001007980021079800201321002b
:10518c00104078000080fb008000eb001e019000b6
:10519c00ae01900000007100818071001007980032
:1051ac00210798001e019000ae0190004818dd0008
:1051bc00c810de00810070004810dd001007980058
:1051cc002107980030132100104078000080fb006c
:1051dc008000eb001e019000ae01900000007100f9
:1051ec008180710010079800210798001e01900023
:1051fc00ae0190004818dd00c810de008100700080
:10520c004810dd001007980021079800401321007a
:10521c00104078000080fb008000eb001e01900025
:10522c00ae019000000071008180710010079800a1
:10523c00210798001e009000ae009000be0a0700e7
:10524c000080fa00000006000200fa0050c5b3000e
:10525c006b09070050c5b300690907000040eb005b
:10526c00670907000040eb00650907000040eb00f0
:10527c00630907006f0907000004e0000800320012
:10528c0050142a00270a070006003700740907008b
:10529c00004f78001e407800900a0700010037008c
:1052ac0000000000630907000004e000f7ff3a006b
:1052bc000080fa00000006000600fa00004f78009b
:1052cc0011079800220798008001eb002e01900036
:1052dc009e0090001e407800020007000080fa003b
:1052ec00000006000c00fa004047980031079800b7
:1052fc00420798005307980010132100a1c4b30073
:10530c00014878002013210011c0b3000148780037
:10531c0030132100ce4090000148780031c0b3001a
:10532c0010132100f3fd07000004e000020032001e
:10533c000000eb0045003700b0152a00f909070002
:10534c0001c4b3001013210069fe07000000e00047
:10535c0002003d000000eb003c0037001013210060
:10536c0010407800e14f5000020032000000eb00ca
:10537c003600370030132100104078000080fb000d
:10538c00100798001e0090004800dd0010079800e0
:10539c0040132100104078000080fb009e0090001c
:1053ac00010070001007980020172a00dd09070083
:1053bc001e009000510a070000c2b300c709070085
:1053cc00c0172a00d709070050132100104078009d
:1053dc00420a070040182a00d20907006013210076
:1053ec00904078004e009000014878000040eb009f
:1053fc00004f78000a0037001e80fb00be009000b2
:10540c00008040009e80fb00e680400012132100cb
:10541c008100410091407800014878001e4fe8005f
:10542c0060132100104078009e4f5000f2ff3e00a8
:10543c005e0090000000e000030032002013210009
:10544c00104078001cf0b700100020000080fa001b
:10545c00000006000e00fa00100798004147980063
:10546c003207980043079800244f9800650798006e
:10547c0062002000ee009000b0122100a3f607009d
:10548c004e4090000080fb00000178009e009000d0
:10549c00401221009df607004e419000b101210001
:1054ac00824878001013210001c4b3000148780031
:1054bc002013210011c0b300014878002e48900041
:1054cc000004e0000200320010c6b30001003700f7
:1054dc0000c6b30031132100804878003e009000d4
:1054ec0080407800401321000148780050132100bf
:1054fc0062002000b112210084f607000040eb008e
:10550c00004f78000a0037001e80fb006a00400044
:10551c009e80fb00421221008100410091407800e6
:10552c001213210000004100014878001e4fe800d2
:10553c001bd0bf009e40780080cf5000f2ff390096
:10554c001bd0bf006a40400080407800101321003f
:10555c0068fd07000004e000020032000040eb0090
:10556c000c00370001c4b30010132100e0fd07004c
:10557c0010132100104078000004e00004003200f9
:10558c0070182a00670907000040eb000100370083
:10559c0010c0b3000080fa00000006000400fa00fe
:1055ac00004f780011079800001a2a005d090700c7
:1055bc001e407800000a0700a0c0b300470907008e
:1055cc001013210001c4b3000148780020132100fe
:1055dc0011c0b300014878003013210001c3b3009f
:1055ec0001487800401321001e48780041c0b300e8
:1055fc00101321003ffd07000004e0000200320000
:10560c000040eb000f00370001c4b3001013210061
:10561c00b7fd070010132100104078000004e000d3
:10562c00020032000040eb0006003700201321007e
:10563c0002012000800078001e00900033f6070065
:10564c0010c0b3000080fa00000006000400fa004d
:10565c00004f780011079800f0c3b3009e4078000b
:10566c0080cf500004003600401c2a002d09070092
:10567c000040eb00210037001013210001c4b300df
:10568c00014878002013210011c0b30001487800b4
:10569c003013210001c3b3000148780040132100ee
:1056ac001e48780041c0b3001013210011fd070003
:1056bc000004e000020032000040eb000f00370055
:1056cc0001c4b3001013210089fd07001013210041
:1056dc00104078000004e00007003a00201321007d
:1056ec0042002000800078001e00900007f60700a2
:1056fc0010c0b300010037000040eb000080fa003e
:10570c00000006000400fa00004f78001107980012
:10571c001013210001c4b3000148780020132100ac
:10572c0011c0b300014878003013210001cab30046
:10573c0001487800401321001e48780050132100c6
:10574c00020120009e009000f0f5070041c1b3005b
:10575c0010132100e7fc07000004e00002003200f7
:10576c000040eb000800370001c4b3001013210007
:10577c005ffd07008000780010c0b3000100e0005e
:10578c0001003c000040eb000080fa000000060025
:10579c000400fa00100798001e0090008000eb0037
:1057ac000001be00909e2e0001002000aff4070007
:1057bc00000f78001e0fe900f01f20009e007800fb
:1057cc00808f500002003600f01f2000000f780080
:1057dc009e0078002110880007e2a8000080fa00e3
:1057ec00000006000200fa0060482a0000818800d0
:1057fc00003a80004500de0061406000004f7800f8
:10580c0040a7a8000602a80000000000301080008d
:10581c00610060000000e000fcff3a009e40780050
:10582c0061c060000080fb00610060004500dd008d
:10583c00013a80000150a10001007000003a88007c
:10584c002030ef000080fa00000006000200fa0091
:10585c0010492a0000818800003a80004500de00d3
:10586c0061406000004f780040a7a8000622a80005
:10587c000000000030108000620060000000e000ba
:10588c00fcff3a009e40780061c060000080fb0085
:10589c00610060004500dd00013a80000150a1006c
:1058ac0001007000003a88002030ef000080fa0000
:1058bc00000006000200fa00d0492a00008188008e
:1058cc00003a80004500de0061406000004f780027
:1058dc0040a7a8000642a80000000000301080007d
:1058ec00640060000000e000fcff3a009e4078007d
:1058fc0061c060000080fb00610060004500dd00bd
:10590c00013a80000150a10001007000003a8800ab
:10591c002030ef000080fa00000006000400fa00be
:10592c0020479800704a2a0000818800003a8000c5
:10593c004500de0061406000004f780040a7a800e1
:10594c002e4090000080fb0010108800000000002a
:10595c004110800000002400008060000000e00086
:10596c00fbff3a009e40780061c060000080fb00a5
:10597c00610060004500dd00013a80000150a1008b
:10598c0001007000003a88002030ef0041108000c8
:10599c0000002800008060000000e00002003200df
:1059ac00004b2a00190507000080fa0000000600d1
:1059bc000400fa0020479800704a2a0000818800f1
:1059cc00003a80004500de0061406000004f780026
:1059dc0040a7a8002e4090000080fb00101088000b
:1059ec0000000000411080000000240000806000d6
:1059fc000000e000fbff3a009e40780061c06000b0
:105a0c000080fb00610060004500dd00013a800071
:105a1c000150a10001007000003a88002030ef0016
:105a2c00401080004f00de00004078000080fa003b
:105a3c00000006000400fa0020479800704c2a0071
:105a4c0000818800003a80004500de006140600063
:105a5c00004f780040a7a800000000003010800024
:105a6c007f0060000000e000fcff3a000662a80026
:105a7c000000000040108000620060000000e000a8
:105a8c00fcff32000060fe00001080001047980000
:105a9c0000000000301080007f0060000000e0007b
:105aac00fcff3a002e409000614060000080fb003b
:105abc00610060004500dd00311080000150a10044
:105acc0001007000301088000682a8000000000061
:105adc0030108000700060000000e000fcff3a0015
:105aec009e40780061c060000080fb006100600097
:105afc004500dd00013a80000150a100010070005a
:105b0c00003a88002030ef001e4090000080fa0020
:105b1c00000006000200fa00004f780011479800c0
:105b2c0030ff07001e4078000004a1007bff070037
:105b3c001e40900079ff07005eff07000080fa000e
:105b4c00000006000400fa00004f7800114798008e
:105b5c002247980023ff07001e4078000004a10094
:105b6c006eff07001e4090006cff07002e40900057
:105b7c006aff07004fff07000080fa0000000600d4
:105b8c000800fa0020479800210798003207980077
:105b9c0014ff07002e4090000004a1005fff0700d7
:105bac000000eb00000f7800070037002e0090007b
:105bbc001040780059ff07002e0090000000e8000c
:105bcc00200798001e0fe8003e0090009e00780011
:105bdc00808f5000f5ff390036ff07000080fa0077
:105bec00000006000400fa00004f7800110798002e
:105bfc00fcfe07001e4078000004a00047ff0700d1
:105c0c0010c0b3008bff07009e0090008048780006
:105c1c0028ff07000080fa00000006000600fa00ca
:105c2c00004f78001107980022079800edfe07003e
:105c3c001e4078000004a00038ff07000040eb0075
:105c4c007cff07009e0090008048780010c0b300d5
:105c5c0078ff0700ae0090008048780015ff070021
:105c6c000080fa00000006000800fa0020479800a7
:105c7c002107980032079800dafe07002e409000aa
:105c8c000004a00025ff07000000eb00000f7800c7
:105c9c00110037003e0090000000e9009e0f5000fc
:105cac00050032000040eb0062ff0700ae009000e0
:105cbc00804878000400370010c0b3005dff070077
:105ccc00ae009000804878002e0090000000e800a4
:105cdc00200798001e0fe8003e0090009e00780000
:105cec00808f5000ebff3900f2fe07000080fa00b5
:105cfc00000006000400fa00100798001e00900037
:105d0c008000eb000001be00909e2e0001002000e0
:105d1c0056f30700000f78001e0fe900f01f20005b
:105d2c009e007800808f500002003600f01f20008b
:105d3c00000f78009e007800a110880017e2a800e0
:105d4c000080fa00000006000200fa00004d2a0054
:105d5c0000818800003a80004500de006140600050
:105d6c00004f780040a7a8001602a8000000000011
:105d7c00b0108000610060000000e000fcff3a0001
:105d8c009e40780061c060000080fb0061006000f4
:105d9c004500dd00013a80000150a10001007000b7
:105dac00003a88002030ef000080fa000000060066
:105dbc000200fa00b04d2a0000818800003a8000f1
:105dcc004500de0061406000004f780040a7a8004d
:105ddc001622a80000000000b010800062006000d5
:105dec000000e000fcff3a009e40780061c06000bb
:105dfc000080fb00610060004500dd00013a80007e
:105e0c000150a10001007000003a88002030ef0022
:105e1c000080fa00000006000200fa00704e2a0012
:105e2c0000818800003a80004500de00614060007f
:105e3c00004f780040a7a8001642a8000000000000
:105e4c00b0108000640060000000e000fcff3a002d
:105e5c009e40780061c060000080fb006100600023
:105e6c004500dd00013a80000150a10001007000e6
:105e7c00003a88002030ef000080fa000000060095
:105e8c000400fa0020479800104f2a000081880077
:105e9c00003a80004500de0061406000004f780051
:105eac0040a7a8002e4090000080fb0090108800b6
:105ebc0000000000c1108000000024000080600081
:105ecc000000e000fbff3a009e40780061c06000db
:105edc000080fb00610060004500dd00013a80009d
:105eec000150a10001007000003a88002030ef0042
:105efc00c110800000002800008060000000e0005d
:105f0c0002003200a04f2a00c00307000080fa00f4
:105f1c00000006000400fa0020479800104f2a00e9
:105f2c0000818800003a80004500de00614060007e
:105f3c00004f780040a7a8002e4090000080fb0086
:105f4c009010880000000000c110800000002400a8
:105f5c00008060000000e000fbff3a009e407800eb
:105f6c0061c060000080fb00610060004500dd0046
:105f7c00013a80000150a10001007000003a880035
:105f8c002030ef00c01080004f00de000040780091
:105f9c000080fa00000006000400fa002047980078
:105fac0010512a0000818800003a80004500de0074
:105fbc0061406000004f780040a7a800000000007e
:105fcc00b01080007f0060000000e000fcff3a0091
:105fdc001662a80000000000c01080006200600083
:105fec000000e000fcff32000060fe00801080002a
:105ffc001047980000000000b01080007f00600087
:10600c000000e000fcff3a002e4090006140600070
:10601c000080fb00610060004500dd00b1108000d5
:10602c000150a10001007000b01088001682a80079
:10603c0000000000b0108000700060000000e00064
:10604c00fcff3a009e40780061c060000080fb00bd
:10605c00610060004500dd00013a80000150a100a4
:10606c0001007000003a88002030ef001e409000c4
:10607c000080fa00000006000200fa00004f7800d1
:10608c001147980030ff07001e4078000004a10063
:10609c007bff07001e40900079ff07005eff0700a2
:1060ac000080fa00000006000400fa00004f78009f
:1060bc00114798002247980023ff07001e407800e4
:1060cc000004a1006eff07001e4090006cff07004b
:1060dc002e4090006aff07004fff07000080fa0077
:1060ec00000006000800fa002047980021079800dd
:1060fc003207980014ff07002e4090000004a10006
:10610c005fff07000000eb00000f7800070037006e
:10611c002e0090001040780059ff07002e009000d0
:10612c000000e800200798001e0fe8003e009000d9
:10613c009e007800808f5000f5ff390036ff070075
:10614c000080fa00000006000400fa00004f7800fe
:10615c0011079800fcfe07001e4078000004a00008
:10616c0047ff070010c0b3008bff07009e00900094
:10617c008048780028ff07000080fa000000060025
:10618c000600fa00004f78001107980022079800cb
:10619c00edfe07001e4078000004a00038ff070049
:1061ac000040eb007cff07009e00900080487800c8
:1061bc0010c0b30078ff0700ae0090008048780054
:1061cc0015ff07000080fa00000006000800fa0026
:1061dc00204798002107980032079800dafe070044
:1061ec002e4090000004a00025ff07000000eb00eb
:1061fc00000f7800110037003e0090000000e9000d
:10620c009e0f5000050032000040eb0062ff0700bb
:10621c00ae009000804878000400370010c0b30036
:10622c005dff0700ae009000804878002e009000c3
:10623c000000e800200798001e0fe8003e009000c8
:10624c009e007800808f5000ebff3900f2fe0700b3
:10625c000080fa00000006000400fa00008fbe0067
:10626c001e00be00d00b07001e00be00c409de00dd
:10627c004c0add004401de000201720050808000f7
:10628c0061808000020040008380480050808800bc
:10629c00618088000080fa00000006000400fa000b
:1062ac00004f780011479800224798001e41780053
:1062bc0001002100824878001e419000510021000d
:1062cc00824878002e4190006100210082487800bd
:1062dc000770ef00020007000080fa0000000600c3
:1062ec000000fa000170ef0061002100914078007d
:1062fc0005d0bf00020007000080fa000000060075
:10630c000400fa0020479800314798000040eb0049
:10631c00004f78001e417800be4090002e40900047
:10632c00020007000080fa00000006000400fa00da
:10633c00004f780011479800224798001e409000ab
:10634c00e14f50000300360001d0bf000034a00024
:10635c0001f0b7001e4190004100210082487800f6
:10636c002e4090000004e000060032001e40900019
:10637c00e14f500003003a0001d0bf000024a00000
:10638c0001f0b70040f02500b1052000b2ff070076
:10639c00db00070080622b0011392000aeff0700e4
:1063ac0030c0b30005010700c0d12000410020001f
:1063bc00a9ff070030c0b30000010700c0d12000c6
:1063cc0041002000a4ff070030c0b300fb00070011
:1063dc0020292200010020009fff070020c0b300ed
:1063ec00f600070001d0bf000054a000d100070048
:1063fc0040c0b30002f0b7004c0007000d000700ce
:10640c0020c0b30003f0b70003d0bf000024a000ed
:10641c00c8000700c00007000e0007009100210013
:10642c009140780008d0bf00120007000080fa00ed
:10643c00000006000000fa0010c0b300bd00070009
:10644c0000cf2c001100200083ff07000080fa0011
:10645c00000006000000fa0020c0b300b5000700e1
:10646c0000cf2c00110020007bff07000080fa00f9
:10647c00000006000a00fa00004f9800114f980027
:10648c000e49900081002100824878001e4990003e
:10649c0091002100824878000000eb00000f78008a
:1064ac0000042000100798004001200020079800ed
:1064bc00400520003007980004d0bf009e48900093
:1064cc0080cf50000300360004d0bf000040e9002c
:1064dc00104f98001e4890000080fb000000400008
:1064ec006e007800804078000e48900000c040009c
:1064fc008040780000c8b30000c070008d00070019
:10650c000080fa00000006000000fa0002d0bf0074
:10651c000024a10002f0b70002d0bf000034a0009c
:10652c00840007000080fa00000006000000fa005a
:10653c0002d0bf000024a00002f0b70002d0bf00c0
:10654c000034a0007b0007000080fa000000060069
:10655c000000fa0002d0bf000014a10002f0b70046
:10656c0002d0bf000034a000720007000080fa00c7
:10657c00000006000000fa0002d0bf000014a000ca
:10658c0002f0b70002d0bf000034a0006900070081
:10659c000080fa00000006000000fa0002d0bf00e4
:1065ac000004a10002f0b70002d0bf000034a0002c
:1065bc00600007000080fa00000006000000fa00ee
:1065cc0002d0bf000004a00002f0b70002d0bf0050
:1065dc000034a000570007000080fa0000000600fd
:1065ec000000fa0080c1b300520007000080fa00de
:1065fc00000006000000fa00c0c1b3004d00070007
:10660c000080fa00000006000000fa0003d0bf0072
:10661c000014a00003f0b70003d0bf000024a000ba
:10662c00440007000080fa00000006000000fa0099
:10663c0003d0bf000014a10003f0b70003d0bf00cb
:10664c000024a0003b0007000080fa0000000600b8
:10665c000000fa0003d0bf000004a00003f0b70054
:10666c0003d0bf000024a000320007000080fa0015
:10667c00000006000000fa0003d0bf000004a100d7
:10668c0003f0b70003d0bf000024a00029000700ce
:10669c000080fa00000006000600fa00204798006f
:1066ac00210798002e40900067406000204798001a
:1066bc002e4090000080fb004300dd00004078007d
:1066cc000064a0001b0007000000eb00000f780026
:1066dc00060037001e007800ae00900000804000dd
:1066ec00104078001a0007001e0fe8001e0078000a
:1066fc00e70f5000f7ff34000080fa00000006009e
:10670c000000fa000770ef000040eb0033000700b8
:10671c000080fa00000006000000fa0080c0b30000
:10672c0007f0b7000040eb002c0007000080fa00d7
:10673c00000006000200fa00004f78008040eb00d9
:10674c001e4078000a0007000080fa0000000600d6
:10675c000200fa00004f780011c0b3001e40780010
:10676c0003000700100020000080fa000000060063
:10677c000400fa002047980031479800ae40900082
:10678c0000cfb30000cf60002e4090000080fb00d3
:10679c004400dd00104798003e4090001e40700001
:1067ac00060007009e4090003e40900000c0700024
:1067bc00020007000080fa00000006000200fa0048
:1067cc00004f78001e407800040007001e4078003f
:1067dc000f0007000080fa00000006000400fa0019
:1067ec002047980007d0bf00ae40900000cf70004b
:1067fc00fcfb070000d0bf0048fc07001e407800df
:10680c0046fc07002bfc07000080fa000000060085
:10681c000200fa00004f78001e4078000024a0000f
:10682c00eeff0700b0032000010020008afe0700e5
:10683c001e4078000024a100e8ff070060b820008b
:10684c000100200084fe07000080fa000000060012
:10685c000000fa0047ff07000080fa000000060065
:10686c000000fa003aff07000080fa000000060062
:10687c000000fa0051ff07000080fa00000006003b
:10688c000000fa0044ff07000080fa000000060038
:10689c000400fa00004f7800110798009e00900049
:1068ac001e4078007cff07000080fa000000060004
:1068bc000200fa00004f78001e4078000004e0004f
:1068cc000200320094ff0700010037008cff070024
:1068dc000080fa00000006000200fa00004f780069
:1068ec001e407800ea4f5000030032001e40780032
:1068fc00ed4f500009003a000870ef0009d0bf00be
:10690c000040e80009f0b70009d0bf00e44f500088
:10691c0012003a000970ef00100037001e4078009a
:10692c008bff070008d0bf000040e80008f0b7005c
:10693c0008d0bf00f44f500008003a000870ef0078
:10694c0009d0bf000040e80009f0b70009d0bf0033
:10695c00e44f500001003a000970ef009100210053
:10696c009140780008d0bf00c2fe0700d018290063
:10697c004100200038fe07000080fa0000000600ed
:10698c000200fa00004f78001e4078002d0007002e
:10699c000080fa00000006000400fa0010079800be
:1069ac001e0090004800de00004f78001e4078006a
:1069bc00240007001e009000004f78001e40780055
:1069cc00200007000080fa00000006000600fa0014
:1069dc0010079800210798001e009000ae00900050
:1069ec004808de00004f78001e40780015000700b4
:1069fc001e009000ae0090004008de00004f7800b2
:106a0c001e4078000f0007001e009000ae009000a2
:106a1c004809dd004800de0000007100c808de00f7
:106a2c00004f78001e407800060007001e00900002
:106a3c00004f78001e407800020007000080fa002a
:106a4c00000006000400fa00204798002e40900039
:106a5c000080fb004400de00004f78001e407800f0
:106a6c00e94f50000400360071c3b3001ec0400053
:106a7c0099ff07000300370001c3b3001ec040009c
:106a8c0095ff07002e4090006f4f60001e4078006d
:106a9c00e94f50000400360071c3b3001ec0400023
:106aac008dff07000300370001c3b3001ec0400078
:106abc0089ff07000080fa00000006000200fa00bf
:106acc00000f78001e007800020007000080fa001a
:106adc00000006000200fa00000f78001e0078008b
:106aec000000e00002003a000000eb000500370057
:106afc001e0078000cf10700800078001e00780062
:106b0c000a0007000080fa00000006000400fa00ea
:106b1c00000f7800110798001e0078009e0090006e
:106b2c00020007000080fa00000006000800fa00ce
:106b3c0020079800310798000000eb00000f780048
:106b4c00090037002e0090009040780021479800f3
:106b5c002e0090000000e800200798002e409000c6
:106b6c005dff07001e0fe8003e00900000f0a7003c
:106b7c000000ea000000ea004f00de000040780050
:106b8c00be0090008100e900310798000004e0008d
:106b9c00ecff3a001e0078000080fa0000000600ae
:106bac000600fa0010079800414798000040eb00df
:106bbc00004f78000b0037001e80fb009e009000f9
:106bcc0000804000104078006dff070008d0bf0027
:106bdc000004e0000200320000c2b3003eff0700d8
:106bec001e4fe8004e4090009e40780080cf500031
:106bfc00f1ff39000080fa00000006000000fa00e6
:106c0c000080fa00000006000000fa000080fa0084
:106c1c00000006000400fa00000f7800110798002d
:106c2c000080fa00000006000000fa000040eb00b3
:106c3c000080fa00000006000000fa000040eb00a3
:106c4c000080fa00000006000200fa00004f7800f5
:106c5c000040eb000080fa00000006000400fa007f
:106c6c00004f78001147980022479800334798004e
:106c7c000080fa00000006000400fa00004f7800c3
:106c8c001147980022479800334798000080fa007b
:106c9c00000006000200fa00004f78000080fa00a5
:106cac00000006000000fa00d90607000080fa0078
:106cbc00000006000400fa00004f7800110798004d
:106ccc001e4078000004e00002003a001e00900014
:106cdc004e0007000080fa00000006000000fa00d9
:106cec0011eea90017eea9001beea9001deea900dc
:106cfc0017eea800a03122009100200070808800bf
:106d0c00818088000a30ef000c30ef0015eea900ee
:106d1c00020007000080fa00000006000000fa00e4
:106d2c00508080006180800061004000e08048005d
:106d3c0050808800618088005280800063808000d1
:106d4c007080800081808000800f5100818f5900fd
:106d5c0003003600040007000a30ef000c30ef008f
:106d6c000080fa00000006000000fa00a07080000d
:106d7c000080ea004f00de00004078000080fb003d
:106d8c004f00dd00a2708000f1ff27008100610040
:106d9c0001007000a07088000080fa00000006005e
:106dac003600f800809fbe00829fbe00849fbe000c
:106dbc00869fbe003200f8003400f800100020005e
:106dcc00a001880000202000900188000000000035
:106ddc000000fa00200221004146800001087800e2
:106dec00607a2900090007000080fa003400f900dd
:106dfc003200f9004f03be004f02be004f01be002f
:106e0c004f00be003600f900004006000200fa00f8
:106e1c00000f7800f08080000000e00003003a00d2
:106e2c009e007800f18088000000fe000080fa00cf
:106e3c00000006000600fa001007980021079800d1
:106e4c009e009000010f78001e009000ae00900094
:106e5c004008de0000007800a00288001e007800c8
:106e6c001080ba008000eb00c001dd0002002000a1
:106e7c001e0078001000ba008000eb0000007100ca
:106e8c00818071000080fa00000006000e00fa00fc
:106e9c0000002000f10f2000e6ff070030079800eb
:106eac004107980020002000f10f2000e1ff0700af
:106ebc00500798006107980010c0b300004f78008d
:106ecc00c07b290010079800c07b29002007980080
:106edc003e019000ce019000d0e421000100200082
:106eec00800f5100818f590003003a00407c29002b
:106efc0010079800020037000040eb00004f7800ac
:106f0c005e019000ee019000300024000100200092
:106f1c00800f5100818f590003003a00607d2900d9
:106f2c002007980000000000907d2900fd0207005a
:106f3c003e009000ce0090007f030700607e290089
:106f4c00f80207001e009000f6020700907e290050
:106f5c00f40207005e009000ee009000760307003c
:106f6c00607e2900ef0207002e009000ed02070062
:106f7c00607f2900eb0207001e4078000004e0004f
:106f8c0002003a00907f2900e60207000080fa0018
:106f9c00000006000000fa00103a80004c00de00f1
:106fac00674060000080fb00e30f50001b003200c4
:106fbc00e30f500007003c00e10f500011003200bd
:106fcc00e10f500012003c000000e0000a0032000b
:106fdc0021003700e50f500016003200e50f50007d
:106fec0011003500e60f500015003200e70f50007d
:106ffc00160032001800370000a92900c90207004a
:10700c0018003700d0a92900c60207001500370068
:10701c0030ab2900c302070012003700d0ac2900a6
:10702c00c00207000f00370000af2900bd020700a7
:10703c000c003700f0af2900ba0207000900370036
:10704c0010b12900b70207000600370010b2290062
:10705c00b40207000300370000b329006bff0700e0
:10706c00000000000080fa00000006000200fa0098
:10707c000040eb00004f7800003a80006800600090
:10708c000000e0000300320090b42900a5020700c4
:10709c004067a900003a8000640060000000e00036
:1070ac000300320090b629009e0207004047a90059
:1070bc0080b829009b020700003a80006100600044
:1070cc000000e0000c00320010c0b300004f78004c
:1070dc0070b92900930207004007a9004027a900b6
:1070ec001e30ef002030ef00200221008000eb006a
:1070fc00010878004d003700013a800000042000a0
:10710c00008060000000e0000600320020ba290078
:10711c008402070010c0b300004f780040c7a900dc
:10712c0040e7a900003a8000700060000000e00019
:10713c000d00320010c0b300004f780030bb2900a6
:10714c0078020700008180000000e000020032009d
:10715c00008180007302070060bc290071020700e7
:10716c004087a90040e7a900013a800000082000f0
:10717c00008060000000e0000500320010c0b30089
:10718c00004f780080bc29006602070040e7a90088
:10719c00003a8000620060000000e0000500320050
:1071ac0010c0b300004f780090bd29005d020700ad
:1071bc004027a900013a80000000280000806000f0
:1071cc000000e0000500320010c0b300004f780052
:1071dc0050be29005302070041e7a900013a800084
:1071ec0000002400008060000000e0000500320078
:1071fc0010c0b300004f780050bf290049020700af
:10720c0041c7a900013a80000020200000806000e6
:10721c000000e0000500320010c0b300004f780001
:10722c0090c029003f0207004127a9001e407800aa
:10723c000004e00002003a0020c2290039020700d5
:10724c00f08080000000e0001800320020c329000c
:10725c0034020700f0808000320207002002210077
:10726c00100078000000e0000a00320020c4290061
:10727c002c020700108180004800de006f40600087
:10728c0096020700d0c429002602070022d0bf00b6
:10729c0092020700f0c52900220207001e30ef0001
:1072ac00200221008000eb0001087800f7fe0700a7
:1072bc0038ff07000080fa00000006000200fa0008
:1072cc00000f780085fe070076fe070000402800be
:1072dc00310020006e03070064ff07001e007800d9
:1072ec00100207000080fa00000006000800fa00f7
:1072fc00881f780020079800310798002e00900016
:10730c00be009000eaed0700008fbe001e00be001c
:10731c0002ee07000001be002e009000be0090009f
:10732c0032ed070018c0b3000200200003f0230068
:10733c00dded07000000e000010035000044eb002b
:10734c000804e000020032001e00be0004003700fa
:10735c0012002000030020003e004100ae804900d6
:10736c004f0478000080fa00000006000600fa00c6
:10737c00881f780010079800210798001e009000c5
:10738c00ae009000caed0700000f78001e007800d8
:10739c008000eb00e1ed07000001be001e00900034
:1073ac00ae00900011ed070018c0b30002002000e1
:1073bc0003f02300bced07000000e00001003500e5
:1073cc000044eb000804e000020032001e007800cc
:1073dc00010037001e00e8004f0478000080fa001e
:1073ec00000006000e00fa00889fbe0020079800df
:1073fc0031079800420798005407980065079800d9
:10740c0010c0b300ce009000e18f50000100360098
:10741c000040eb0021c6290026fe07004e0090001c
:10742c000000e00012003a002e009000be00900018
:10743c00baed07000004be005e009000ee00900064
:10744c00b6ed07000001be000800be0045ed0700c8
:10745c00020020000318240042ed07000200200067
:10746c0003f82300e1ec0700008fbe001100370089
:10747c002e009000be009000a8ed07000004be0096
:10748c005e009000ee009000a4ed07000001be002d
:10749c000800be0033ed07000200200003082400a2
:1074ac0030ed07000200200003f82300cfec0700aa
:1074bc00008fbe0018c0b30002f82f00f377240031
:1074cc001e00be0078ed07000000e0000100350052
:1074dc000044eb00f1ca290008407800f5fd0700d4
:1074ec001e00be00a1ff07004f04be000080fa0082
:1074fc00000006000400fa00004f78001107980005
:10750c001e4078000004e00002003a001e009000cb
:10751c003efe07000080fa00000006000400fa009e
:10752c00008fbe001e00be001f0707001e00be001d
:10753c00c409de004c0add004401de0002017200c9
:10754c0050808000618080000200400083804800f1
:10755c0050808800618088000080fa0000000600de
:10756c000200fa0010118000680060000000e000ca
:10757c000400320030118000004f780040ef2900e9
:10758c0022fe070010118000640060000000e00083
:10759c000400320030118000004f780080f0290088
:1075ac001afe070010118000620060000000e0006d
:1075bc00030032002222a900d0f1290013fe07009b
:1075cc000080fa00000006000200fa00004f78006c
:1075dc0001003700d1fd07001111800000202000b0
:1075ec00008060000000e000faff3a001e80fb0003
:1075fc00201188000080fa00000006000000fa004c
:10760c001011800000407800614060000080fa009a
:10761c00000006000000fa0001003700bffd070063
:10762c0010118000610060000000e000fbff3200e0
:10763c00cbff070030118000004078000080fa007a
:10764c00000006000800fa00881f78002007980048
:10765c0031079800114ea800174ea9001b4ea90027
:10766c001d4ea9002136800000f82f00808060009c
:10767c00a00220000100700020368800116ea900c5
:10768c00176ea9001b6ea9001d6ea9004134800065
:10769c00f00f2c00008060000080a00040348800b7
:1076ac002022ef002e009000be0090001bed070082
:1076bc000001be0080dc260041c62400a9ec0700b6
:1076cc000200200003182400a6ec07000200200092
:1076dc0003f8230045ec0700008fbe0018c0b30070
:1076ec0002f82f00f37724001e00be00eeec07001a
:1076fc000000e000010035000044eb0021f32900fc
:10770c00084078007bff07001e00be0017ff070033
:10771c004011880000002800001188000040200063
:10772c001011880014c0b3002e019000be0190000f
:10773c00703e200001002000800f5100818f590005
:10774c0001003e000042eb0091f729000440780054
:10775c0068ff0700909e2e00010020006fff0700bd
:10776c002222a90001003700301180001011800086
:10777c00680060000000e000fbff3a001011800080
:10778c00640060000000e000f7ff3a004f0478004e
:10779c000080fa00000006000200fa009011800040
:1077ac00680060000000e00004003200b0118000ae
:1077bc00004f780060fc290094fd070090118000b8
:1077cc00640060000000e00004003200b011800092
:1077dc00004f7800a0fd29008cfd0700901180005f
:1077ec00620060000000e000030032003222a900b9
:1077fc00f0fe290085fd07000080fa00000006005d
:10780c000200fa00004f78000100370043fd07002a
:10781c009111800000202000008060000000e0003a
:10782c00faff3a001e80fb00a01188000080fa00cd
:10783c00000006000000fa00b1808000c0808000cb
:10784c000080680000f0a7000000ea000000ea00d9
:10785c004f00de00004078000080fa0000000600b7
:10786c000000fa00010037002cfd0700b1808000f9
:10787c00c0808000808f5000fbff3200c0808000f1
:10788c000000e800c0808800c1808000001020004b
:10789c00808f500001003a001830ef00c08080004b
:1078ac004102210000804000104078000080fa0066
:1078bc00000006003600f800809fbe00829fbe00cc
:1078cc00849fbe00869fbe003200f8003400f80092
:1078dc0010002000a00188000020200090018800ea
:1078ec00000000000200fa0003c8a900aaff07006c
:1078fc00b0118000004f7800b08080000000e800dc
:10790c00b0808800b180800000102000808f500073
:10791c0001003a001630ef00b1808000c08080007a
:10792c00808f500002003a0040002a0037fd07000b
