:020000040000fa
:080000000013040000000000e1
:020000040000fa
:1000080002100000061000000a1000000e10000088
:1000180012100000161000001a1000001e10000038
:1000280022100000261000002a1000002e100000e8
:1000380032100000361000003a1000003e10000098
:1000480042100000461000004a1000004e10000048
:1000580052100000561000005a1000005e100000f8
:1000680062100000661000006a1000006e100000a8
:1000780072100000761000007a1000007e10000058
:1000880082100000861000008a1000008e10000008
:1000980092100000961000009a1000009e100000b8
:1000a800a2100000a6100000aa100000ae10000068
:1000b800b2100000b6100000ba100000be10000018
:1000c800c2100000c6100000ca100000ce100000c8
:1000d800d2100000d6100000da100000de10000078
:1000e800e2100000e6100000ea100000ee10000028
:1000f800f2100000f6100000fa100000fe100000d8
:1001080002110000061100000a1100000e11000083
:1001180012110000161100001a1100001e11000033
:1001280022110000261100002a1100002e110000e3
:1001380032110000361100003a1100003e11000093
:1001480042110000461100004a1100004e11000043
:1001580052110000561100005a1100005e110000f3
:1001680062110000661100006a1100006e110000a3
:1001780072110000761100007a1100007e11000053
:1001880082110000861100008a1100008e11000003
:1001980092110000961100009a1100009e110000b3
:1001a800a2110000a6110000aa110000ae11000063
:1001b800b2110000b6110000ba110000be11000013
:1001c800c2110000c6110000ca110000ce110000c3
:1001d800d2110000d6110000da110000de11000073
:1001e800e2110000e6110000ea110000ee11000023
:1001f800f2110000f6110000fa110000fe110000d3
:1002080002120000061200000a1200000e1200007e
:1002180012120000161200001a1200001e1200002e
:1002280022120000261200002a1200002e120000de
:1002380032120000361200003a1200003e1200008e
:1002480042120000461200004a1200004e1200003e
:1002580052120000561200005a1200005e120000ee
:1002680062120000661200006a1200006e1200009e
:0c02780072120000761200007a120000e2
:020000040000fa
:10200000020000008e290400000000008e29040058
:10201000000000008e290400000000008e2904004a
:10202000000000008e290400000000008e2904003a
:10203000000000008e290400000000008e2904002a
:10204000000000008e290400000000008e2904001a
:10205000000000008e290400000000008e2904000a
:10206000000000008e290400000000008e290400fa
:10207000000000008e290400000000008e290400ea
:10208000000000008e290400000000008e290400da
:10209000000000008e290400000000008e290400ca
:1020a000000000008e290400000000008e290400ba
:1020b000000000008e290400000000008e290400aa
:1020c000000000008e290400000000008e2904009a
:1020d000000000008e290400000000008e2904008a
:1020e000000000008e290400000000008e2904007a
:1020f000000000008e290400000000008e2904006a
:10210000000000008e290400000000008e29040059
:10211000000000008e290400000000008e29040049
:10212000000000008e290400000000008e29040039
:1021300000000000182f0400000000008e29040099
:10214000000000008e290400000000008e29040019
:10215000000000008e290400000000008e29040009
:10216000000000008e290400000000008e290400f9
:10217000000000008e290400000000008e290400e9
:10218000000000008e290400000000008e290400d9
:10219000000000008e290400000000008e290400c9
:1021a000000000008e290400000000008e290400b9
:1021b000000000008e290400000000008e290400a9
:1021c000000000008e290400000000008e29040099
:1021d000000000008e290400000000008e29040089
:1021e000000000008e290400000000008e29040079
:1021f000000000008e290400000000008e29040069
:10220000000000008e290400000000008e29040058
:10221000000000008e290400000000008e29040048
:10222000000000008e290400000000008e29040038
:10223000000000008e290400000000008e29040028
:10224000000000008e290400000000008e29040018
:10225000000000008e290400000000008e29040008
:10226000000000008e290400000000008e290400f8
:10227000000000008e290400000000008e290400e8
:10228000000000008e290400000000008e290400d8
:10229000000000008e290400000000008e290400c8
:1022a000000000008e290400000000008e290400b8
:1022b000000000008e290400000000008e290400a8
:1022c000000000008e290400000000008e29040098
:1022d000000000008e290400000000008e29040088
:1022e000000000008e290400000000008e29040078
:1022f000000000008e290400000000008e29040068
:10230000000000008e290400000000008e29040057
:10231000000000008e290400000000008e29040047
:10232000000000008e290400000000008e29040037
:10233000000000008e290400000000008e29040027
:10234000000000008e290400000000008e29040017
:10235000000000008e290400000000008e29040007
:10236000000000008e290400000000008e290400f7
:10237000000000008e290400000000008e290400e7
:10238000000000008e290400000000008e290400d7
:10239000000000008e290400000000008e290400c7
:1023a000000000008e290400000000008e290400b7
:1023b000000000008e290400000000008e290400a7
:1023c000000000008e290400000000008e29040097
:1023d000000000008e290400000000008e29040087
:1023e000000000008e290400000000008e29040077
:1023f000000000008e290400000000008e29040067
:10240000000000008e290400000000008e29040056
:10241000000000008e290400000000008e29040046
:10242000000000008e290400000000008e29040036
:10243000000000008e290400000000008e29040026
:10244000000000008e290400000000008e29040016
:10245000000000008e290400000000008e29040006
:10246000000000008e290400000000008e290400f6
:10247000000000008e290400000000008e290400e6
:10248000000000008e290400000000008e290400d6
:10249000000000008e290400000000008e290400c6
:1024a000000000008e290400000000008e290400b6
:1024b000000000008e290400000000008e290400a6
:1024c000000000008e290400000000008e29040096
:1024d000000000008e290400000000008e29040086
:1024e000000000008e290400000000008e29040076
:0c24f000000000008e2904000000000025
:020000040000fa
:10260000af1621000eff24000e018800000000001c
:10261000000020000000e000020032000001200065
:102620002002880014000700720007000000e0008c
:1026300003003a00806323000100200002003700fd
:102640000000200001002000810f70000100320016
:102650000f000700000020000000e0000200320030
:1026600000000200000000005635020000000000db
:102670000040da000000fe0000c020000000e00082
:1026800002003200002020009001880000000600b7
:10269000a1028800800478000000eb001f003700d2
:1026a000e284440054a0b4009905ba00e2844400d6
:1026b00054a0b4009906ba00e284440054a0b400c7
:1026c0000006eb00476fde00fd07b200ae01880098
:1026d000636ce10003003a000ad801000000eb003f
:1026e0000e003700606ce10008003a00004deb007e
:1026f0000a05e800020039003420ec000af0a000ce
:102700008b05e900f9ff3e00040037006168e10035
:10271000010032000086eb000b00070019c7ba0069
:102720001905ba000e04e00003003a000a00e000b8
:10273000dbff3a0000000600fe07b200ae02880090
:102740008a047800f5ff37000cd0a300e20f4d009b
:102750001c00390089027800354dba000a05e800ee
:10276000020039003420ec000af0a0008b05e900db
:102770000f003200254dba000a05e80002003900ba
:102780003420ec000af0a0008b05e90008003200bc
:102790000c00e0000600320015cdba000a05e80082
:1027a000020039003420ec000af0a0008b05e9009b
:1027b0008984e80054a0b4000b00e000e2ff3a0076
:1027c000000006009902ba00055d78008b05e9005b
:1027d000f7ff3200c82ade00055d78008b05e900ae
:1027e000f3ff32000c00e000f1ff320019ddba0007
:1027f000eeff37000000050003f0a200889fbe0036
:102800008a9fbe008c1f7800f5000700fc00330093
:102810006450e1004f0032006420e10052003200b9
:1028200003826c0007003b000905d0000306d000be
:10283000820f54000c065d000200390002003200d5
:1028400089017800030678008582550004003d0068
:102850000003fd008103fd008502ea008b85420034
:10286000840f720002003b0060001000e08018003e
:102870006011b8000005eb007a28e1000a00390079
:1028800006007800c75ddd00f707b200878075009d
:102890002d003700828171000a0178006105600017
:1028a0008180d1000080d3008502e900f9ff3b0060
:1028b000060440008784480002003b0060041400c6
:1028c000e0841c000988a300070032008a8171009f
:1028d00082817100610164008904d1000884d30001
:1028e0008b05e800170037000978a30013003a00b1
:1028f0000b00e000130034008b05e90008044400dd
:1029000089844c000a4474000978a3000d003a0041
:102910000b00e000070034008b05e90008044400c8
:1029200089844c0001003a000b0020000978a300c4
:10293000f7ff32000001eb000200370082817100d6
:102940000a0178006b0007000cf0a70001f0a0005e
:10295000b40037006420e10002003a00838f6c006d
:10296000b40033000801be000200be00ad00370015
:10297000889fbe008a9fbe008c1f780098000700c9
:102980009f00330003866c006450e1002e0032008b
:102990006420e100330032006150e1002f0032007a
:1029a0006120e1003100320085855500eb07b00061
:1029b0000900200008042000050037000804440036
:1029c00089844c000a0031000603430087834b00d2
:1029d0000001530081815b00f8ff33000203be0059
:1029e0000800a0000804440089844c00f6ff390068
:1029f000c639dd008301730001003200130020009e
:102a00008904d1000884d3000998a300050032008e
:102a10000800a7000300a0008904d1000884d300a7
:102a20008b05e8008904d1000884d3000001eb0085
:102a30000281d2002f00070001f0a1000cf0a700d6
:102a400001f0a000770037006420e1007900320037
:102a50000801be000200be00f7ff37006120e10060
:102a6000740032006000b800f3ff3700000020005f
:102a700001f82700f0ff3700140020007000370035
:102a80000001be00410007000470a70003f0a10090
:102a900003f8a30013003a006509b10010003200ea
:102aa000090035006928e100020035000100280016
:102ab0000000050000004000818048008502e90018
:102ac000fcff3a0000000600f88f420005003500c8
:102ad0008100d1000080d3008502e800fcff3a00ad
:102ae000000006008000eb00000005006011b80047
:102af0006e00370081002000618055000b003d0012
:102b00000b00200061fe2f000100e1001d003400d9
:102b100082817100610164008904d1000884d300be
:102b20000000e800faff3a00710020006100640034
:102b300003007000020060000900320061044400dc
:102b4000e0844c000988a500050032008b05e800f0
:102b50006808e10002003a008904d1000884d3002b
:102b6000f20f20000258e10005003d00c75ddd00c6
:102b7000f907b2008980750008007800000006009f
:102b80000bf827008b00780000000500c70ade0064
:102b9000f107b200f50fb20008003200e1cf4200a9
:102ba000020032000170a00024000500810f7000b7
:102bb000010032000408050044000500810f700088
:102bc00002003a00140005008502e9000000400000
:102bd00081c04800fcff3b000170a00024000500fc
:102be0000004be00e9ff07000003be000405be00ac
:102bf0000200be00e5ff0700844f750000000600dc
:102c00000200be006450e100050036006420e100cf
:102c1000020036000968a30001003a000800be0067
:102c20000160a0004f0678004f05be004f04be00b3
:102c300000000600f0ff2f00f1ff2700f9ff37002a
:102c4000889fbe008a9fbe00841f7800e4ff0700b3
:102c50004f00780011003300f0ff2f00838f6c00cd
:102c600006003b00040565000a00a70008003700c5
:102c700009f0a6001000200008003700820f540061
:102c8000838f5c00030039001000200001003e002b
:102c90000000200009f0a7000000ea004f05be0078
:102ca0004f04be000000e00000000600889fbe0048
:102cb0008a9fbe00008270000402710004827100cd
:102cc000260032000004be000200be006011b80001
:102cd0006b092000950220000182cf000a00390014
:102ce0000541b1000082cf00070039000541b10065
:102cf0000982cf00040039000541b1000882cf00ed
:102d0000010039000541b1000542520012003200b5
:102d10000a003b0082817100610164008100d100e2
:102d20000080d3008984d3000884d3008b05e80099
:102d30000442e800f7ff3a000700370008044400a7
:102d400089844c0000004800818048008b05e90020
:102d50000442e900f9ff3a0066ff07004f05be0094
:102d60004f04be0000000600090037003042780022
:102d7000b1417800834f520004003200100020005f
:102d8000060031000080eb00000006000201e900af
:102d90000200e000f5ff3a000000eb000000060032
:102da0008001780002003700b15978000201e90083
:0c2db0000200e000fcff3a0000000600fa
:020000040000fa
:102dbc00556e0000686100006e6400006c650000d8
:102dcc0064200000696e00007465000072720000df
:102ddc0075700000742c000020000000756e00005f
:102dec006b6e00006f7700006e00000064730000d3
:102dfc0050490000433300003345000050310000bf
:102e0c00323800004750000035300000320000001e
:102e1c004133000000440000657600006963000047
:102e2c006520000049440000203d00002000000007
:102e3c0020280000002900002c20000072650000f2
:102e4c0076690000736900006f6e000020000000be
:102e5c00290a0000000a00000a2a00002a2a0000a1
:102e6c002a2a00002a2a00002a2a00002a2a000006
:102e7c002a2a00002a2a00002a2a00002a2a0000f6
:102e8c002a2a00002a2a00002a2a00002a2a0000e6
:102e9c002a2a00002a2a00002a2a00002a2a0000d6
:102eac002a2a00002a2a00002a2a00002a2a0000c6
:102ebc002a2a00002a2a00002a2a00002a2a0000b6
:102ecc002a2a00002a0a00002a200000574100008c
:102edc00524e0000494e0000472000002d200000fb
:102eec00746800006973000020700000726f0000ad
:102efc0067720000616d00002077000061730000b4
:102f0c00206300006f6d0000706900006c650000ac
:102f1c0064200000666f00007220000074680000de
:102f2c0065200000777200006f6e000067200000c3
:102f3c00202a00000a2a00002063000068690000b3
:102f4c00702e0000205400006869000073200000ff
:102f5c00707200006f670000726100006d2000004d
:102f6c006d61000079200000707200006f64000039
:102f7c007563000065200000756e00006578000028
:102f8c00706500006374000065640000206200003e
:102f9c0065680000766900006f7200002120000057
:102fac002a0a00002a200000456400006974000011
:102fbc002074000068650000206800006561000056
:102fcc006465000072200000666900006c650000fa
:102fdc0073200000746f000020700000726f0000fe
:102fec0070650000726c00007920000064650000c0
:102ffc00666900006e6500002074000068690000be
:10300c00732000006368000069700000202a000033
:10301c000a2a0000206100006e6400002074000089
:10302c006f200000696e000073750000726500006f
:10303c00206300006f720000726500006374000072
:10304c00206f000070650000726100007469000060
:10305c006f6e00002e2000002020000020200000b9
:10306c002020000020200000202000002020000054
:10307c002020000020200000202000002a0a000050
:10308c002a2000002020000020200000202000002a
:10309c002020000020200000202000002020000024
:1030ac002020000020200000202000002020000014
:1030bc002020000020200000202000002020000004
:1030cc0020200000202000002020000020200000f4
:1030dc0020200000202000002020000020200000e4
:1030ec002020000020200000202a00000a2a0000d6
:1030fc00204e00004f540000453a000020490000cb
:10310c0066200000746800006973000020770000de
:10311c0061730000206300006f6d00007069000097
:10312c006c65000064200000666f000072200000d7
:10313c007468000065200000636f0000727200006c
:10314c006563000074200000636800006970000073
:10315c002c200000202000002a0a00002a20000059
:10316c00616e0000642000006f6e00006c7900003e
:10317c00206f000063630000757200007320000074
:10318c0061740000207000006f7700006572000011
:10319c002d6f00006e200000286e00006f74000080
:1031ac002064000075720000696e0000672000004a
:1031bc00612000004d4300004c5200002020000014
:1031cc0020200000202a00000a2a000020720000a3
:1031dc006573000065740000292c00002076000047
:1031ec0065720000696600007920000074680000b8
:1031fc00617400002041000056440000442000008f
:10320c00616e000064200000415600005353000022
:10321c002061000072650000206300006f6e0000ea
:10322c006e65000063740000656400002e200000d1
:10323c00202000002a0a00002a2000004f6e000007
:10324c002074000068650000205000004943000015
:10325c003234000048330000324700005032000086
:10326c00303200002c2000006e6f00007420000033
:10327c00636f00006e6e00006563000074690000ef
:10328c006e670000204100005644000044200000fe
:10329c002020000020200000202000002020000022
:1032ac00202a00000a2a000020700000726f000023
:1032bc0064750000636500007320000074680000f2
:1032cc0069730000206d00006573000073610000dd
:1032dc0067650000206f00006e6c00007920000014
:1032ec0061740000207000006f77000065720000b0
:1032fc002d750000702e0000202000002020000002
:10330c0020200000202000002020000020200000b1
:10331c002a0a00002a2a00002a2a00002a2a000071
:10332c002a2a00002a2a00002a2a00002a2a000041
:10333c002a2a00002a2a00002a2a00002a2a000031
:10334c002a2a00002a2a00002a2a00002a2a000021
:10335c002a2a00002a2a00002a2a00002a2a000011
:10336c002a2a00002a2a00002a2a00002a2a000001
:10337c002a2a00002a2a00002a2a00002a2a0000f1
:10338c000a00000046610000737400002052000027
:10339c00432000004f730000630a00000046000049
:1033ac00617300007420000052430000204f0000a5
:1033bc00736300002077000069740000682000002f
:1033cc00504c00004c0a00000050000072690000d4
:1033dc006d61000072790000204f000073630000e3
:1033ec0020280000585400002c20000048530000f6
:1033fc002c20000045430000290a0000005000006a
:10340c00726900006d61000072790000204f0000ad
:10341c007363000020280000585400002c2000008a
:10342c00485300002c2000004543000029200000d8
:10343c007769000074680000205000004c4c0000bc
:10344c000a00000053650000636f00006e6400000a
:10345c0061720000792000004f730000630a0000c5
:10346c00004c00006f770000205000006f770000c8
:10347c006572000020520000432000004f730000d2
:10348c00630a000000460000617300007420000015
:10349c0052430000204f0000736300002f310000e6
:1034ac00360a000000460000617300007420000022
:1034bc0052430000204f0000736300002f4e0000a9
:1034cc000a000000556e00006b6e00006f77000064
:1034dc006e2000006f730000636900006c6c0000cc
:1034ec00617400006f72000020740000797000009d
:1034fc00652e0000000a000044650000766900009b
:10350c006365000020680000617300002062000009
:10351c00656500006e200000696e000020730000dd
:10352c006c65000065700000206d00006f64000089
:10353c00650a0000000a000044650000766900007e
:10354c0063650000206800006173000020620000c9
:10355c00656500006e200000696e000020690000a7
:10356c00646c0000652000006d6f00006465000055
:10357c000a0000000a520000657300006574000028
:10358c002063000061750000736500003a200000a4
:10359c00005000006f770000657200002d6f000076
:1035ac006e2e00000a000000536f000066740000cd
:1035bc007761000072650000205200006573000006
:1035cc00657400002e0a00000057000061740000b2
:1035dc0063680000646f00006720000054690000fd
:1035ec006d6500006f750000743a0000200000004b
:1035fc000a0000004d4300004c5200002061000006
:10360c007373000065720000746900006f6e000037
:10361c002e0a000000420000726f0000776e00005e
:10362c002d6f0000757400002e0a0000005400007d
:10363c007261000070200000436f00006e66000095
:10364c006c690000637400002e0a00000049000041
:10365c006c6c000065670000616c0000204300008a
:10366c006f6e000064690000746900006f6e0000ea
:10367c002e0a0000004300006f6e00006669000017
:10368c006775000072610000746900006f6e0000c5
:10369c00204d0000697300006d6100007463000030
:1036ac00682e00000a000000556e00006b6e0000d2
:1036bc006f7700006e2000007265000073650000db
:1036cc00742e00000a00000045720000726f0000aa
:1036dc0072200000747200006170000070650000c0
:1036ec00643a00002000000050720000696f000076
:1036fc0072690000747900003a200000002c000070
:10370c002056000065630000746f000072200000fa
:10371c006e7500006d620000657200003a200000ba
:10372c00000a00000a00000045720000726f0000e1
:10373c0072200000696e0000202e00002e2f000069
:10374c002e2e00002f6c0000696200002f73000009
:10375c00726300002f7000006963000032340000b7
:10376c005f750000746900006c2e0000632000007f
:10377c006c6900006e6500002034000036390000d2
:10378c003a20000041530000534500005254000001
:10379c0028750000313600005f620000726700007f
:1037ac00682000003c3d0000203100002920000072
:1037bc0066610000696c0000656400002e0a000060
:1037cc0000450000727200006f720000206900005a
:1037dc006e2000002e2e00002f2e00002e2f000039
:1037ec006c690000622f000073720000632f0000f0
:1037fc007069000063320000345f000075740000d3
:10380c00696c00002e630000206c0000696e0000e3
:10381c006520000034370000353a000020410000dc
:10382c00535300004552000054280000665f00000e
:10383c0062720000672000003c200000363500005a
:10384c0035330000352e00003529000020660000bd
:10385c00616900006c650000642e00000a00000025
:10386c000a2e00002e2f00006e660000635f000021
:10387c0075610000727400002e6300002c200000a3
:10388c0062750000696c0000742000006f6e00000f
:10389c002041000070720000203200003720000030
:1038ac00323000003137000020610000742000002d
:1038bc00313800003a330000343a0000353500004e
:1038cc000a000000466f0000756e000064200000c6
:1038dc00616e000020490000534f0000313400009d
:1038ec00343400003341000020630000617200009a
:1038fc00640a00000020000020550000494400002c
:10390c00204c0000656e000067740000683a0000ef
:10391c00002000006279000074650000730a00004a
:10392c0000200000205500004944000020560000f3
:10393c00616c0000756500003a00000053650000e2
:10394c00656d000073200000746f000020620000a1
:10395c0065200000612000004d69000066610000d8
:10396c0072650000204300006c610000737300005e
:10397c006963000020630000617200006420000095
:10398c0028340000206200007974000065200000db
:10399c0055490000442900000a0000005472000040
:1039ac00796900006e670000207400006f20000031
:1039bc006175000074680000656e00007469000099
:1039cc006361000074650000206200006c6f0000f1
:1039dc00636b000020340000207700006974000045
:1039ec00682000006465000066610000756c0000d2
:1039fc00742000004b450000594100002076000067
:103a0c00616c0000756500000a0000000a5300009c
:103a1c0065630000746f000072200000312000000c
:103a2c00284200006c6f0000636b000073200000e4
:103a3c00342e00002e3700002920000068610000a1
:103a4c007320000062650000656e000020610000bc
:103a5c0075740000686500006e74000069630000f6
:103a6c0061740000656400000a0000000a52000046
:103a7c0065610000646900006e6700002042000070
:103a8c006c6f0000636b0000203400003a0a0000e9
:103a9c000a0000004f6f00006f70000073200000e0
:103aac002e2e00002e200000756e000061620000ba
:103abc006c650000207400006f200000726500002f
:103acc006164000020740000686500002072000032
:103adc00657100007565000073740000656400007a
:103aec00206200006c6f0000636b00002e20000051
:103afc002054000072790000206100006e6f0000fd
:103b0c007468000065720000206b0000657900008d
:103b1c003f0a0000004f00006f6f00007073000040
:103b2c00202e00002e2e0000206100007574000075
:103b3c00686500006e740000696300006174000029
:103b4c00696f00006e20000066610000696c000067
:103b5c00656400003a2000005472000079200000d7
:103b6c00616e00006f740000686500007220000038
:103b7c006b650000793f00000a00000053650000ef
:103b8c00656d000073200000746f0000206200005f
:103b9c0065200000612000004d6900006661000096
:103bac0072650000205500006c740000726100000a
:103bbc006c690000676800007420000074610000ec
:103bcc006720000028370000206200007974000094
:103bdc006520000055490000442900000a0000003f
:103bec005265000061640000696e000067200000ef
:103bfc007061000067650000203400000a000000be
:103c0c004f6f00006f700000732000002e2e00001c
:103c1c002e200000756e0000616200006c650000d3
:103c2c00207400006f2000007265000061640000c9
:103c3c0020740000686500002072000065710000af
:103c4c00756500007374000065640000207000004e
:103c5c0061670000652100003f0a000000ff0000c2
:103c6c00ffff0000ffff0000ff00000055410000b7
:103c7c005254000031200000706100007269000095
:103c8c007479000020650000727200006f720000f1
:103c9c000a00000055410000525400003120000081
:103cac0066720000616d0000696e00006720000004
:103cbc0065720000726f0000720a0000005500006f
:103ccc004152000054310000206f00007665000066
:103cdc0072720000756e00002065000072720000a8
:103cec006f7200000a00000045720000726f000045
:103cfc0072200000696e0000202e00002e2f0000a4
:103d0c006d7900005f7000006963000032340000c0
:103d1c005f75000061720000742e000063200000cb
:103d2c006c6900006e650000203300003237000023
:103d3c003a2000004153000053450000525400004b
:103d4c00286600005f62000072670000203c0000e3
:103d5c002036000035350000333500002e350000cc
:103d6c002920000066610000696c00006564000099
:103d7c002e0a000000450000727200006f720000f5
:103d8c00206900006e2000002e2e00002f6d000018
:103d9c00795f00007069000063320000345f00003e
:103dac0075610000727400002e630000206c00002e
:103dbc00696e00006520000033370000343a0000c3
:103dcc0020410000535300004552000054280000cd
:103ddc0075330000325f0000626100007564000002
:103dec005261000074650000203e00003d20000080
:103dfc0031300000303000004c29000020660000fb
:103e0c00616900006c650000642e00000a0000006f
:103e1c005541000052540000322000007061000037
:103e2c007269000074790000206500007272000055
:103e3c006f7200000a00000055410000525400004f
:103e4c003220000066720000616d0000696e000097
:103e5c006720000065720000726f0000720a00009b
:103e6c00005500004152000054320000206f000049
:103e7c007665000072720000756e0000206500000f
:103e8c00727200006f7200000a00000055410000c1
:103e9c00525400003220000052580000204900000b
:103eac006e74000065720000727500007074000082
:103ebc0020460000494600004f2000006f760000ad
:103ecc0065720000727500006e2100000045000054
:103edc00727200006f720000206900006e200000fa
:103eec002e2e00002f6d0000795f0000706900001d
:103efc0063320000345f00007561000072740000d2
:103f0c002e630000206c0000696e0000652000002c
:103f1c0037330000333a00002041000053530000b7
:103f2c004552000054280000665f000062720000d9
:103f3c00672000003c2000003635000035330000bf
:103f4c00352e000035290000206600006169000054
:103f5c006c650000642e00000a0000004572000031
:103f6c00726f000072200000696e0000202e0000ad
:103f7c002e2f00006d7900005f7000006963000057
:103f8c00323400005f75000061720000742e000076
:103f9c00632000006c6900006e6500002037000093
:103fac00383000003a200000415300005345000017
:103fbc005254000028750000333200005f6200008c
:103fcc0061750000645200006174000065200000ff
:103fdc003e3d00002031000030300000304c00002d
:103fec002920000066610000696c00006564000017
:103ffc002e0a000000000000447500006d700000e7
:10400c002073000065720000696100006c200000e4
:10401c006275000066660000657200003a200000c0
:10402c00000a00005772000069740000653a000035
:10403c00200000000a52000065610000643a000094
:10404c00202000000050000072650000616d00002f
:10405c00626c00006520000065720000726f000049
:10406c00720000004c6500006e6700007468000070
:10407c0020650000727200006f72000000430000a7
:10408c006f6d00006d6100006e6400002065000023
:10409c00727200006f72000000430000686500003f
:1040ac00636b0000737500006d20000065720000ea
:1040bc00726f0000720000000a410000636b000088
:1040cc003a20000000540000696d0000656f00008c
:1040dc00757400000a000000496e00007661000053
:1040ec006c690000640a0000000a00000a5300001a
:1040fc00414d0000436f00006e66000069670000d0
:10410c000a00000046610000696c0000000a000013
:10411c00447500006d700000207300006572000093
:10412c00696100006c20000062750000666600008a
:10413c00657200003a200000000a00000a720000bc
:10414c006561000064500000617300007369000039
:10415c007665000054610000726700006574000011
:10416c00494400000a0000000a41000054510000bc
:10417c00413a00002030000078000000534100005c
:10418c004b3a000020300000780000000a0a0000c2
:10419c000041000075740000686500006e7400003a
:1041ac00696600006963000061740000696f0000bb
:1041bc006e20000066610000696c00006564000000
:1041cc000a00000054720000796900006e6700005c
:1041dc00207400006f200000726500006164000014
:1041ec002031000036200000627900007465000068
:1041fc0073200000667200006f6d000020620000ea
:10420c006c6f0000636b0000200000005061000028
:10421c006765000020760000616c00007565000089
:10422c00206f000075740000206f000066200000f5
:10423c00726100006e670000650a0000000000005b
:10424c0000ff000000ff00000000000045720000ad
:10425c00726f000072200000696e0000202e0000ba
:10426c002e2f00002e2e00002f6c00006962000023
:10427c002f730000726300002f7000006963000050
:10428c00323400005f730000657200006961000049
:10429c006c2e0000632000006c6900006e6500004d
:1042ac0020380000303a0000204900006e760000f3
:1042bc00616c000069640000205500004152000050
:1042cc0054000000307800000045000072720000bd
:1042dc006f720000206900006e2000002e2e00007e
:1042ec002f2e00002e2f00006c690000622f0000a2
:1042fc0073720000632f00007069000063320000cd
:10430c00345f00007365000072690000616c00008e
:10431c002e630000206c0000696e00006520000018
:10432c0032390000353a0000204900006e7600005a
:10433c00616c0000696400002055000041520000cf
:10434c005400000045720000726f000072200000e3
:10435c00696e0000202e00002e2f00002e2e000073
:10436c002f6c0000696200002f7300007263000064
:10437c002f70000069630000323400005f7300008e
:10438c0065720000696100006c2e00006320000063
:10439c006c6900006e6500002033000033340000af
:1043ac003a200000496e0000766100006c69000044
:1043bc006420000055410000525400000000000031
:1043cc0050c3000030750000204e00001027000084
:1043dc0088130000b80b0000d0070000e8030000b1
:1043ec00f40100002c010000c80000006400000073
:1043fc00320000001e000000140000000a00000043
:10440c000500000003000000020000000100000095
:10441c000503000002010000321e0000140a000017
:10442c00050300000201000005030000020100006a
:10443c0005030000020100000a0a0000596f000089
:10444c0075720000206300006c6f0000636b00004d
:10445c0020630000686f00006963000065200000a5
:10446c0066610000696c0000656400002074000047
:10447c006f200000696e0000697400006961000023
:10448c006c6900007a6500002e2000005365000066
:10449c00652000002e2e00002f2e00002e2f000075
:1044ac006c690000622f000073720000632f000023
:1044bc007069000063320000345f0000636c000020
:1044cc006f6300006b66000072650000712e0000c7
:1044dc00632000006c6900006e6500002031000054
:1044ec0034360000206600006f720000206d000062
:1044fc006f720000652000006465000074610000ac
:10450c00696c0000732e0000004500007272000000
:10451c006f720000206900006e2000002e2e00003b
:10452c002f2e00002e2f00006c690000622f00005f
:10453c0073720000632f000070690000633200008a
:10454c00345f0000636c00006f6300006b6600005a
:10455c0072650000712e0000632000006c69000081
:10456c006e65000020310000373200003a20000058
:10457c0041530000534500005254000028750000c0
:10458c00385f0000736f00007572000063650000f7
:10459c00203c00002038000029200000666100004b
:1045ac00696c0000656400002e0a00000000000029
:020000040000fa
:1045bc000400fa00008fbe001e00be00c0090700f8
:1045cc001e00be00c409de004c0add004401de0002
:1045dc000201720000808000118080000200400007
:1045ec008380480000808800118088000080fa00d9
:1045fc00000006000000fa000000eb000080fa004a
:10460c00000006000400fa00000f78002147980013
:10461c008041eb000001eb00ae4090001e007800e2
:10462c00020007000080fa00000006000e00fa00ed
:10463c0030079800014f980052079800434f98009c
:10464c00d80507000004e0000a00320020002a0010
:10465c009006070008003700dd050700204798008a
:10466c002e409000f906070000c2b3007706070041
:10467c000100370000000000ca0507000004e0003c
:10468c00f5ff3a003e0090001040780010f0b700a3
:10469c000040eb00b60507000040eb00b405070036
:1046ac0000c0eb00b20507008e4890004e48900009
:1046bc0000c040000040e800304798003e409000a9
:1046cc00ab0507003e4090000040ea00a80507003b
:1046dc0040cdb300a605070040cdb300004f7800d5
:1046ec0070012a006b0607000040eb001047980091
:1046fc00170037001e4090000080fb00be009000a9
:10470c000080400010407800990507001e40900082
:10471c000080fb00be00900000804000104078003c
:10472c001e4f40001e4090000080fb00be00900019
:10473c000080400010407800c406070000c2b3009f
:10474c00420607001e4090000040e8001047980009
:10475c009e4090000e48900080cf5000e5ff39003d
:10476c000040eb0010479800170037001e409000e7
:10477c000080fb00de0090000080400010407800bc
:10478c007b0507001e4090000080fb00de009000bf
:10479c0000804000104078001e4f40001e409000ea
:1047ac000080fb00de00900000804000104078008c
:1047bc00a606070000c2b300240607001e409000a6
:1047cc000040e800104798009e4090004e48900032
:1047dc0080cf5000e5ff39001e4078000040ea0011
:1047ec00404798004e409000610507000040eb00e8
:1047fc005f050700840007000080fa000000060037
:10480c000c00fa0040079800214f980040f025005a
:10481c00b105200066ff070000022a001d060700f4
:10482c006300470031002000970007000004e000ff
:10483c0002003c00e0ff2f00710037003e4090006a
:10484c000004e00006003a004e4090000004e00036
:10485c0003003a005e409000e14f4000040032003b
:10486c0090022a000b060700d0ff2f0064003700cf
:10487c006600470021002000830007000004e000d0
:10488c0002003c00e0ff2f005d003700ee4090007e
:10489c007e40900000c040000004e00004003200a4
:1048ac0080032a00fb050700d0ff2f0054003700bf
:1048bc006e40900000c0e90060479800ee40900008
:1048cc002e48900080cf500002003600c0ff2f0011
:1048dc004b00370010d0bf000040e8002047980084
:1048ec006300470021002000670007000004e0007f
:1048fc0002003c00e0ff2f0041003700be4090005a
:10490c0050cdb30080cf500004003a00ce40900050
:10491c002e40900080cf50000400320050042a003a
:10492c00dc050700d0ff2f00350037006e409000eb
:10493c000080fb00800078004e00900052000700c1
:10494c008000fb006e4090000080fb00808f5000c8
:10495c0002003200e0ff2f0029003700ae4090002b
:10496c0050cdb30000cf40000040eb001047980042
:10497c00090037001e4090000080fb00ce00900024
:10498c0000804000104078001e4f40001e409000f8
:10499c000040e80010479800ee4090001e40900048
:1049ac0080cf5000f3ff3e00630047002100200041
:1049bc00350007000004e00002003c00e0ff2f007f
:1049cc000f0037003e4090001e4040000004e00005
:1049dc0003003a004e4090000004e0000400320056
:1049ec0030052a00ab050700d0ff2f00040037006c
:1049fc00a0c0b300950507006e4090000080fb003e
:104a0c000080fa00000006000c00fa0051122a0087
:104a1c0005000900315f78006e00b10040f0250000
:104a2c00b1052000e2fe070020062a0099050700c8
:104a3c006600470061002000130007000004e0003e
:104a4c0004003c0090062a0092050700e0cfb3005a
:104a5c000b00370066004700620020008e007800d3
:104a6c00bef807000000e0000400320020072a0016
:104a7c008805070000c0eb00010037000040eb0088
:104a8c000080fa00000006000c00fa0040079800b5
:104a9c00510798000000eb00000f78003100370040
:104aac00d4fe07008000eb00100798002107980047
:104abc00bc0407000004e00003003200c40407003b
:104acc000080fb00010037000080eb0030079800ed
:104adc003e0090000000e000040035003e00900015
:104aec000000e0000b00350012003700a03122005e
:104afc0091002000aefe07001e009000ae0090005a
:104b0c0061004000e08048001007980021079800e1
:104b1c00e7ff37001e0078000000e00003003200c1
:104b2c001e0078000040780014003700e0cfb3007e
:104b3c00120037001e007800ce009000008040006c
:104b4c00be00900081407800014878003e00900043
:104b5c0000407800bd05070000c2b3003b0507000c
:104b6c001e0fe8005e0090009e007800808f5000c1
:104b7c00cbff35001e007800004078000080fa0062
:104b8c00000006000000fa007012210041c1b300c1
:104b9c00014878008012210011c0b3000148780050
:104bac009012210041c1b30001487800a0122100ed
:104bbc0011c0b30001487800b0072a003505070082
:104bcc0041c0b300701221008efe07000004e0000b
:104bdc00020032000000eb000800370001c4b300f3
:104bec007012210006ff07008000780010002000e2
:104bfc000100e00001003c000000eb000080fa0026
:104c0c00000006000600fa007012210021c0b3005b
:104c1c000148780011c0b3007012210079fe070022
:104c2c000004e0000200320080082a001905070089
:104c3c0001c4b30070122100f1fe0700000f7800d0
:104c4c001e0078000000e00002003d0080082a00f1
:104c5c001005070070122100104078000080fb0046
:104c6c008000eb0010079800210798001e019000af
:104c7c00ae0190004818dd00c810de008100700005
:104c8c004810dd00100798002107980080122100c1
:104c9c00104078000080fb008000eb001e019000ab
:104cac00ae01900000007100818071001007980027
:104cbc00210798001e019000ae0190004818dd00fd
:104ccc00c810de00810070004810dd00100798004d
:104cdc002107980090122100104078000080fb0002
:104cec008000eb001e019000ae01900000007100ee
:104cfc008180710010079800210798001e01900018
:104d0c00ae0190004818dd00c810de008100700074
:104d1c004810dd001007980021079800a012210010
:104d2c00104078000080fb008000eb001e0190001a
:104d3c00ae01900000007100818071001007980096
:104d4c00210798001e009000ae0090005605070049
:104d5c000080fa00000006000200fa0050c5b30003
:104d6c000304070050c5b300010407000040eb002a
:104d7c00ff0307000040eb00fd0307000040eb00c1
:104d8c00fb030700070407000004e00008003200e2
:104d9c00d0082a00bf040700060037000c040700e7
:104dac00004f78001e4078002805070001003700ee
:104dbc0000000000fb0307000004e000f7ff3a00ce
:104dcc000080fa00000006000600fa00004f780090
:104ddc0011079800220798008001eb002e0190002b
:104dec009e0090001e407800020007000080fa0030
:104dfc00000006000c00fa004047980031079800ac
:104e0c00420798005307980070122100a1c4b30008
:104e1c00014878008012210011c0b30001487800cd
:104e2c0090122100ce4090000148780031c0b300b0
:104e3c0070122100f3fd07000004e00002003200b4
:104e4c000000eb0045003700300a2a0091040700ef
:104e5c0001c4b3007012210069fe07000000e000dd
:104e6c0002003d000000eb003c00370070122100f6
:104e7c0010407800e14f5000020032000000eb00bf
:104e8c003600370090122100104078000080fb00a3
:104e9c00100798001e0090004800dd0010079800d5
:104eac00a0122100104078000080fb009e009000b2
:104ebc000100700010079800a00b2a007504070071
:104ecc001e009000e904070000c2b3005f04070055
:104edc00400c2a006f040700b0122100104078002b
:104eec00da040700c00c2a006a040700c012210073
:104efc00904078004e009000014878000040eb0094
:104f0c00004f78000a0037001e80fb00be009000a6
:104f1c00008040009e80fb00e68040007212210061
:104f2c008100410091407800014878001e4fe80054
:104f3c00c0122100104078009e4f5000f2ff3e003e
:104f4c005e0090000000e00003003200801221009f
:104f5c001040780012f0b700100020000080fa001a
:104f6c00000006000e00fa00100798004147980058
:104f7c003207980043079800244f98006507980063
:104f8c0062002000ee0090001012210081f7070053
:104f9c004e4090000080fb00000178009e009000c5
:104fac00a01121007bf707004e4190001101210058
:104fbc00824878007012210001c4b30001487800c7
:104fcc008012210011c0b300014878002e489000d7
:104fdc000004e0000200320010c6b30001003700ec
:104fec0000c6b30091122100804878003e0090006a
:104ffc0080407800a012210001487800b0122100f6
:10500c00620020001112210062f707000040eb0043
:10501c00004f78000a0037001e80fb006a00400039
:10502c009e80fb00a211210081004100914078007c
:10503c007212210000004100014878001e4fe80068
:10504c0011d0bf009e40780080cf5000f2ff390095
:10505c0011d0bf006a4040008040780070122100df
:10506c0068fd07000004e000020032000040eb0085
:10507c000c00370001c4b30070122100e0fd0700e2
:10508c0070122100104078000004e000040032008f
:10509c00f00c2a00ff0307000040eb000100370072
:1050ac0010c0b3000080fa00000006000400fa00f3
:1050bc00004f780011079800800e2a00f5030700b6
:1050cc001e40780098040700a0c0b300df0307005f
:1050dc007012210001c4b300014878008012210035
:1050ec0011c0b300014878009012210001c3b30035
:1050fc0001487800a01221001e48780041c0b3007e
:10510c00701221003ffd07000004e0000200320095
:10511c000040eb000f00370001c4b30070122100f7
:10512c00b7fd070070122100104078000004e00069
:10513c00020032000040eb00060037008012210014
:10514c0002012000800078001e00900011f707007b
:10515c0010c0b3000080fa00000006000400fa0042
:10516c00004f780011079800f0c3b3009e40780000
:10517c0080cf500004003600c0102a00c503070081
:10518c000040eb00210037007012210001c4b30075
:10519c00014878008012210011c0b300014878004a
:1051ac009012210001c3b30001487800a012210025
:1051bc001e48780041c0b3007012210011fd070099
:1051cc000004e000020032000040eb000f0037004a
:1051dc0001c4b3007012210089fd07007012210078
:1051ec00104078000004e00007003a008012210013
:1051fc0042002000800078001e009000e5f60700b9
:10520c0010c0b300010037000040eb000080fa0032
:10521c00000006000000fa00b00507000080fa004c
:10522c00000006000400fa00004f780011079800f7
:10523c001e4078000004e00002003a001e009000be
:10524c004e0007000080fa00000006000000fa0083
:10525c0011eea90017eea9001beea9001deea90086
:10526c0017eea800a03122009100200020808800b9
:10527c00318088000030ef000230ef0015eea900fd
:10528c00020007000080fa00000006000000fa008f
:10529c00008080001180800061004000e0804800a8
:1052ac0000808800118088000280800013808000bc
:1052bc002080800031808000800f5100818f590048
:1052cc0003003600040007000030ef000230ef004e
:1052dc000080fa00000006000000fa00a0708000b8
:1052ec000080ea004f00de00004078000080fb00e8
:1052fc004f00dd00a2708000f1ff270081006100eb
:10530c0001007000a07088000080fa000000060008
:10531c003600f800809fbe00829fbe00849fbe00b6
:10532c00869fbe003200f8003400f8001000200008
:10533c00a0018800002020009001880000000000df
:10534c000000fa008001210041468000010878002d
:10535c00e06d2900090007000080fa003400f90014
:10536c003200f9004f03be004f02be004f01be00d9
:10537c004f00be003600f900004006000200fa00a3
:10538c00000f7800a08080000000e00003003a00cd
:10539c009e007800a18088000000fe000080fa00ca
:1053ac00000006000600fa0010079800210798007c
:1053bc009e009000010f78001e009000ae0090003f
:1053cc004008de0000007800a00288001e00780073
:1053dc001080ba008000eb00c001dd00020020004c
:1053ec001e0078001000ba008000eb000000710075
:1053fc00818071000080fa00000006000e00fa00a7
:10540c0000002000f10f2000e6ff07003007980095
:10541c004107980020002000f10f2000e1ff070059
:10542c00500798006107980010c0b300004f780037
:10543c00406f290010079800406f29002007980042
:10544c003e019000ce019000d0e42100010020002c
:10545c00800f5100818f590003003a00c06f290062
:10546c0010079800020037000040eb00004f780056
:10547c005e019000ee01900030002400010020003d
:10548c00800f5100818f590003003a00e070290011
:10549c00200798000000000010712900fd02070091
:1054ac003e009000ce0090007f030700e0712900c1
:1054bc00f80207001e009000f60207001072290087
:1054cc00f40207005e009000ee00900076030700e7
:1054dc00e0712900ef0207002e009000ed0207009a
:1054ec00e0722900eb0207001e4078000004e00087
:1054fc0002003a0010732900e60207000080fa004f
:10550c00000006000000fa00103a80004c00de009b
:10551c00674060000080fb00e30f50001b0032006e
:10552c00e30f500007003c00e10f50001100320067
:10553c00e10f500012003c000000e0000a003200b5
:10554c0021003700e50f500016003200e50f500027
:10555c0011003500e60f500015003200e70f500027
:10556c001600320018003700809c2900c902070081
:10557c0018003700509d2900c6020700150037009f
:10558c00b09e2900c30207001200370050a029006a
:10559c00c00207000f00370080a22900bd020700df
:1055ac000c00370070a32900ba020700090037006d
:1055bc0090a42900b70207000600370090a5290027
:1055cc00b40207000300370080a629006bff070018
:1055dc00000000000080fa00000006000200fa0043
:1055ec000040eb00004f7800003a8000680060003b
:1055fc000000e0000300320010a82900a5020700fb
:10560c004067a900003a8000640060000000e000e0
:10561c000300320010aa29009e0207004047a9008f
:10562c0000ac29009b020700003a8000610060007a
:10563c000000e0000c00320010c0b300004f7800f6
:10564c00f0ac2900930207004007a9004027a900ed
:10565c001430ef001630ef00800121008000eb00c9
:10566c00010878004d003700013a8000000420004a
:10567c00008060000000e00006003200a0ad2900b0
:10568c008402070010c0b300004f780040c7a90087
:10569c0040e7a900003a8000700060000000e000c4
:1056ac000d00320010c0b300004f7800b0ae2900de
:1056bc0078020700b08080000000e0000200320099
:1056cc00b080800073020700e0af29007102070070
:1056dc004087a90040e7a900013a8000000820009b
:1056ec00008060000000e0000500320010c0b30034
:1056fc00004f780000b029006602070040e7a900bf
:10570c00003a8000620060000000e00005003200fa
:10571c0010c0b300004f780010b129005d020700e3
:10572c004027a900013a800000002800008060009a
:10573c000000e0000500320010c0b300004f7800fc
:10574c00d0b129005302070041e7a900013a8000bb
:10575c0000002400008060000000e0000500320022
:10576c0010c0b300004f7800d0b2290049020700e6
:10577c0041c7a900013a8000002020000080600091
:10578c000000e0000500320010c0b300004f7800ac
:10579c0010b429003f0207004127a9001e407800e1
:1057ac000004e00002003a00a0b52900390207000d
:1057bc00a08080000000e00018003200a0b6290094
:1057cc0034020700a0808000320207008001210013
:1057dc00100078000000e0000a003200a0b7290099
:1057ec002c020700c08080004800de006f40600083
:1057fc009602070050b829002602070018d0bf00f7
:10580c009202070070b92900220207001430ef0041
:10581c00800121008000eb0001087800f7fe0700f2
:10582c0038ff07000080fa00000006000200fa00b2
:10583c00000f780085fe070076fe07000040280068
:10584c00310020006e03070064ff07001e00780083
:10585c00100207000080fa00000006000800fa00a1
:10586c00881f780020079800310798002e009000c0
:10587c00be0090007ff40700008fbe001e00be002b
:10588c0097f407000001be002e009000be009000af
:10589c00d6f3070018c0b3000200200003f0230069
:1058ac0072f407000000e000010035000044eb003a
:1058bc000804e000020032001e00be0004003700a5
:1058cc0012002000030020003e004100ae80490081
:1058dc004f0478000080fa00000006000600fa0071
:1058ec00881f780010079800210798001e00900070
:1058fc00ae0090005ff40700000f78001e007800e7
:10590c008000eb0076f407000001be001e00900042
:10591c00ae009000b5f3070018c0b30002002000e1
:10592c0003f0230051f407000000e00001003500f3
:10593c000044eb000804e000020032001e00780076
:10594c00010037001e00e8004f0478000080fa00c8
:10595c00000006000e00fa00889fbe002007980089
:10596c003107980042079800540798006507980083
:10597c0010c0b300ce009000e18f50000100360043
:10598c000040eb00a1b9290026fe07004e00900054
:10599c000000e00012003a002e009000be009000c3
:1059ac004ff407000004be005e009000ee00900073
:1059bc004bf407000001be000800be00e9f307002d
:1059cc000200200003182400e6f307000200200068
:1059dc0003f8230085f30700008fbe001100370089
:1059ec002e009000be0090003df407000004be00a5
:1059fc005e009000ee00900039f407000001be003c
:105a0c000800be00d7f307000200200003082400a2
:105a1c00d4f307000200200003f8230073f30700ff
:105a2c00008fbe0018c0b30002f82f00f3772400db
:105a3c001e00be000df407000000e0000100350060
:105a4c000044eb0071be290008407800f5fd07000a
:105a5c001e00be00a1ff07004f04be000080fa002c
:105a6c00000006000400fa00004f780011079800af
:105a7c001e4078000004e00002003a001e00900076
:105a8c003efe07000080fa00000006000400fa0049
:105a9c00008fbe001e00be00890407001e00be0061
:105aac00c409de004c0add004401de000201720074
:105abc00008080001180800002004000838048003c
:105acc0000808800118088000080fa000000060029
:105adc000200fa0010118000680060000000e00075
:105aec000400320030118000004f7800c0e3290020
:105afc0022fe070010118000640060000000e0002e
:105b0c000400320030118000004f780000e52900bd
:105b1c001afe070010118000620060000000e00017
:105b2c00030032002222a90050e6290013fe0700d0
:105b3c000080fa00000006000200fa00004f780016
:105b4c0001003700d1fd070011118000002020005a
:105b5c00008060000000e000faff3a001e80fb00ad
:105b6c00201188000080fa00000006000000fa00f6
:105b7c001011800000407800614060000080fa0045
:105b8c00000006000000fa0001003700bffd07000e
:105b9c0010118000610060000000e000fbff32008b
:105bac00cbff070030118000004078000080fa0025
:105bbc00000006000800fa00881f780020079800f3
:105bcc0031079800114ea800174ea9001b4ea900d2
:105bdc001d4ea9002136800000f82f008080600047
:105bec00a00220000100700020368800116ea90070
:105bfc00176ea9001b6ea9001d6ea9004134800010
:105c0c00f00f2c00008060000080a0004034880061
:105c1c002022ef002e009000be009000b0f3070091
:105c2c000001be0080dc260041c624004df30700b5
:105c3c0002002000031824004af307000200200091
:105c4c0003f82300e9f20700008fbe0018c0b30070
:105c5c0002f82f00f37724001e00be0083f3070028
:105c6c000000e000010035000044eb00a1e7290032
:105c7c00084078007bff07001e00be0017ff0700de
:105c8c00401188000000280000118800004020000e
:105c9c001011880014c0b3002e019000be019000ba
:105cac00703e200001002000800f5100818f5900b0
:105cbc0001003e000042eb0011ec2900044078008a
:105ccc0068ff0700909e2e00010020006fff070068
:105cdc002222a90001003700301180001011800031
:105cec00680060000000e000fbff3a00101180002b
:105cfc00640060000000e000f7ff3a004f047800f9
:105d0c000080fa00000006000200fa0090118000ea
:105d1c00680060000000e00004003200b011800058
:105d2c00004f7800e0f0290094fd070090118000ee
:105d3c00640060000000e00004003200b01180003c
:105d4c00004f780020f229008cfd07009011800094
:105d5c00620060000000e000030032003222a90063
:105d6c0070f3290085fd07000080fa000000060092
:105d7c000200fa00004f78000100370043fd0700d5
:105d8c009111800000202000008060000000e000e5
:105d9c00faff3a001e80fb00a01188000080fa0078
:105dac00000006000000fa00618080007080800016
:105dbc000080680000f0a7000000ea000000ea0084
:105dcc004f00de00004078000080fa000000060062
:105ddc000000fa00010037002cfd070061808000f4
:105dec0070808000808f5000fbff3200708080003c
:105dfc000000e80070808800718080000010200096
:105e0c00808f500001003a000e30ef00708080004f
:105e1c00a101210000804000104078000080fa00b1
:105e2c00000006003600f800809fbe00829fbe0076
:105e3c00849fbe00869fbe003200f8003400f8003c
:105e4c0010002000a0018800002020009001880094
:105e5c00000000000200fa0003c8a900aaff070016
:105e6c00b0118000004f7800608080000000e800d6
:105e7c00608088006180800000102000808f5000be
:105e8c0001003a000c30ef006180800070808000cf
:105e9c00808f500002003a00c0f4290037fd070043
:105eac00608080009e407800a2012100000041002b
:105ebc00014878000080fa003400f9003200f90043
:105ecc004f03be004f02be004f01be004f00be008c
:105edc003600f900004006000800fa00881f780020
:105eec002007980031079800108ea800168ea90084
:105efc001a8ea9001c8ea9003136800000f82f00e4
:105f0c008080600040022000010070003036880064
:105f1c0010aea90016aea9001aaea9001caea900bd
:105f2c0011348000f00f2c008080600000302000c5
:105f3c0001007000103488003022ef002e00900019
:105f4c00be009000e6f207000001be0080dc2600d7
:105f5c0041c6240083f2070002002000031824002d
:105f6c0080f207000200200003f823001ff2070054
:105f7c00008fbe0018c0b30002f82f00f377240086
:105f8c001e00be00b9f207000000e0000100350061
:105f9c000044eb00d1f6290008407800b1fe070060
:105fac001e00be004dfe0700c01188000000280036
:105fbc0080118800004020009011880014c0b300ac
:105fcc002e019000be019000703e200001002000c8
:105fdc00800f5100818f590001003e000042eb0000
:105fec0041fb2900044078009efe0700909e2e0085
:105ffc0001002000a5fe07003222a9000100370095
:10600c00b011800090118000680060000000e0007a
:10601c00fbff3a0090118000640060000000e0007b
:10602c00f7ff3a0003c8a90071428000f08f2f00df
:10603c00008060000080a0007042880023c8a80087
:10604c004f0478000080fa00000006000200fa00fd
:10605c00004f7800408b8000e10f500003003200ad
:10606c00e20f500004003200060037001e4078009a
:10607c00b1fe0700050037001e4078003cff07000a
:10608c0002003700c0122a00bcfc07000080fa0096
:10609c00000006000200fa00000f78000400370030
:1060ac001e00780010407800e8ff07001e0fe80083
:1060bc001e007800104078000004e000f8ff3a0061
:1060cc000080fa00000006000a00fa002007980081
:1060dc0031079800024f98003e0090000000e0004d
:1060ec0002003a000000eb00240037000000eb0037
:1060fc00100798000000eb001007980017003700fd
:10610c000e4890000004e000030032002401070058
:10611c00004f78000200370011010700004f780093
:10612c001e407800ea4f5000100032001e407800ec
:10613c00ed4f50000d0032009e4078002e00900074
:10614c00014878002e0090000000e800200798001d
:10615c001e0090000000e800100798009e009000c0
:10616c003e009000808f5000e5ff39002e0090001b
:10617c008040eb00014878001e0090000080fa007f
:10618c00000006000400fa00000f780011079800c8
:10619c001e0090000041eb00800078001e0078008b
:1061ac00c9ff07000080fa00000006000400fa0096
:1061bc00000f7800110798001e00900012c0b30069
:1061cc00800078001e007800bfff07000080fa00f6
:1061dc00000006000400fa00204798002e409000b2
:1061ec000080fb004400de00004f78001e40780069
:1061fc00e94f50000400360071c3b3001ec04000cc
:10620c0092ff07000300370001c3b3001ec040001b
:10621c008eff07002e4090006f4f60001e407800ec
:10622c00e94f50000400360071c3b3001ec040009b
:10623c0086ff07000300370001c3b3001ec04000f7
:10624c0082ff07000080fa00000006000200fa003e
:10625c00004f780080162a008eff07001e40780041
:10626c00dcff07000080fa00000006000400fa00c2
:10627c001007980080162a0086ff07001e00900069
:10628c004800de00004f78001e407800d1ff070068
:10629c001e009000004f78001e407800cdff0700d4
:1062ac000080fa00000006000600fa0010079800b3
:1062bc002107980080162a0076ff07001e00900028
:1062cc00ae0090004808de00004f78001e407800b9
:1062dc00c0ff07001e009000ae0090004008de00da
:1062ec00004f78001e407800baff07001e00900097
:1062fc00ae0090004809dd004800de00000071008f
:10630c00c808de00004f78001e407800b1ff07007f
:10631c001e009000004f78001e407800adff070073
:10632c000080fa00000006000a00fa00004f9800f6
:10633c000040eb00004f78008e4890001147980009
:10634c0000c3b3002047980000c3b3003047980047
:10635c0000c3b300404798000040eb005047980042
:10636c009e40900070ccb30080cf500006003600e9
:10637c002e40900000c0e800204798001e4090007e
:10638c008043b000104798009e40900030c6b30088
:10639c0080cf5000070036002e4090000040e800ef
:1063ac00204798009e409000c0c9b30000c0400038
:1063bc00104798000040eb00004f78002100370098
:1063cc001e80fb0021212a000080400090407800b4
:1063dc001e40900080cf500019003e001e80fb0034
:1063ec004200de00004078008080fb000101e800e4
:1063fc000080fb000000e8000080e8006e407800a0
:10640c00804078001e80fb00a3212a000080410000
:10641c001040780000c04000804078000280e80006
:10642c00017778001e80fb0021212a0000804000ab
:10643c00104078009e40900000c05000104798001b
:10644c001e4fe8001e407800e74f5000dcff36007e
:10645c000040eb00504798000e80e8000dff07004d
:10646c000080fa00000006000c00fa0050079800ab
:10647c000040eb00004f7800de0090001107980000
:10648c0000c3b3004047980000c3b30050479800c6
:10649c0000c3b3006047980000c3b3007047980076
:1064ac0000c3b300004f98000040eb00004f780091
:1064bc00220037001e80fb0080004000601e2a0076
:1064cc0000804000900078001e009000808f5000eb
:1064dc0019003e001e80fb004200de0000407800e8
:1064ec000081fb000080fb00640040006e407800df
:1064fc00804078001e80fb0063006000e3202a00cf
:10650c00008041001040780000c0400080407800be
:10651c0064004100017778001e80fb008000400081
:10652c00601e2a0000804000100078009e00900041
:10653c0000805000100798001e4fe8001e407800a5
:10654c00f34f5000dbff36000040eb00104f98007b
:10655c0064004700cffe07000080fa000000060030
:10656c000000fa00408b8000e10f50000300320065
:10657c00e20f5000030032000400370081fd0700d9
:10658c000500370012fe070003003700b0162a0082
:10659c007afb07000040eb000080fa0000000600c8
:1065ac000200fa00eeff0700004f78001e40780052
:1065bc00a6fe07001e4078000080fa0000000600ce
:1065cc000000fa00408b8000e10f50000300320005
:1065dc00e20f5000030032000400370063fd070097
:1065ec0005003700effd070003003700801a2a0072
:1065fc0062fb07000040eb000080fa000000060080
:10660c000400fa00008fbe0010002000408b8800b0
:10661c001e00be0067fd07000080fa0000000600a7
:10662c000400fa00004f7800110798001e40780013
:10663c000004e00002003a001e0090004ffb07002f
:10664c000080fa00000006000000fa00a30007001a
:10665c000040280031002000e9ff0700044028001a
:10666c00350020000001eb000070280031392000bb
:10667c00b8fc0700401188002062a9000080fa00d5
:10668c00000006000000fa00428080005380800069
:10669c000080eb008080eb00800f5100818f59004f
:1066ac001200320040808000518080006100400068
:1066bc00e080480040808800518088004280800043
:1066cc0053808000f0d3200031002000800f510057
:1066dc00818f590007003600dbff070020222a00bb
:1066ec006cfe0700e9fa0700feff3700000000000f
:1066fc0001003700000000000080fa0000000600d6
:10670c000400fa002047980010c0b300ae4090007f
:10671c00e7cf5000010036000040eb00b1282a0002
:10672c00bfff0700ff3ffc00113a8000010f78000b
:10673c002e409000674060000080fb006700600006
:10674c004800dd001e017800f18f2f0081006100f0
:10675c0001007000000f78001e0078000000a000ff
:10676c00000f78000e00e800104078000081fb005c
:10677c0080072000a1092000337420008049780094
:10678c0081497800824978000e007800104078002a
:10679c000081fb00600420007105200023742000a0
:1067ac008049780081497800824978000000fc001b
:1067bc000830ef000a30ef0001003700b1ff07008e
:1067cc00103a8000610060000000e000fbff3a001e
:1067dc002e409000e14f5000060032002e409000f9
:1067ec00e34f50000c003a0003003700a5ff0700f0
:1067fc000100370000000000113a80000002200068
:10680c00008060000000e000f8ff32000300370059
:10681c009cff07000100370000000000103a8000c8
:10682c004c00de00674060008080fb002e40900032
:10683c000080fb00808f5000f5ff3a000080fa00ca
:10684c00000006000000fa000080fa0000000600bc
:10685c000000fa000040eb00a9ff0700413a80005d
:10686c0000fc2f0000806000403a88000080fa0095
:10687c00000006000000fa000040eb00a0ff07003b
:10688c00413a800000fc2f0000806000403a8800f4
:10689c00213a800000fe2f00008060007000b300e1
:1068ac00203a8800313a800000e02f0080806000a0
:1068bc00100c200001007000303a8800213a800052
:1068cc00f0f32f0000806000203a880010c0b30065
:1068dc008bff07000080fa00000006000000fa00a1
:1068ec000040eb0086ff0700413a800000fc2f00bf
:1068fc0000806000403a8800213a800000fe2f00a2
:10690c0000806000203a8800313a800000e02f00bf
:10691c0080806000f003200001007000303a880095
:10692c00213a8000f0f32f0000806000203a8800ac
:10693c0010c0b30072ff07000080fa0000000600d0
:10694c000000fa000040eb006dff0700413a8000a8
:10695c0000fc2f0000806000403a8800213a800043
:10696c0000fe2f0000806000203a8800313a800041
:10697c0000e02f0080806000a00420000100700067
:10698c00303a8800213a8000f0f32f00008060003c
:10699c00203a880010c0b30059ff07000080fa00ad
:1069ac00000006000000fa000040eb0054ff070056
:1069bc00213a800000fe2f0000806000203a880001
:1069cc00313a800000e02f008080600060022000df
:1069dc0001007000303a8800213a8000f0f32f005b
:1069ec0000806000203a880030c0b30044ff0700ec
:1069fc000080fa00000006000000fa0020c0b3007e
:106a0c003fff07000080fa00000006000400fa00b7
:106a1c00008fbe001e00be00a90007001e00be00b5
:106a2c00c409de004c0add004401de0002017200e4
:106a3c0000808000118080000200400083804800ac
:106a4c0000808800118088000080fa000000060099
:106a5c000600fa0010079800414798000040eb0030
:106a6c00004f7800080037001e80fb009e0090004d
:106a7c000080400010407800f4fd070000c2b30015
:106a8c0072fd07001e4fe8004e4090009e407800bb
:106a9c0080cf5000f4ff39000080fa00000006009f
:106aac004000fa0060c3290060fb070000202c00a6
:106abc001100200008fd0700e10047000600090056
:106acc008058eb0080622b0011392000cfff0700ab
:106adc00a1f80700a0f807004af807009ef8070085
:106aec0028f80700e9f90700e80047000e00e80065
:106afc0001017800800078000040eb00b2f807003c
:106b0c00004f780080c6290062fd070010c82900dc
:106b1c0060fd07000e48900003fe0700f0c8290036
:106b2c005cfd070070c929005afd07008e489000d3
:106b3c000e00e800c6ff0700a0c0b30043fd07002d
:106b4c000e489000e44f50002b003a0040ca290038
:106b5c0050fd070040cd29004efd0700690147009c
:106b6c0051e3290005000900315978008e48900046
:106b7c00690147000e00e800820278000042eb0039
:106b8c004200200003002000f6f80700004f7800b8
:106b9c001e4078000004e00015003200c0d029002f
:106bac003cfd07006f0047008000780040c0b30038
:106bbc003ef90700004f78001e4078000004e0000a
:106bcc0008003200c0d3290032fd07006f004700d7
:106bdc0001c1b3009eff0700a0c0b3001bfd07005e
:106bec000500370000d529002afd070002003700f8
:106bfc0010d9290027fd07000e489000e74f5000e0
:106c0c0014003a0040dc290022fd070060df290057
:106c1c0020fd07007f0047008000780040c0b300d3
:106c2c004ef90700004f78001e4078000004e00089
:106c3c00060032007f00470041c0b30084ff07000c
:106c4c00a0c0b30001fd07000200370060e029007e
:106c5c0010fd070080ec2800811d21006bff070050
:046c6c00a0ff37004e
:020000040000fa
:106c70000810000004000000800000000010000068
:106c800008000000800000001a1000000001000051
:106c9000800000000c1000000400000080000000d4
:106ca0001a1100004e0000008000000010100000cb
:106cb00004000000800000006811000002000000d5
:0c6cc00082000000010000000000000045
:020000040000fa
:106ccc00f03fb1000180b10006003500ee03090071
:106cdc0000000000403fb1000180b100fbff3d000f
:106cec001000b000203fb000020035000080090009
:086cfc0000000000000006008a
:020000040000fa
:020000040002f8
:04afe000cfff00009f
:020000040000fa
:020000040002f8
:04afe400efff00007b
:020000040000fa
:020000040002f8
:04afe80079ff0000ed
:020000040000fa
:020000040002f8
:04afec005bff000007
:020000040000fa
:020000040002f8
:04aff00078ff0000e6
:020000040000fa
:020000040002f8
:04aff400ffff00005b
:00000001FF
